{
  "_format": "hh-sol-artifact-1",
  "contractName": "ERC721Token",
  "sourceName": "contracts/nft.sol",
  "abi": [
    {
      "inputs": [
        {
          "internalType": "string[]",
          "name": "_categories",
          "type": "string[]"
        },
        {
          "internalType": "string[]",
          "name": "_baseUri",
          "type": "string[]"
        },
        {
          "internalType": "uint256[]",
          "name": "_price",
          "type": "uint256[]"
        },
        {
          "internalType": "uint256[]",
          "name": "_maxSupply",
          "type": "uint256[]"
        },
        {
          "internalType": "uint256[]",
          "name": "_percentages",
          "type": "uint256[]"
        },
        {
          "internalType": "address",
          "name": "_usdc",
          "type": "address"
        },
        {
          "internalType": "address",
          "name": "_artist",
          "type": "address"
        },
        {
          "internalType": "address",
          "name": "_investor",
          "type": "address"
        }
      ],
      "stateMutability": "nonpayable",
      "type": "constructor"
    },
    {
      "anonymous": false,
      "inputs": [
        {
          "indexed": true,
          "internalType": "address",
          "name": "owner",
          "type": "address"
        },
        {
          "indexed": true,
          "internalType": "address",
          "name": "approved",
          "type": "address"
        },
        {
          "indexed": true,
          "internalType": "uint256",
          "name": "tokenId",
          "type": "uint256"
        }
      ],
      "name": "Approval",
      "type": "event"
    },
    {
      "anonymous": false,
      "inputs": [
        {
          "indexed": true,
          "internalType": "address",
          "name": "owner",
          "type": "address"
        },
        {
          "indexed": true,
          "internalType": "address",
          "name": "operator",
          "type": "address"
        },
        {
          "indexed": false,
          "internalType": "bool",
          "name": "approved",
          "type": "bool"
        }
      ],
      "name": "ApprovalForAll",
      "type": "event"
    },
    {
      "anonymous": false,
      "inputs": [
        {
          "indexed": false,
          "internalType": "address",
          "name": "",
          "type": "address"
        },
        {
          "indexed": false,
          "internalType": "uint256",
          "name": "",
          "type": "uint256"
        }
      ],
      "name": "OpenseaReceived",
      "type": "event"
    },
    {
      "anonymous": false,
      "inputs": [
        {
          "indexed": false,
          "internalType": "address",
          "name": "account",
          "type": "address"
        }
      ],
      "name": "Paused",
      "type": "event"
    },
    {
      "anonymous": false,
      "inputs": [
        {
          "indexed": false,
          "internalType": "address",
          "name": "",
          "type": "address"
        },
        {
          "indexed": false,
          "internalType": "uint256",
          "name": "",
          "type": "uint256"
        }
      ],
      "name": "RoyaltiesReceived",
      "type": "event"
    },
    {
      "anonymous": false,
      "inputs": [
        {
          "indexed": true,
          "internalType": "address",
          "name": "from",
          "type": "address"
        },
        {
          "indexed": true,
          "internalType": "address",
          "name": "to",
          "type": "address"
        },
        {
          "indexed": true,
          "internalType": "uint256",
          "name": "tokenId",
          "type": "uint256"
        }
      ],
      "name": "Transfer",
      "type": "event"
    },
    {
      "anonymous": false,
      "inputs": [
        {
          "indexed": false,
          "internalType": "address",
          "name": "account",
          "type": "address"
        }
      ],
      "name": "Unpaused",
      "type": "event"
    },
    {
      "inputs": [
        {
          "internalType": "uint32",
          "name": "amount",
          "type": "uint32"
        }
      ],
      "name": "FundRoyalties",
      "outputs": [],
      "stateMutability": "nonpayable",
      "type": "function"
    },
    {
      "inputs": [
        {
          "internalType": "uint256",
          "name": "",
          "type": "uint256"
        }
      ],
      "name": "RoyaltiesClaimablePerCategory",
      "outputs": [
        {
          "internalType": "uint256",
          "name": "",
          "type": "uint256"
        }
      ],
      "stateMutability": "view",
      "type": "function"
    },
    {
      "inputs": [
        {
          "internalType": "uint256",
          "name": "",
          "type": "uint256"
        }
      ],
      "name": "RoyaltiesClaimedPerId",
      "outputs": [
        {
          "internalType": "uint256",
          "name": "",
          "type": "uint256"
        }
      ],
      "stateMutability": "view",
      "type": "function"
    },
    {
      "inputs": [
        {
          "internalType": "string",
          "name": "_categories",
          "type": "string"
        },
        {
          "internalType": "string",
          "name": "_baseUri",
          "type": "string"
        },
        {
          "internalType": "uint256",
          "name": "_price",
          "type": "uint256"
        },
        {
          "internalType": "uint256",
          "name": "_maxSupply",
          "type": "uint256"
        },
        {
          "internalType": "uint256",
          "name": "_percentages",
          "type": "uint256"
        }
      ],
      "name": "addCategory",
      "outputs": [],
      "stateMutability": "nonpayable",
      "type": "function"
    },
    {
      "inputs": [
        {
          "internalType": "address",
          "name": "to",
          "type": "address"
        },
        {
          "internalType": "uint256",
          "name": "tokenId",
          "type": "uint256"
        }
      ],
      "name": "approve",
      "outputs": [],
      "stateMutability": "nonpayable",
      "type": "function"
    },
    {
      "inputs": [],
      "name": "artist",
      "outputs": [
        {
          "internalType": "address",
          "name": "",
          "type": "address"
        }
      ],
      "stateMutability": "view",
      "type": "function"
    },
    {
      "inputs": [
        {
          "internalType": "address",
          "name": "owner",
          "type": "address"
        }
      ],
      "name": "balanceOf",
      "outputs": [
        {
          "internalType": "uint256",
          "name": "",
          "type": "uint256"
        }
      ],
      "stateMutability": "view",
      "type": "function"
    },
    {
      "inputs": [
        {
          "internalType": "uint256",
          "name": "",
          "type": "uint256"
        }
      ],
      "name": "categories",
      "outputs": [
        {
          "internalType": "string",
          "name": "name",
          "type": "string"
        },
        {
          "internalType": "string",
          "name": "baseUri",
          "type": "string"
        },
        {
          "internalType": "uint256",
          "name": "price",
          "type": "uint256"
        },
        {
          "internalType": "uint256",
          "name": "maxSupply",
          "type": "uint256"
        },
        {
          "internalType": "uint256",
          "name": "counterSupply",
          "type": "uint256"
        },
        {
          "internalType": "uint256",
          "name": "percentages",
          "type": "uint256"
        }
      ],
      "stateMutability": "view",
      "type": "function"
    },
    {
      "inputs": [],
      "name": "claimMultipleRoyalties",
      "outputs": [],
      "stateMutability": "nonpayable",
      "type": "function"
    },
    {
      "inputs": [
        {
          "internalType": "uint256",
          "name": "_tokenId",
          "type": "uint256"
        }
      ],
      "name": "claimRoyalties",
      "outputs": [],
      "stateMutability": "nonpayable",
      "type": "function"
    },
    {
      "inputs": [
        {
          "internalType": "address",
          "name": "_to",
          "type": "address"
        },
        {
          "internalType": "uint256",
          "name": "categoryId",
          "type": "uint256"
        },
        {
          "internalType": "uint256",
          "name": "_quantity",
          "type": "uint256"
        }
      ],
      "name": "crossMint",
      "outputs": [],
      "stateMutability": "payable",
      "type": "function"
    },
    {
      "inputs": [
        {
          "internalType": "uint256",
          "name": "tokenId",
          "type": "uint256"
        }
      ],
      "name": "getApproved",
      "outputs": [
        {
          "internalType": "address",
          "name": "",
          "type": "address"
        }
      ],
      "stateMutability": "view",
      "type": "function"
    },
    {
      "inputs": [
        {
          "internalType": "uint256",
          "name": "categoryId",
          "type": "uint256"
        }
      ],
      "name": "getPriceByCategory",
      "outputs": [
        {
          "internalType": "uint256",
          "name": "",
          "type": "uint256"
        }
      ],
      "stateMutability": "view",
      "type": "function"
    },
    {
      "inputs": [
        {
          "internalType": "uint256",
          "name": "_tokenId",
          "type": "uint256"
        }
      ],
      "name": "getRewardsByTokenId",
      "outputs": [
        {
          "internalType": "uint256",
          "name": "",
          "type": "uint256"
        }
      ],
      "stateMutability": "view",
      "type": "function"
    },
    {
      "inputs": [
        {
          "internalType": "address",
          "name": "owner",
          "type": "address"
        },
        {
          "internalType": "address",
          "name": "operator",
          "type": "address"
        }
      ],
      "name": "isApprovedForAll",
      "outputs": [
        {
          "internalType": "bool",
          "name": "",
          "type": "bool"
        }
      ],
      "stateMutability": "view",
      "type": "function"
    },
    {
      "inputs": [
        {
          "internalType": "uint256",
          "name": "_quantity",
          "type": "uint256"
        },
        {
          "internalType": "uint256",
          "name": "categoryId",
          "type": "uint256"
        },
        {
          "internalType": "address",
          "name": "_to",
          "type": "address"
        }
      ],
      "name": "mintUSDC",
      "outputs": [],
      "stateMutability": "payable",
      "type": "function"
    },
    {
      "inputs": [],
      "name": "name",
      "outputs": [
        {
          "internalType": "string",
          "name": "",
          "type": "string"
        }
      ],
      "stateMutability": "view",
      "type": "function"
    },
    {
      "inputs": [
        {
          "internalType": "uint256",
          "name": "tokenId",
          "type": "uint256"
        }
      ],
      "name": "ownerOf",
      "outputs": [
        {
          "internalType": "address",
          "name": "",
          "type": "address"
        }
      ],
      "stateMutability": "view",
      "type": "function"
    },
    {
      "inputs": [],
      "name": "paused",
      "outputs": [
        {
          "internalType": "bool",
          "name": "",
          "type": "bool"
        }
      ],
      "stateMutability": "view",
      "type": "function"
    },
    {
      "inputs": [
        {
          "internalType": "uint256",
          "name": "categoryId",
          "type": "uint256"
        }
      ],
      "name": "removeCategory",
      "outputs": [],
      "stateMutability": "nonpayable",
      "type": "function"
    },
    {
      "inputs": [
        {
          "internalType": "address",
          "name": "from",
          "type": "address"
        },
        {
          "internalType": "address",
          "name": "to",
          "type": "address"
        },
        {
          "internalType": "uint256",
          "name": "tokenId",
          "type": "uint256"
        }
      ],
      "name": "safeTransferFrom",
      "outputs": [],
      "stateMutability": "nonpayable",
      "type": "function"
    },
    {
      "inputs": [
        {
          "internalType": "address",
          "name": "from",
          "type": "address"
        },
        {
          "internalType": "address",
          "name": "to",
          "type": "address"
        },
        {
          "internalType": "uint256",
          "name": "tokenId",
          "type": "uint256"
        },
        {
          "internalType": "bytes",
          "name": "data",
          "type": "bytes"
        }
      ],
      "name": "safeTransferFrom",
      "outputs": [],
      "stateMutability": "nonpayable",
      "type": "function"
    },
    {
      "inputs": [
        {
          "internalType": "address",
          "name": "operator",
          "type": "address"
        },
        {
          "internalType": "bool",
          "name": "approved",
          "type": "bool"
        }
      ],
      "name": "setApprovalForAll",
      "outputs": [],
      "stateMutability": "nonpayable",
      "type": "function"
    },
    {
      "inputs": [],
      "name": "setPaused",
      "outputs": [],
      "stateMutability": "nonpayable",
      "type": "function"
    },
    {
      "inputs": [],
      "name": "setUnPaused",
      "outputs": [],
      "stateMutability": "nonpayable",
      "type": "function"
    },
    {
      "inputs": [
        {
          "internalType": "bytes4",
          "name": "interfaceId",
          "type": "bytes4"
        }
      ],
      "name": "supportsInterface",
      "outputs": [
        {
          "internalType": "bool",
          "name": "",
          "type": "bool"
        }
      ],
      "stateMutability": "view",
      "type": "function"
    },
    {
      "inputs": [],
      "name": "symbol",
      "outputs": [
        {
          "internalType": "string",
          "name": "",
          "type": "string"
        }
      ],
      "stateMutability": "view",
      "type": "function"
    },
    {
      "inputs": [
        {
          "internalType": "uint256",
          "name": "index",
          "type": "uint256"
        }
      ],
      "name": "tokenByIndex",
      "outputs": [
        {
          "internalType": "uint256",
          "name": "",
          "type": "uint256"
        }
      ],
      "stateMutability": "view",
      "type": "function"
    },
    {
      "inputs": [
        {
          "internalType": "address",
          "name": "owner",
          "type": "address"
        },
        {
          "internalType": "uint256",
          "name": "index",
          "type": "uint256"
        }
      ],
      "name": "tokenOfOwnerByIndex",
      "outputs": [
        {
          "internalType": "uint256",
          "name": "",
          "type": "uint256"
        }
      ],
      "stateMutability": "view",
      "type": "function"
    },
    {
      "inputs": [
        {
          "internalType": "uint256",
          "name": "_tokenId",
          "type": "uint256"
        }
      ],
      "name": "tokenURI",
      "outputs": [
        {
          "internalType": "string",
          "name": "",
          "type": "string"
        }
      ],
      "stateMutability": "view",
      "type": "function"
    },
    {
      "inputs": [],
      "name": "totalSupply",
      "outputs": [
        {
          "internalType": "uint256",
          "name": "",
          "type": "uint256"
        }
      ],
      "stateMutability": "view",
      "type": "function"
    },
    {
      "inputs": [
        {
          "internalType": "address",
          "name": "from",
          "type": "address"
        },
        {
          "internalType": "address",
          "name": "to",
          "type": "address"
        },
        {
          "internalType": "uint256",
          "name": "tokenId",
          "type": "uint256"
        }
      ],
      "name": "transferFrom",
      "outputs": [],
      "stateMutability": "nonpayable",
      "type": "function"
    },
    {
      "inputs": [],
      "name": "usdc",
      "outputs": [
        {
          "internalType": "address",
          "name": "",
          "type": "address"
        }
      ],
      "stateMutability": "view",
      "type": "function"
    },
    {
      "inputs": [],
      "name": "withdraw",
      "outputs": [],
      "stateMutability": "payable",
      "type": "function"
    },
    {
      "stateMutability": "payable",
      "type": "receive"
    }
  ],
  "bytecode": "0x6080604052603260135560326014553480156200001b57600080fd5b506040516200361c3803806200361c8339810160408190526200003e916200058d565b60408051808201825260048152631d195cdd60e21b602080830191825283518085019094526002845261151560f21b9084015281519192916200008491600091620002d2565b5080516200009a906001906020840190620002d2565b5050600a805460ff191690555086518851148015620000ba575085518851145b8015620000c8575084518851145b8015620000d6575083518851145b620001335760405162461bcd60e51b8152602060048201526024808201527f416c6c20617272617973206d7573742068617665207468652073616d65206c656044820152630dccee8d60e31b606482015260840160405180910390fd5b60005b88518110156200028857600c6040518060c001604052808b8481518110620001625762000162620006a6565b602002602001015181526020018a8481518110620001845762000184620006a6565b60200260200101518152602001898481518110620001a657620001a6620006a6565b60200260200101518152602001888481518110620001c857620001c8620006a6565b6020026020010151815260200160008152602001878481518110620001f157620001f1620006a6565b6020908102919091018101519091528254600181018455600093845292819020825180519394600602909101926200022d9284920190620002d2565b506020828101518051620002489260018501920190620002d2565b5060408201516002820155606082015160038201556080820151600482015560a090910151600590910155806200027f81620006bc565b91505062000136565b50601080546001600160a01b039485166001600160a01b03199182161790915560128054928516928216929092179091556011805492909316911617905550620007209350505050565b828054620002e090620006e4565b90600052602060002090601f0160209004810192826200030457600085556200034f565b82601f106200031f57805160ff19168380011785556200034f565b828001600101855582156200034f579182015b828111156200034f57825182559160200191906001019062000332565b506200035d92915062000361565b5090565b5b808211156200035d576000815560010162000362565b634e487b7160e01b600052604160045260246000fd5b604051601f8201601f191681016001600160401b0381118282101715620003b957620003b962000378565b604052919050565b60006001600160401b03821115620003dd57620003dd62000378565b5060051b60200190565b6000601f8381840112620003fa57600080fd5b82516020620004136200040d83620003c1565b6200038e565b82815260059290921b850181019181810190878411156200043357600080fd5b8287015b84811015620004f75780516001600160401b0380821115620004595760008081fd5b818a0191508a603f8301126200046f5760008081fd5b858201518181111562000486576200048662000378565b62000499818a01601f191688016200038e565b915080825260408c81838601011115620004b35760008081fd5b60005b82811015620004d3578481018201518482018a01528801620004b6565b82811115620004e55760008984860101525b50505084525091830191830162000437565b50979650505050505050565b600082601f8301126200051557600080fd5b81516020620005286200040d83620003c1565b82815260059290921b840181019181810190868411156200054857600080fd5b8286015b848110156200056557805183529183019183016200054c565b509695505050505050565b80516001600160a01b03811681146200058857600080fd5b919050565b600080600080600080600080610100898b031215620005ab57600080fd5b88516001600160401b0380821115620005c357600080fd5b620005d18c838d01620003e7565b995060208b0151915080821115620005e857600080fd5b620005f68c838d01620003e7565b985060408b01519150808211156200060d57600080fd5b6200061b8c838d0162000503565b975060608b01519150808211156200063257600080fd5b620006408c838d0162000503565b965060808b01519150808211156200065757600080fd5b50620006668b828c0162000503565b9450506200067760a08a0162000570565b92506200068760c08a0162000570565b91506200069760e08a0162000570565b90509295985092959890939650565b634e487b7160e01b600052603260045260246000fd5b600060018201620006dd57634e487b7160e01b600052601160045260246000fd5b5060010190565b600181811c90821680620006f957607f821691505b6020821081036200071a57634e487b7160e01b600052602260045260246000fd5b50919050565b612eec80620007306000396000f3fe6080604052600436106101fd5760003560e01c8063546b7e0a1161010d57806395d89b41116100a0578063b88d4fde1161006f578063b88d4fde146106b9578063c6cdbe5e146106d9578063c87b56dd1461070b578063e985e9c51461072b578063ecbe483f1461077457600080fd5b806395d89b4114610644578063a22cb46514610659578063a570f17714610679578063b75896641461069957600080fd5b806370a08231116100dc57806370a08231146105b7578063741faee6146105d757806380420b311461060457806386ad310f1461062457600080fd5b8063546b7e0a1461053f5780635c975abb1461056c5780636352211e146105845780636e4205d2146105a457600080fd5b80632f745c59116101905780633e413bee1161015f5780633e413bee1461049f57806342842e0e146104bf57806343bc1612146104df5780634f6ccce7146104ff578063515ec1051461051f57600080fd5b80632f745c591461044d578063349fdb091461046d57806337a66d85146104825780633ccfd60b1461049757600080fd5b806318160ddd116101cc57806318160ddd146103e657806323b872dd14610405578063255f87691461042557806326c02d231461043857600080fd5b806301ffc9a71461033557806306fdde031461036a578063081812fc1461038c578063095ea7b3146103c457600080fd5b36610330576012546013546000916001600160a01b0316906103e89061022390346126eb565b61022d9190612720565b604051600081818185875af1925050503d8060008114610269576040519150601f19603f3d011682016040523d82523d6000602084013e61026e565b606091505b505090508061027c57600080fd5b6011546014546000916001600160a01b0316906103e89061029d90346126eb565b6102a79190612720565b604051600081818185875af1925050503d80600081146102e3576040519150601f19603f3d011682016040523d82523d6000602084013e6102e8565b606091505b50509050806102f657600080fd5b604080513381523460208201527f7c6ffa8afa793623698938cd722cf1ed49a5fe661a60f5723fe00cc6f55baeb2910160405180910390a1005b600080fd5b34801561034157600080fd5b5061035561035036600461274a565b610794565b60405190151581526020015b60405180910390f35b34801561037657600080fd5b5061037f6107bf565b60405161036191906127c6565b34801561039857600080fd5b506103ac6103a73660046127d9565b610851565b6040516001600160a01b039091168152602001610361565b3480156103d057600080fd5b506103e46103df36600461280e565b610878565b005b3480156103f257600080fd5b506008545b604051908152602001610361565b34801561041157600080fd5b506103e4610420366004612838565b610992565b6103e4610433366004612874565b6109c3565b34801561044457600080fd5b506103e4610b3a565b34801561045957600080fd5b506103f761046836600461280e565b610d64565b34801561047957600080fd5b506103e4610dfa565b34801561048e57600080fd5b506103e4610e2e565b6103e4610e60565b3480156104ab57600080fd5b506010546103ac906001600160a01b031681565b3480156104cb57600080fd5b506103e46104da366004612838565b610ee2565b3480156104eb57600080fd5b506011546103ac906001600160a01b031681565b34801561050b57600080fd5b506103f761051a3660046127d9565b610efd565b34801561052b57600080fd5b506103f761053a3660046127d9565b610f90565b34801561054b57600080fd5b506103f761055a3660046127d9565b600e6020526000908152604090205481565b34801561057857600080fd5b50600a5460ff16610355565b34801561059057600080fd5b506103ac61059f3660046127d9565b610fcc565b6103e46105b23660046128a7565b61102c565b3480156105c357600080fd5b506103f76105d23660046128dc565b61117c565b3480156105e357600080fd5b506103f76105f23660046127d9565b600f6020526000908152604090205481565b34801561061057600080fd5b506103e461061f3660046127d9565b611202565b34801561063057600080fd5b506103e461063f3660046127d9565b6112cd565b34801561065057600080fd5b5061037f61151b565b34801561066557600080fd5b506103e4610674366004612905565b61152a565b34801561068557600080fd5b506103f76106943660046127d9565b611535565b3480156106a557600080fd5b506103e46106b436600461293c565b611563565b3480156106c557600080fd5b506103e46106d43660046129ee565b61176e565b3480156106e557600080fd5b506106f96106f43660046127d9565b6117a6565b60405161036196959493929190612a6a565b34801561071757600080fd5b5061037f6107263660046127d9565b611902565b34801561073757600080fd5b50610355610746366004612ab5565b6001600160a01b03918216600090815260056020908152604080832093909416825291909152205460ff1690565b34801561078057600080fd5b506103e461078f366004612b08565b6119ce565b60006001600160e01b0319821663780e9d6360e01b14806107b957506107b982611abc565b92915050565b6060600080546107ce90612b87565b80601f01602080910402602001604051908101604052809291908181526020018280546107fa90612b87565b80156108475780601f1061081c57610100808354040283529160200191610847565b820191906000526020600020905b81548152906001019060200180831161082a57829003601f168201915b5050505050905090565b600061085c82611b0c565b506000908152600460205260409020546001600160a01b031690565b600061088382610fcc565b9050806001600160a01b0316836001600160a01b0316036108f55760405162461bcd60e51b815260206004820152602160248201527f4552433732313a20617070726f76616c20746f2063757272656e74206f776e656044820152603960f91b60648201526084015b60405180910390fd5b336001600160a01b038216148061091157506109118133610746565b6109835760405162461bcd60e51b815260206004820152603e60248201527f4552433732313a20617070726f76652063616c6c6572206973206e6f7420746f60448201527f6b656e206f776e6572206e6f7220617070726f76656420666f7220616c6c000060648201526084016108ec565b61098d8383611b6b565b505050565b61099c3382611bd9565b6109b85760405162461bcd60e51b81526004016108ec90612bc1565b61098d838383611c57565b600c548210610a075760405162461bcd60e51b815260206004820152601060248201526f496e76616c69642063617465676f727960801b60448201526064016108ec565b600c8281548110610a1a57610a1a612c0f565b906000526020600020906006020160040154600c8381548110610a3f57610a3f612c0f565b906000526020600020906006020160030154610a5b9190612c25565b811115610a9f5760405162461bcd60e51b81526020600482015260126024820152714e6f7420656e6f7567687420737570706c7960701b60448201526064016108ec565b60005b81811015610afb57610abc84610ab7600b5490565b611dfe565b82600d6000610aca600b5490565b8152602081019190915260400160002055610ae9600b80546001019055565b80610af381612c3c565b915050610aa2565b5080600c8381548110610b1057610b10612c0f565b90600052602060002090600602016004016000828254610b309190612c55565b9091555050505050565b6000610b453361117c565b11610b925760405162461bcd60e51b815260206004820152601a60248201527f796f7520646f206e6f7420706f736573732074686973206e667400000000000060448201526064016108ec565b6000805b610b9f3361117c565b811015610c68576000610bb23383610d64565b6000818152600d6020908152604080832054808452600e835281842054858552600f9093529220549293509091108015610bf957506000818152600e602052604090205415155b15610c53576000828152600f6020908152604080832054848452600e909252822054610c259190612c25565b9050610c318186612c55565b6000838152600e6020908152604080832054878452600f909252909120559450505b50508080610c6090612c3c565b915050610b96565b5060008111610cc55760405162461bcd60e51b8152602060048201526024808201527f796f7520616c726561647920636c61696d656420616c6c20796f7572207265776044820152636172647360e01b60648201526084016108ec565b6010546040516323b872dd60e01b8152306004820152336024820152604481018390526000916001600160a01b0316906323b872dd906064016020604051808303816000875af1158015610d1d573d6000803e3d6000fd5b505050506040513d601f19601f82011682018060405250810190610d419190612c6d565b905080610d605760405162461bcd60e51b81526004016108ec90612c8a565b5050565b6000610d6f8361117c565b8210610dd15760405162461bcd60e51b815260206004820152602b60248201527f455243373231456e756d657261626c653a206f776e657220696e646578206f7560448201526a74206f6620626f756e647360a81b60648201526084016108ec565b506001600160a01b03919091166000908152600660209081526040808320938352929052205490565b6011546001600160a01b03163314610e245760405162461bcd60e51b81526004016108ec90612cd5565b610e2c611e18565b565b6011546001600160a01b03163314610e585760405162461bcd60e51b81526004016108ec90612cd5565b610e2c611e6a565b6011546001600160a01b03163314610e8a5760405162461bcd60e51b81526004016108ec90612cd5565b604051600090339047908381818185875af1925050503d8060008114610ecc576040519150601f19603f3d011682016040523d82523d6000602084013e610ed1565b606091505b5050905080610edf57600080fd5b50565b61098d8383836040518060200160405280600081525061176e565b6000610f0860085490565b8210610f6b5760405162461bcd60e51b815260206004820152602c60248201527f455243373231456e756d657261626c653a20676c6f62616c20696e646578206f60448201526b7574206f6620626f756e647360a01b60648201526084016108ec565b60088281548110610f7e57610f7e612c0f565b90600052602060002001549050919050565b6000818152600d6020908152604080832054600f835281842054818552600e9093529083205490918391610fc49190612c25565b949350505050565b6000818152600260205260408120546001600160a01b0316806107b95760405162461bcd60e51b8152602060048201526018602482015277115490cdcc8c4e881a5b9d985b1a59081d1bdad95b88125160421b60448201526064016108ec565b611034611ea7565b600c5482106110785760405162461bcd60e51b815260206004820152601060248201526f496e76616c69642063617465676f727960801b60448201526064016108ec565b600c828154811061108b5761108b612c0f565b906000526020600020906006020160040154600c83815481106110b0576110b0612c0f565b9060005260206000209060060201600301546110cc9190612c25565b8311156111105760405162461bcd60e51b81526020600482015260126024820152714e6f7420656e6f7567687420737570706c7960701b60448201526064016108ec565b60005b838110156111675761112882610ab7600b5490565b82600d6000611136600b5490565b8152602081019190915260400160002055611155600b80546001019055565b8061115f81612c3c565b915050611113565b5082600c8381548110610b1057610b10612c0f565b60006001600160a01b0382166111e65760405162461bcd60e51b815260206004820152602960248201527f4552433732313a2061646472657373207a65726f206973206e6f7420612076616044820152683634b21037bbb732b960b91b60648201526084016108ec565b506001600160a01b031660009081526003602052604090205490565b6011546001600160a01b0316331461122c5760405162461bcd60e51b81526004016108ec90612cd5565b600c5481106112715760405162461bcd60e51b8152602060048201526011602482015270092dcc8caf040d2e640e8dede40d0d2ced607b1b60448201526064016108ec565b600c818154811061128457611284612c0f565b6000918252602082206006909102019061129e8282612602565b6112ac600183016000612602565b50600060028201819055600382018190556004820181905560059091015550565b60085481106113155760405162461bcd60e51b81526020600482015260146024820152731d1a1a5cc81a5908191bc81b9bdd08195e1a5cdd60621b60448201526064016108ec565b6000818152600d60205260409020543361132e83610fcc565b6001600160a01b03161461137c5760405162461bcd60e51b81526020600482015260156024820152741b9bdd081bdddb995c881bd9881d1a1a5cc8139195605a1b60448201526064016108ec565b6000818152600e60205260409020546113c85760405162461bcd60e51b815260206004820152600e60248201526d139bc814995dd85c991cc816595d60921b60448201526064016108ec565b6000818152600e6020908152604080832054858452600f90925290912054106114335760405162461bcd60e51b815260206004820152601f60248201527f596f7520616c726561647920636c61696d656420796f7572207265776172640060448201526064016108ec565b6000828152600f6020908152604080832054848452600e90925282205461145a9190612c25565b6010546040516323b872dd60e01b8152306004820152336024820152604481018390529192506000916001600160a01b03909116906323b872dd906064016020604051808303816000875af11580156114b7573d6000803e3d6000fd5b505050506040513d601f19601f820116820180604052508101906114db9190612c6d565b9050806114fa5760405162461bcd60e51b81526004016108ec90612c8a565b50506000908152600e6020908152604080832054938352600f909152902055565b6060600180546107ce90612b87565b610d60338383611eed565b6000600c828154811061154a5761154a612c0f565b9060005260206000209060060201600201549050919050565b6011546001600160a01b0316331461158d5760405162461bcd60e51b81526004016108ec90612cd5565b60008163ffffffff16116115d75760405162461bcd60e51b81526020600482015260116024820152700616d6f756e742063616e2774206265203607c1b60448201526064016108ec565b6010546040516323b872dd60e01b815233600482015230602482015263ffffffff831660448201526000916001600160a01b0316906323b872dd906064016020604051808303816000875af1158015611634573d6000803e3d6000fd5b505050506040513d601f19601f820116820180604052508101906116589190612c6d565b9050806116775760405162461bcd60e51b81526004016108ec90612c8a565b60005b600c5481101561172b576064600c828154811061169957611699612c0f565b906000526020600020906006020160030154600c83815481106116be576116be612c0f565b9060005260206000209060060201600501548563ffffffff166116e191906126eb565b6116eb9190612720565b6116f59190612720565b6000828152600e602052604081208054909190611713908490612c55565b9091555081905061172381612c3c565b91505061167a565b506040805133815263ffffffff841660208201527f332c3fd68e199528deb4a5631f1c91795464d13656d118e824c5da4f75ea83e5910160405180910390a15050565b6117783383611bd9565b6117945760405162461bcd60e51b81526004016108ec90612bc1565b6117a084848484611fbb565b50505050565b600c81815481106117b657600080fd5b90600052602060002090600602016000915090508060000180546117d990612b87565b80601f016020809104026020016040519081016040528092919081815260200182805461180590612b87565b80156118525780601f1061182757610100808354040283529160200191611852565b820191906000526020600020905b81548152906001019060200180831161183557829003601f168201915b50505050509080600101805461186790612b87565b80601f016020809104026020016040519081016040528092919081815260200182805461189390612b87565b80156118e05780601f106118b5576101008083540402835291602001916118e0565b820191906000526020600020905b8154815290600101906020018083116118c357829003601f168201915b5050505050908060020154908060030154908060040154908060050154905086565b6000818152600260205260409020546060906001600160a01b03166119695760405162461bcd60e51b815260206004820152601f60248201527f55524920717565727920666f72206e6f6e6578697374656e7420746f6b656e0060448201526064016108ec565b6000828152600d6020526040902054600c80548290811061198c5761198c612c0f565b90600052602060002090600602016001016119a684611fee565b6040516020016119b7929190612d26565b604051602081830303815290604052915050919050565b6011546001600160a01b031633146119f85760405162461bcd60e51b81526004016108ec90612cd5565b6040805160c08101825286815260208082018790529181018590526060810184905260006080820181905260a08201849052600c8054600181018255915281518051929360069092027fdf6966c971051c3d54ec59162606531493a51404a002842f56009d7e5cf4a8c70192611a71928492019061263c565b506020828101518051611a8a926001850192019061263c565b5060408201518160020155606082015181600301556080820151816004015560a0820151816005015550505050505050565b60006001600160e01b031982166380ac58cd60e01b1480611aed57506001600160e01b03198216635b5e139f60e01b145b806107b957506301ffc9a760e01b6001600160e01b03198316146107b9565b6000818152600260205260409020546001600160a01b0316610edf5760405162461bcd60e51b8152602060048201526018602482015277115490cdcc8c4e881a5b9d985b1a59081d1bdad95b88125160421b60448201526064016108ec565b600081815260046020526040902080546001600160a01b0319166001600160a01b0384169081179091558190611ba082610fcc565b6001600160a01b03167f8c5be1e5ebec7d5bd14f71427d1e84f3dd0314c0f7b2291e5b200ac8c7c3b92560405160405180910390a45050565b600080611be583610fcc565b9050806001600160a01b0316846001600160a01b03161480611c2c57506001600160a01b0380821660009081526005602090815260408083209388168352929052205460ff165b80610fc45750836001600160a01b0316611c4584610851565b6001600160a01b031614949350505050565b826001600160a01b0316611c6a82610fcc565b6001600160a01b031614611cce5760405162461bcd60e51b815260206004820152602560248201527f4552433732313a207472616e736665722066726f6d20696e636f72726563742060448201526437bbb732b960d91b60648201526084016108ec565b6001600160a01b038216611d305760405162461bcd60e51b8152602060048201526024808201527f4552433732313a207472616e7366657220746f20746865207a65726f206164646044820152637265737360e01b60648201526084016108ec565b611d3b8383836120ef565b611d46600082611b6b565b6001600160a01b0383166000908152600360205260408120805460019290611d6f908490612c25565b90915550506001600160a01b0382166000908152600360205260408120805460019290611d9d908490612c55565b909155505060008181526002602052604080822080546001600160a01b0319166001600160a01b0386811691821790925591518493918716917fddf252ad1be2c89b69c2b068fc378daa952ba7f163c4a11628f55a4df523b3ef91a4505050565b610d608282604051806020016040528060008152506121a7565b611e206121da565b600a805460ff191690557f5db9ee0a495bf2e6ff9c91a7834c1ba4fdd244a5e8aa4e537bd38aeae4b073aa335b6040516001600160a01b03909116815260200160405180910390a1565b611e72611ea7565b600a805460ff191660011790557f62e78cea01bee320cd4e420270b5ea74000d11b0c9f74754ebdbfc544b05a258611e4d3390565b600a5460ff1615610e2c5760405162461bcd60e51b815260206004820152601060248201526f14185d5cd8589b194e881c185d5cd95960821b60448201526064016108ec565b816001600160a01b0316836001600160a01b031603611f4e5760405162461bcd60e51b815260206004820152601960248201527f4552433732313a20617070726f766520746f2063616c6c65720000000000000060448201526064016108ec565b6001600160a01b03838116600081815260056020908152604080832094871680845294825291829020805460ff191686151590811790915591519182527f17307eab39ab6107e8899845ad3d59bd9653f200f220920489ca2b5937696c31910160405180910390a3505050565b611fc6848484611c57565b611fd284848484612223565b6117a05760405162461bcd60e51b81526004016108ec90612de0565b6060816000036120155750506040805180820190915260018152600360fc1b602082015290565b8160005b811561203f578061202981612c3c565b91506120389050600a83612720565b9150612019565b60008167ffffffffffffffff81111561205a5761205a612962565b6040519080825280601f01601f191660200182016040528015612084576020820181803683370190505b5090505b8415610fc457612099600183612c25565b91506120a6600a86612e32565b6120b1906030612c55565b60f81b8183815181106120c6576120c6612c0f565b60200101906001600160f81b031916908160001a9053506120e8600a86612720565b9450612088565b6001600160a01b03831661214a5761214581600880546000838152600960205260408120829055600182018355919091527ff3f7a9fe364faab93b216da50a3214154f22a0a2b415b23a84c8169e8b636ee30155565b61216d565b816001600160a01b0316836001600160a01b03161461216d5761216d8382612324565b6001600160a01b0382166121845761098d816123c1565b826001600160a01b0316826001600160a01b03161461098d5761098d8282612470565b6121b183836124b4565b6121be6000848484612223565b61098d5760405162461bcd60e51b81526004016108ec90612de0565b600a5460ff16610e2c5760405162461bcd60e51b815260206004820152601460248201527314185d5cd8589b194e881b9bdd081c185d5cd95960621b60448201526064016108ec565b60006001600160a01b0384163b1561231957604051630a85bd0160e11b81526001600160a01b0385169063150b7a0290612267903390899088908890600401612e46565b6020604051808303816000875af19250505080156122a2575060408051601f3d908101601f1916820190925261229f91810190612e83565b60015b6122ff573d8080156122d0576040519150601f19603f3d011682016040523d82523d6000602084013e6122d5565b606091505b5080516000036122f75760405162461bcd60e51b81526004016108ec90612de0565b805181602001fd5b6001600160e01b031916630a85bd0160e11b149050610fc4565b506001949350505050565b600060016123318461117c565b61233b9190612c25565b60008381526007602052604090205490915080821461238e576001600160a01b03841660009081526006602090815260408083208584528252808320548484528184208190558352600790915290208190555b5060009182526007602090815260408084208490556001600160a01b039094168352600681528383209183525290812055565b6008546000906123d390600190612c25565b600083815260096020526040812054600880549394509092849081106123fb576123fb612c0f565b90600052602060002001549050806008838154811061241c5761241c612c0f565b600091825260208083209091019290925582815260099091526040808220849055858252812055600880548061245457612454612ea0565b6001900381819060005260206000200160009055905550505050565b600061247b8361117c565b6001600160a01b039093166000908152600660209081526040808320868452825280832085905593825260079052919091209190915550565b6001600160a01b03821661250a5760405162461bcd60e51b815260206004820181905260248201527f4552433732313a206d696e7420746f20746865207a65726f206164647265737360448201526064016108ec565b6000818152600260205260409020546001600160a01b03161561256f5760405162461bcd60e51b815260206004820152601c60248201527f4552433732313a20746f6b656e20616c7265616479206d696e7465640000000060448201526064016108ec565b61257b600083836120ef565b6001600160a01b03821660009081526003602052604081208054600192906125a4908490612c55565b909155505060008181526002602052604080822080546001600160a01b0319166001600160a01b03861690811790915590518392907fddf252ad1be2c89b69c2b068fc378daa952ba7f163c4a11628f55a4df523b3ef908290a45050565b50805461260e90612b87565b6000825580601f1061261e575050565b601f016020900490600052602060002090810190610edf91906126c0565b82805461264890612b87565b90600052602060002090601f01602090048101928261266a57600085556126b0565b82601f1061268357805160ff19168380011785556126b0565b828001600101855582156126b0579182015b828111156126b0578251825591602001919060010190612695565b506126bc9291506126c0565b5090565b5b808211156126bc57600081556001016126c1565b634e487b7160e01b600052601160045260246000fd5b6000816000190483118215151615612705576127056126d5565b500290565b634e487b7160e01b600052601260045260246000fd5b60008261272f5761272f61270a565b500490565b6001600160e01b031981168114610edf57600080fd5b60006020828403121561275c57600080fd5b813561276781612734565b9392505050565b60005b83811015612789578181015183820152602001612771565b838111156117a05750506000910152565b600081518084526127b281602086016020860161276e565b601f01601f19169290920160200192915050565b602081526000612767602083018461279a565b6000602082840312156127eb57600080fd5b5035919050565b80356001600160a01b038116811461280957600080fd5b919050565b6000806040838503121561282157600080fd5b61282a836127f2565b946020939093013593505050565b60008060006060848603121561284d57600080fd5b612856846127f2565b9250612864602085016127f2565b9150604084013590509250925092565b60008060006060848603121561288957600080fd5b612892846127f2565b95602085013595506040909401359392505050565b6000806000606084860312156128bc57600080fd5b83359250602084013591506128d3604085016127f2565b90509250925092565b6000602082840312156128ee57600080fd5b612767826127f2565b8015158114610edf57600080fd5b6000806040838503121561291857600080fd5b612921836127f2565b91506020830135612931816128f7565b809150509250929050565b60006020828403121561294e57600080fd5b813563ffffffff8116811461276757600080fd5b634e487b7160e01b600052604160045260246000fd5b600067ffffffffffffffff8084111561299357612993612962565b604051601f8501601f19908116603f011681019082821181831017156129bb576129bb612962565b816040528093508581528686860111156129d457600080fd5b858560208301376000602087830101525050509392505050565b60008060008060808587031215612a0457600080fd5b612a0d856127f2565b9350612a1b602086016127f2565b925060408501359150606085013567ffffffffffffffff811115612a3e57600080fd5b8501601f81018713612a4f57600080fd5b612a5e87823560208401612978565b91505092959194509250565b60c081526000612a7d60c083018961279a565b8281036020840152612a8f818961279a565b9150508560408301528460608301528360808301528260a0830152979650505050505050565b60008060408385031215612ac857600080fd5b612ad1836127f2565b9150612adf602084016127f2565b90509250929050565b600082601f830112612af957600080fd5b61276783833560208501612978565b600080600080600060a08688031215612b2057600080fd5b853567ffffffffffffffff80821115612b3857600080fd5b612b4489838a01612ae8565b96506020880135915080821115612b5a57600080fd5b50612b6788828901612ae8565b959895975050505060408401359360608101359360809091013592509050565b600181811c90821680612b9b57607f821691505b602082108103612bbb57634e487b7160e01b600052602260045260246000fd5b50919050565b6020808252602e908201527f4552433732313a2063616c6c6572206973206e6f7420746f6b656e206f776e6560408201526d1c881b9bdc88185c1c1c9bdd995960921b606082015260800190565b634e487b7160e01b600052603260045260246000fd5b600082821015612c3757612c376126d5565b500390565b600060018201612c4e57612c4e6126d5565b5060010190565b60008219821115612c6857612c686126d5565b500190565b600060208284031215612c7f57600080fd5b8151612767816128f7565b6020808252602b908201527f436f756c64206e6f74207472616e7366657220746f6b656e2e204d697373696e60408201526a6720617070726f76616c3f60a81b606082015260800190565b6020808252818101527f4f776e61626c653a2063616c6c6572206973206e6f7420746865206f776e6572604082015260600190565b60008151612d1c81856020860161276e565b9290920192915050565b600080845481600182811c915080831680612d4257607f831692505b60208084108203612d6157634e487b7160e01b86526022600452602486fd5b818015612d755760018114612d8657612db3565b60ff19861689528489019650612db3565b60008b81526020902060005b86811015612dab5781548b820152908501908301612d92565b505084890196505b505050505050612dd7612dc68286612d0a565b64173539b7b760d91b815260050190565b95945050505050565b60208082526032908201527f4552433732313a207472616e7366657220746f206e6f6e20455243373231526560408201527131b2b4bb32b91034b6b83632b6b2b73a32b960711b606082015260800190565b600082612e4157612e4161270a565b500690565b6001600160a01b0385811682528416602082015260408101839052608060608201819052600090612e799083018461279a565b9695505050505050565b600060208284031215612e9557600080fd5b815161276781612734565b634e487b7160e01b600052603160045260246000fdfea26469706673582212208d0bd5ded9f00e64856033694257af3bfcef203b7560165514895fb7123b6dca64736f6c634300080e0033",
  "linkReferences": {},
  "deployedLinkReferences": {}
}