{
  "_format": "hh-sol-artifact-1",
  "contractName": "ERC721Token",
  "sourceName": "contracts/nft.sol",
  "abi": [
    {
      "inputs": [
        {
          "internalType": "string[]",
          "name": "_categories",
          "type": "string[]"
        },
        {
          "internalType": "string[]",
          "name": "_baseUri",
          "type": "string[]"
        },
        {
          "internalType": "uint256[]",
          "name": "_price",
          "type": "uint256[]"
        },
        {
          "internalType": "uint256[]",
          "name": "_maxSupply",
          "type": "uint256[]"
        },
        {
          "internalType": "uint256[]",
          "name": "_percentages",
          "type": "uint256[]"
        },
        {
          "internalType": "address",
          "name": "_usdc",
          "type": "address"
        },
        {
          "internalType": "address",
          "name": "_artist",
          "type": "address"
        },
        {
          "internalType": "address",
          "name": "_investor",
          "type": "address"
        },
        {
          "internalType": "uint256",
          "name": "_percentageInvestor",
          "type": "uint256"
        },
        {
          "internalType": "uint256",
          "name": "_percentageArtist",
          "type": "uint256"
        },
        {
          "internalType": "uint256",
          "name": "_startDate",
          "type": "uint256"
        }
      ],
      "stateMutability": "nonpayable",
      "type": "constructor"
    },
    {
      "anonymous": false,
      "inputs": [
        {
          "indexed": true,
          "internalType": "address",
          "name": "owner",
          "type": "address"
        },
        {
          "indexed": true,
          "internalType": "address",
          "name": "approved",
          "type": "address"
        },
        {
          "indexed": true,
          "internalType": "uint256",
          "name": "tokenId",
          "type": "uint256"
        }
      ],
      "name": "Approval",
      "type": "event"
    },
    {
      "anonymous": false,
      "inputs": [
        {
          "indexed": true,
          "internalType": "address",
          "name": "owner",
          "type": "address"
        },
        {
          "indexed": true,
          "internalType": "address",
          "name": "operator",
          "type": "address"
        },
        {
          "indexed": false,
          "internalType": "bool",
          "name": "approved",
          "type": "bool"
        }
      ],
      "name": "ApprovalForAll",
      "type": "event"
    },
    {
      "anonymous": false,
      "inputs": [
        {
          "indexed": false,
          "internalType": "address",
          "name": "",
          "type": "address"
        },
        {
          "indexed": false,
          "internalType": "uint256",
          "name": "",
          "type": "uint256"
        }
      ],
      "name": "OpenseaReceived",
      "type": "event"
    },
    {
      "anonymous": false,
      "inputs": [
        {
          "indexed": false,
          "internalType": "address",
          "name": "account",
          "type": "address"
        }
      ],
      "name": "Paused",
      "type": "event"
    },
    {
      "anonymous": false,
      "inputs": [
        {
          "indexed": false,
          "internalType": "address",
          "name": "",
          "type": "address"
        },
        {
          "indexed": false,
          "internalType": "uint256",
          "name": "",
          "type": "uint256"
        }
      ],
      "name": "RoyaltiesReceived",
      "type": "event"
    },
    {
      "anonymous": false,
      "inputs": [
        {
          "indexed": true,
          "internalType": "address",
          "name": "from",
          "type": "address"
        },
        {
          "indexed": true,
          "internalType": "address",
          "name": "to",
          "type": "address"
        },
        {
          "indexed": true,
          "internalType": "uint256",
          "name": "tokenId",
          "type": "uint256"
        }
      ],
      "name": "Transfer",
      "type": "event"
    },
    {
      "anonymous": false,
      "inputs": [
        {
          "indexed": false,
          "internalType": "address",
          "name": "account",
          "type": "address"
        }
      ],
      "name": "Unpaused",
      "type": "event"
    },
    {
      "inputs": [
        {
          "internalType": "uint256",
          "name": "amount",
          "type": "uint256"
        }
      ],
      "name": "FundRoyalties",
      "outputs": [],
      "stateMutability": "nonpayable",
      "type": "function"
    },
    {
      "inputs": [
        {
          "internalType": "uint256",
          "name": "",
          "type": "uint256"
        }
      ],
      "name": "RoyaltiesClaimablePerCategory",
      "outputs": [
        {
          "internalType": "uint256",
          "name": "",
          "type": "uint256"
        }
      ],
      "stateMutability": "view",
      "type": "function"
    },
    {
      "inputs": [
        {
          "internalType": "uint256",
          "name": "",
          "type": "uint256"
        }
      ],
      "name": "RoyaltiesClaimedPerId",
      "outputs": [
        {
          "internalType": "uint256",
          "name": "",
          "type": "uint256"
        }
      ],
      "stateMutability": "view",
      "type": "function"
    },
    {
      "inputs": [
        {
          "internalType": "string",
          "name": "_categories",
          "type": "string"
        },
        {
          "internalType": "string",
          "name": "_baseUri",
          "type": "string"
        },
        {
          "internalType": "uint256",
          "name": "_price",
          "type": "uint256"
        },
        {
          "internalType": "uint256",
          "name": "_maxSupply",
          "type": "uint256"
        },
        {
          "internalType": "uint256",
          "name": "_percentages",
          "type": "uint256"
        }
      ],
      "name": "addCategory",
      "outputs": [],
      "stateMutability": "nonpayable",
      "type": "function"
    },
    {
      "inputs": [
        {
          "internalType": "address",
          "name": "to",
          "type": "address"
        },
        {
          "internalType": "uint256",
          "name": "tokenId",
          "type": "uint256"
        }
      ],
      "name": "approve",
      "outputs": [],
      "stateMutability": "nonpayable",
      "type": "function"
    },
    {
      "inputs": [],
      "name": "artist",
      "outputs": [
        {
          "internalType": "address",
          "name": "",
          "type": "address"
        }
      ],
      "stateMutability": "view",
      "type": "function"
    },
    {
      "inputs": [
        {
          "internalType": "address",
          "name": "owner",
          "type": "address"
        }
      ],
      "name": "balanceOf",
      "outputs": [
        {
          "internalType": "uint256",
          "name": "",
          "type": "uint256"
        }
      ],
      "stateMutability": "view",
      "type": "function"
    },
    {
      "inputs": [
        {
          "internalType": "uint256",
          "name": "",
          "type": "uint256"
        }
      ],
      "name": "categories",
      "outputs": [
        {
          "internalType": "string",
          "name": "name",
          "type": "string"
        },
        {
          "internalType": "string",
          "name": "baseUri",
          "type": "string"
        },
        {
          "internalType": "uint256",
          "name": "price",
          "type": "uint256"
        },
        {
          "internalType": "uint256",
          "name": "maxSupply",
          "type": "uint256"
        },
        {
          "internalType": "uint256",
          "name": "counterSupply",
          "type": "uint256"
        },
        {
          "internalType": "uint256",
          "name": "percentages",
          "type": "uint256"
        }
      ],
      "stateMutability": "view",
      "type": "function"
    },
    {
      "inputs": [],
      "name": "claimMultipleRoyalties",
      "outputs": [],
      "stateMutability": "nonpayable",
      "type": "function"
    },
    {
      "inputs": [
        {
          "internalType": "uint256",
          "name": "_tokenId",
          "type": "uint256"
        }
      ],
      "name": "claimRoyalties",
      "outputs": [],
      "stateMutability": "nonpayable",
      "type": "function"
    },
    {
      "inputs": [
        {
          "internalType": "address",
          "name": "_to",
          "type": "address"
        },
        {
          "internalType": "uint256",
          "name": "categoryId",
          "type": "uint256"
        },
        {
          "internalType": "uint256",
          "name": "_quantity",
          "type": "uint256"
        }
      ],
      "name": "crossMint",
      "outputs": [],
      "stateMutability": "payable",
      "type": "function"
    },
    {
      "inputs": [
        {
          "internalType": "address",
          "name": "erc20Token",
          "type": "address"
        }
      ],
      "name": "emergencyWithdraw",
      "outputs": [],
      "stateMutability": "nonpayable",
      "type": "function"
    },
    {
      "inputs": [
        {
          "internalType": "uint256",
          "name": "tokenId",
          "type": "uint256"
        }
      ],
      "name": "getApproved",
      "outputs": [
        {
          "internalType": "address",
          "name": "",
          "type": "address"
        }
      ],
      "stateMutability": "view",
      "type": "function"
    },
    {
      "inputs": [
        {
          "internalType": "uint256",
          "name": "categoryId",
          "type": "uint256"
        }
      ],
      "name": "getPriceByCategory",
      "outputs": [
        {
          "internalType": "uint256",
          "name": "",
          "type": "uint256"
        }
      ],
      "stateMutability": "view",
      "type": "function"
    },
    {
      "inputs": [
        {
          "internalType": "uint256",
          "name": "_tokenId",
          "type": "uint256"
        }
      ],
      "name": "getRewardsByTokenId",
      "outputs": [
        {
          "internalType": "uint256",
          "name": "",
          "type": "uint256"
        }
      ],
      "stateMutability": "view",
      "type": "function"
    },
    {
      "inputs": [
        {
          "internalType": "address",
          "name": "owner",
          "type": "address"
        },
        {
          "internalType": "address",
          "name": "operator",
          "type": "address"
        }
      ],
      "name": "isApprovedForAll",
      "outputs": [
        {
          "internalType": "bool",
          "name": "",
          "type": "bool"
        }
      ],
      "stateMutability": "view",
      "type": "function"
    },
    {
      "inputs": [
        {
          "internalType": "uint256",
          "name": "_quantity",
          "type": "uint256"
        },
        {
          "internalType": "uint256",
          "name": "categoryId",
          "type": "uint256"
        },
        {
          "internalType": "address",
          "name": "_to",
          "type": "address"
        }
      ],
      "name": "mintUSDC",
      "outputs": [],
      "stateMutability": "payable",
      "type": "function"
    },
    {
      "inputs": [],
      "name": "name",
      "outputs": [
        {
          "internalType": "string",
          "name": "",
          "type": "string"
        }
      ],
      "stateMutability": "view",
      "type": "function"
    },
    {
      "inputs": [
        {
          "internalType": "uint256",
          "name": "tokenId",
          "type": "uint256"
        }
      ],
      "name": "ownerOf",
      "outputs": [
        {
          "internalType": "address",
          "name": "",
          "type": "address"
        }
      ],
      "stateMutability": "view",
      "type": "function"
    },
    {
      "inputs": [],
      "name": "paused",
      "outputs": [
        {
          "internalType": "bool",
          "name": "",
          "type": "bool"
        }
      ],
      "stateMutability": "view",
      "type": "function"
    },
    {
      "inputs": [
        {
          "internalType": "uint256",
          "name": "categoryId",
          "type": "uint256"
        }
      ],
      "name": "removeCategory",
      "outputs": [],
      "stateMutability": "nonpayable",
      "type": "function"
    },
    {
      "inputs": [
        {
          "internalType": "address",
          "name": "from",
          "type": "address"
        },
        {
          "internalType": "address",
          "name": "to",
          "type": "address"
        },
        {
          "internalType": "uint256",
          "name": "tokenId",
          "type": "uint256"
        }
      ],
      "name": "safeTransferFrom",
      "outputs": [],
      "stateMutability": "nonpayable",
      "type": "function"
    },
    {
      "inputs": [
        {
          "internalType": "address",
          "name": "from",
          "type": "address"
        },
        {
          "internalType": "address",
          "name": "to",
          "type": "address"
        },
        {
          "internalType": "uint256",
          "name": "tokenId",
          "type": "uint256"
        },
        {
          "internalType": "bytes",
          "name": "data",
          "type": "bytes"
        }
      ],
      "name": "safeTransferFrom",
      "outputs": [],
      "stateMutability": "nonpayable",
      "type": "function"
    },
    {
      "inputs": [
        {
          "internalType": "address",
          "name": "operator",
          "type": "address"
        },
        {
          "internalType": "bool",
          "name": "approved",
          "type": "bool"
        }
      ],
      "name": "setApprovalForAll",
      "outputs": [],
      "stateMutability": "nonpayable",
      "type": "function"
    },
    {
      "inputs": [
        {
          "internalType": "uint256",
          "name": "_percentageArtist",
          "type": "uint256"
        }
      ],
      "name": "setArtistPercentage",
      "outputs": [],
      "stateMutability": "nonpayable",
      "type": "function"
    },
    {
      "inputs": [
        {
          "internalType": "uint256",
          "name": "_percentageInvestor",
          "type": "uint256"
        }
      ],
      "name": "setInvestorPercentage",
      "outputs": [],
      "stateMutability": "nonpayable",
      "type": "function"
    },
    {
      "inputs": [],
      "name": "setPaused",
      "outputs": [],
      "stateMutability": "nonpayable",
      "type": "function"
    },
    {
      "inputs": [
        {
          "internalType": "uint256",
          "name": "_startDate",
          "type": "uint256"
        }
      ],
      "name": "setStartDate",
      "outputs": [],
      "stateMutability": "nonpayable",
      "type": "function"
    },
    {
      "inputs": [],
      "name": "setUnPaused",
      "outputs": [],
      "stateMutability": "nonpayable",
      "type": "function"
    },
    {
      "inputs": [
        {
          "internalType": "bytes4",
          "name": "interfaceId",
          "type": "bytes4"
        }
      ],
      "name": "supportsInterface",
      "outputs": [
        {
          "internalType": "bool",
          "name": "",
          "type": "bool"
        }
      ],
      "stateMutability": "view",
      "type": "function"
    },
    {
      "inputs": [],
      "name": "symbol",
      "outputs": [
        {
          "internalType": "string",
          "name": "",
          "type": "string"
        }
      ],
      "stateMutability": "view",
      "type": "function"
    },
    {
      "inputs": [
        {
          "internalType": "uint256",
          "name": "index",
          "type": "uint256"
        }
      ],
      "name": "tokenByIndex",
      "outputs": [
        {
          "internalType": "uint256",
          "name": "",
          "type": "uint256"
        }
      ],
      "stateMutability": "view",
      "type": "function"
    },
    {
      "inputs": [
        {
          "internalType": "address",
          "name": "owner",
          "type": "address"
        },
        {
          "internalType": "uint256",
          "name": "index",
          "type": "uint256"
        }
      ],
      "name": "tokenOfOwnerByIndex",
      "outputs": [
        {
          "internalType": "uint256",
          "name": "",
          "type": "uint256"
        }
      ],
      "stateMutability": "view",
      "type": "function"
    },
    {
      "inputs": [
        {
          "internalType": "uint256",
          "name": "_tokenId",
          "type": "uint256"
        }
      ],
      "name": "tokenURI",
      "outputs": [
        {
          "internalType": "string",
          "name": "",
          "type": "string"
        }
      ],
      "stateMutability": "view",
      "type": "function"
    },
    {
      "inputs": [],
      "name": "totalSupply",
      "outputs": [
        {
          "internalType": "uint256",
          "name": "",
          "type": "uint256"
        }
      ],
      "stateMutability": "view",
      "type": "function"
    },
    {
      "inputs": [
        {
          "internalType": "address",
          "name": "from",
          "type": "address"
        },
        {
          "internalType": "address",
          "name": "to",
          "type": "address"
        },
        {
          "internalType": "uint256",
          "name": "tokenId",
          "type": "uint256"
        }
      ],
      "name": "transferFrom",
      "outputs": [],
      "stateMutability": "nonpayable",
      "type": "function"
    },
    {
      "inputs": [],
      "name": "usdc",
      "outputs": [
        {
          "internalType": "address",
          "name": "",
          "type": "address"
        }
      ],
      "stateMutability": "view",
      "type": "function"
    },
    {
      "inputs": [],
      "name": "withdraw",
      "outputs": [],
      "stateMutability": "payable",
      "type": "function"
    },
    {
      "stateMutability": "payable",
      "type": "receive"
    }
  ],
  "bytecode": "0x60806040523480156200001157600080fd5b5060405162003b7238038062003b7283398101604081905262000034916200080d565b60408051808201825260048152631d195cdd60e21b602080830191825283518085019094526002845261151560f21b9084015281519192916200007a9160009162000552565b5080516200009090600190602084019062000552565b5050600a805460ff191690555089518b51148015620000b0575088518b51145b8015620000be575087518b51145b8015620000cc575086518b51145b6200012a5760405162461bcd60e51b8152602060048201526024808201527f416c6c20617272617973206d7573742068617665207468652073616d65206c656044820152630dccee8d60e31b60648201526084015b60405180910390fd5b6200013682846200097a565b606414620001875760405162461bcd60e51b815260206004820152601660248201527f50657263656e74616765206d7573742062652031303000000000000000000000604482015260640162000121565b6001600160a01b038416620001f15760405162461bcd60e51b815260206004820152602960248201527f496e766573746f722061646472657373206d757374206265206469666665726560448201526806e742066726f6d20360bc1b606482015260840162000121565b6001600160a01b038516620002595760405162461bcd60e51b815260206004820152602760248201527f4172746973742061646472657373206d75737420626520646966666572656e7460448201526602066726f6d20360cc1b606482015260840162000121565b6001600160a01b038616620002bf5760405162461bcd60e51b815260206004820152602560248201527f555344432061646472657373206d75737420626520646966666572656e7420666044820152640726f6d20360dc1b606482015260840162000121565b620002ca87620004f2565b606414620003265760405162461bcd60e51b815260206004820152602260248201527f5468652073756d206f662070657263656e7461676573206d7573742062652031604482015261030360f41b606482015260840162000121565b60005b8b518110156200047b57600c6040518060c001604052808e848151811062000355576200035562000995565b602002602001015181526020018d848151811062000377576200037762000995565b602002602001015181526020018c848151811062000399576200039962000995565b602002602001015181526020018b8481518110620003bb57620003bb62000995565b60200260200101518152602001600081526020018a8481518110620003e457620003e462000995565b60209081029190910181015190915282546001810184556000938452928190208251805193946006029091019262000420928492019062000552565b5060208281015180516200043b926001850192019062000552565b5060408201516002820155606082015160038201556080820151600482015560a090910151600590910155806200047281620009ab565b91505062000329565b50601080546001600160a01b03199081166001600160a01b038981169190911790925560128054821687841617905560118054909116918716919091179055601383905560148290556015819055620004e1600b62000549602090811b62001e9617901c565b505050505050505050505062000a03565b600080805b8351811015620005425783818151811062000516576200051662000995565b6020026020010151826200052b91906200097a565b9150806200053981620009ab565b915050620004f7565b5092915050565b80546001019055565b8280546200056090620009c7565b90600052602060002090601f016020900481019282620005845760008555620005cf565b82601f106200059f57805160ff1916838001178555620005cf565b82800160010185558215620005cf579182015b82811115620005cf578251825591602001919060010190620005b2565b50620005dd929150620005e1565b5090565b5b80821115620005dd5760008155600101620005e2565b634e487b7160e01b600052604160045260246000fd5b604051601f8201601f191681016001600160401b0381118282101715620006395762000639620005f8565b604052919050565b60006001600160401b038211156200065d576200065d620005f8565b5060051b60200190565b6000601f83818401126200067a57600080fd5b82516020620006936200068d8362000641565b6200060e565b82815260059290921b85018101918181019087841115620006b357600080fd5b8287015b84811015620007775780516001600160401b0380821115620006d95760008081fd5b818a0191508a603f830112620006ef5760008081fd5b8582015181811115620007065762000706620005f8565b62000719818a01601f191688016200060e565b915080825260408c81838601011115620007335760008081fd5b60005b8281101562000753578481018201518482018a0152880162000736565b82811115620007655760008984860101525b505050845250918301918301620006b7565b50979650505050505050565b600082601f8301126200079557600080fd5b81516020620007a86200068d8362000641565b82815260059290921b84018101918181019086841115620007c857600080fd5b8286015b84811015620007e55780518352918301918301620007cc565b509695505050505050565b80516001600160a01b03811681146200080857600080fd5b919050565b60008060008060008060008060008060006101608c8e0312156200083057600080fd5b8b516001600160401b038111156200084757600080fd5b620008558e828f0162000667565b60208e0151909c5090506001600160401b038111156200087457600080fd5b620008828e828f0162000667565b60408e0151909b5090506001600160401b03811115620008a157600080fd5b620008af8e828f0162000783565b60608e0151909a5090506001600160401b03811115620008ce57600080fd5b620008dc8e828f0162000783565b60808e015190995090506001600160401b03811115620008fb57600080fd5b620009098e828f0162000783565b9750506200091a60a08d01620007f0565b95506200092a60c08d01620007f0565b94506200093a60e08d01620007f0565b93506101008c015192506101208c015191506101408c015190509295989b509295989b9093969950565b634e487b7160e01b600052601160045260246000fd5b6000821982111562000990576200099062000964565b500190565b634e487b7160e01b600052603260045260246000fd5b600060018201620009c057620009c062000964565b5060010190565b600181811c90821680620009dc57607f821691505b602082108103620009fd57634e487b7160e01b600052602260045260246000fd5b50919050565b61315f8062000a136000396000f3fe6080604052600436106102295760003560e01c80635c975abb1161012357806386ad310f116100ab578063c6cdbe5e1161006f578063c6cdbe5e14610763578063c87b56dd14610795578063e985e9c5146107b5578063eb28f2dd146107fe578063ecbe483f1461081e57600080fd5b806386ad310f146106ce57806395d89b41146106ee578063a22cb46514610703578063a570f17714610723578063b88d4fde1461074357600080fd5b806370a08231116100f257806370a0823114610621578063741faee6146106415780637f2c0bb81461066e57806380420b311461068e57806382d95df5146106ae57600080fd5b80635c975abb146105b65780636352211e146105ce5780636e4205d2146105ee5780636ff1c9bc1461060157600080fd5b80632f745c59116101b157806342842e0e1161017557806342842e0e1461050957806343bc1612146105295780634f6ccce714610549578063515ec10514610569578063546b7e0a1461058957600080fd5b80632f745c5914610497578063349fdb09146104b757806337a66d85146104cc5780633ccfd60b146104e15780633e413bee146104e957600080fd5b806318160ddd116101f857806318160ddd1461041057806323b872dd1461042f578063255f87691461044f57806326c02d23146104625780632c8e96ab1461047757600080fd5b806301ffc9a71461035f57806306fdde0314610394578063081812fc146103b6578063095ea7b3146103ee57600080fd5b3661035a576012546013546000916001600160a01b03169060649061024e90346129cd565b61025891906129ec565b604051600081818185875af1925050503d8060008114610294576040519150601f19603f3d011682016040523d82523d6000602084013e610299565b606091505b50509050806102a757600080fd5b6011546014546000916001600160a01b0316906064906102c790346129cd565b6102d191906129ec565b604051600081818185875af1925050503d806000811461030d576040519150601f19603f3d011682016040523d82523d6000602084013e610312565b606091505b505090508061032057600080fd5b604080513381523460208201527f7c6ffa8afa793623698938cd722cf1ed49a5fe661a60f5723fe00cc6f55baeb2910160405180910390a1005b600080fd5b34801561036b57600080fd5b5061037f61037a366004612a24565b61083e565b60405190151581526020015b60405180910390f35b3480156103a057600080fd5b506103a9610869565b60405161038b9190612a95565b3480156103c257600080fd5b506103d66103d1366004612aa8565b6108fb565b6040516001600160a01b03909116815260200161038b565b3480156103fa57600080fd5b5061040e610409366004612add565b610922565b005b34801561041c57600080fd5b506008545b60405190815260200161038b565b34801561043b57600080fd5b5061040e61044a366004612b07565b610a3c565b61040e61045d366004612b43565b610a6d565b34801561046e57600080fd5b5061040e610c35565b34801561048357600080fd5b5061040e610492366004612aa8565b610e59565b3480156104a357600080fd5b506104216104b2366004612add565b61104e565b3480156104c357600080fd5b5061040e6110e4565b3480156104d857600080fd5b5061040e611118565b61040e61114a565b3480156104f557600080fd5b506010546103d6906001600160a01b031681565b34801561051557600080fd5b5061040e610524366004612b07565b6111cc565b34801561053557600080fd5b506011546103d6906001600160a01b031681565b34801561055557600080fd5b50610421610564366004612aa8565b6111e7565b34801561057557600080fd5b50610421610584366004612aa8565b61127a565b34801561059557600080fd5b506104216105a4366004612aa8565b600e6020526000908152604090205481565b3480156105c257600080fd5b50600a5460ff1661037f565b3480156105da57600080fd5b506103d66105e9366004612aa8565b6112b6565b61040e6105fc366004612b76565b611316565b34801561060d57600080fd5b5061040e61061c366004612bab565b6114b7565b34801561062d57600080fd5b5061042161063c366004612bab565b6116e4565b34801561064d57600080fd5b5061042161065c366004612aa8565b600f6020526000908152604090205481565b34801561067a57600080fd5b5061040e610689366004612aa8565b61176a565b34801561069a57600080fd5b5061040e6106a9366004612aa8565b611799565b3480156106ba57600080fd5b5061040e6106c9366004612aa8565b611864565b3480156106da57600080fd5b5061040e6106e9366004612aa8565b611893565b3480156106fa57600080fd5b506103a9611adb565b34801561070f57600080fd5b5061040e61071e366004612bd4565b611aea565b34801561072f57600080fd5b5061042161073e366004612aa8565b611af5565b34801561074f57600080fd5b5061040e61075e366004612c97565b611b23565b34801561076f57600080fd5b5061078361077e366004612aa8565b611b5b565b60405161038b96959493929190612d13565b3480156107a157600080fd5b506103a96107b0366004612aa8565b611cb7565b3480156107c157600080fd5b5061037f6107d0366004612d5e565b6001600160a01b03918216600090815260056020908152604080832093909416825291909152205460ff1690565b34801561080a57600080fd5b5061040e610819366004612aa8565b611d79565b34801561082a57600080fd5b5061040e610839366004612db1565b611da8565b60006001600160e01b0319821663780e9d6360e01b1480610863575061086382611e9f565b92915050565b60606000805461087890612e30565b80601f01602080910402602001604051908101604052809291908181526020018280546108a490612e30565b80156108f15780601f106108c6576101008083540402835291602001916108f1565b820191906000526020600020905b8154815290600101906020018083116108d457829003601f168201915b5050505050905090565b600061090682611eef565b506000908152600460205260409020546001600160a01b031690565b600061092d826112b6565b9050806001600160a01b0316836001600160a01b03160361099f5760405162461bcd60e51b815260206004820152602160248201527f4552433732313a20617070726f76616c20746f2063757272656e74206f776e656044820152603960f91b60648201526084015b60405180910390fd5b336001600160a01b03821614806109bb57506109bb81336107d0565b610a2d5760405162461bcd60e51b815260206004820152603e60248201527f4552433732313a20617070726f76652063616c6c6572206973206e6f7420746f60448201527f6b656e206f776e6572206e6f7220617070726f76656420666f7220616c6c00006064820152608401610996565b610a378383611f4e565b505050565b610a463382611fbc565b610a625760405162461bcd60e51b815260040161099690612e6a565b610a3783838361203a565b600c548210610ab15760405162461bcd60e51b815260206004820152601060248201526f496e76616c69642063617465676f727960801b6044820152606401610996565b4260155410610b025760405162461bcd60e51b815260206004820152601c60248201527f5468652073616c6520686173206e6f74207374617274656420796574000000006044820152606401610996565b600c8281548110610b1557610b15612eb8565b906000526020600020906006020160040154600c8381548110610b3a57610b3a612eb8565b906000526020600020906006020160030154610b569190612ece565b811115610b9a5760405162461bcd60e51b81526020600482015260126024820152714e6f7420656e6f7567687420737570706c7960701b6044820152606401610996565b60005b81811015610bf657610bb784610bb2600b5490565b6121e1565b82600d6000610bc5600b5490565b8152602081019190915260400160002055610be4600b80546001019055565b80610bee81612ee5565b915050610b9d565b5080600c8381548110610c0b57610c0b612eb8565b90600052602060002090600602016004016000828254610c2b9190612efe565b9091555050505050565b6000610c40336116e4565b11610c8d5760405162461bcd60e51b815260206004820152601a60248201527f796f7520646f206e6f7420706f736573732074686973206e66740000000000006044820152606401610996565b6000805b610c9a336116e4565b811015610d63576000610cad338361104e565b6000818152600d6020908152604080832054808452600e835281842054858552600f9093529220549293509091108015610cf457506000818152600e602052604090205415155b15610d4e576000828152600f6020908152604080832054848452600e909252822054610d209190612ece565b9050610d2c8186612efe565b6000838152600e6020908152604080832054878452600f909252909120559450505b50508080610d5b90612ee5565b915050610c91565b5060008111610dc05760405162461bcd60e51b8152602060048201526024808201527f796f7520616c726561647920636c61696d656420616c6c20796f7572207265776044820152636172647360e01b6064820152608401610996565b60105460405163a9059cbb60e01b8152336004820152602481018390526000916001600160a01b03169063a9059cbb906044016020604051808303816000875af1158015610e12573d6000803e3d6000fd5b505050506040513d601f19601f82011682018060405250810190610e369190612f16565b905080610e555760405162461bcd60e51b815260040161099690612f33565b5050565b6012546001600160a01b03163314610e835760405162461bcd60e51b815260040161099690612f7e565b60008111610ec75760405162461bcd60e51b81526020600482015260116024820152700616d6f756e742063616e2774206265203607c1b6044820152606401610996565b6010546040516323b872dd60e01b8152336004820152306024820152604481018390526000916001600160a01b0316906323b872dd906064016020604051808303816000875af1158015610f1f573d6000803e3d6000fd5b505050506040513d601f19601f82011682018060405250810190610f439190612f16565b905080610f625760405162461bcd60e51b815260040161099690612f33565b60005b600c54811015611010576064600c8281548110610f8457610f84612eb8565b906000526020600020906006020160030154600c8381548110610fa957610fa9612eb8565b90600052602060002090600602016005015485610fc691906129cd565b610fd091906129ec565b610fda91906129ec565b6000828152600e602052604081208054909190610ff8908490612efe565b9091555081905061100881612ee5565b915050610f65565b5060408051338152602081018490527f332c3fd68e199528deb4a5631f1c91795464d13656d118e824c5da4f75ea83e5910160405180910390a15050565b6000611059836116e4565b82106110bb5760405162461bcd60e51b815260206004820152602b60248201527f455243373231456e756d657261626c653a206f776e657220696e646578206f7560448201526a74206f6620626f756e647360a81b6064820152608401610996565b506001600160a01b03919091166000908152600660209081526040808320938352929052205490565b6012546001600160a01b0316331461110e5760405162461bcd60e51b815260040161099690612f7e565b6111166121fb565b565b6012546001600160a01b031633146111425760405162461bcd60e51b815260040161099690612f7e565b61111661224d565b6012546001600160a01b031633146111745760405162461bcd60e51b815260040161099690612f7e565b604051600090339047908381818185875af1925050503d80600081146111b6576040519150601f19603f3d011682016040523d82523d6000602084013e6111bb565b606091505b50509050806111c957600080fd5b50565b610a3783838360405180602001604052806000815250611b23565b60006111f260085490565b82106112555760405162461bcd60e51b815260206004820152602c60248201527f455243373231456e756d657261626c653a20676c6f62616c20696e646578206f60448201526b7574206f6620626f756e647360a01b6064820152608401610996565b6008828154811061126857611268612eb8565b90600052602060002001549050919050565b6000818152600d6020908152604080832054600f835281842054818552600e90935290832054909183916112ae9190612ece565b949350505050565b6000818152600260205260408120546001600160a01b0316806108635760405162461bcd60e51b8152602060048201526018602482015277115490cdcc8c4e881a5b9d985b1a59081d1bdad95b88125160421b6044820152606401610996565b61131e61228a565b600c5482106113625760405162461bcd60e51b815260206004820152601060248201526f496e76616c69642063617465676f727960801b6044820152606401610996565b42601554106113b35760405162461bcd60e51b815260206004820152601c60248201527f5468652073616c6520686173206e6f74207374617274656420796574000000006044820152606401610996565b600c82815481106113c6576113c6612eb8565b906000526020600020906006020160040154600c83815481106113eb576113eb612eb8565b9060005260206000209060060201600301546114079190612ece565b83111561144b5760405162461bcd60e51b81526020600482015260126024820152714e6f7420656e6f7567687420737570706c7960701b6044820152606401610996565b60005b838110156114a25761146382610bb2600b5490565b82600d6000611471600b5490565b8152602081019190915260400160002055611490600b80546001019055565b8061149a81612ee5565b91505061144e565b5082600c8381548110610c0b57610c0b612eb8565b6012546001600160a01b031633146114e15760405162461bcd60e51b815260040161099690612f7e565b6012546013546040516370a0823160e01b81523060048201526001600160a01b038481169363a9059cbb939116916064919085906370a0823190602401602060405180830381865afa15801561153b573d6000803e3d6000fd5b505050506040513d601f19601f8201168201806040525081019061155f9190612fb3565b61156991906129cd565b61157391906129ec565b6040516001600160e01b031960e085901b1681526001600160a01b03909216600483015260248201526044016020604051808303816000875af11580156115be573d6000803e3d6000fd5b505050506040513d601f19601f820116820180604052508101906115e29190612f16565b506011546014546040516370a0823160e01b81523060048201526001600160a01b038481169363a9059cbb939116916064919085906370a0823190602401602060405180830381865afa15801561163d573d6000803e3d6000fd5b505050506040513d601f19601f820116820180604052508101906116619190612fb3565b61166b91906129cd565b61167591906129ec565b6040516001600160e01b031960e085901b1681526001600160a01b03909216600483015260248201526044016020604051808303816000875af11580156116c0573d6000803e3d6000fd5b505050506040513d601f19601f82011682018060405250810190610e559190612f16565b60006001600160a01b03821661174e5760405162461bcd60e51b815260206004820152602960248201527f4552433732313a2061646472657373207a65726f206973206e6f7420612076616044820152683634b21037bbb732b960b91b6064820152608401610996565b506001600160a01b031660009081526003602052604090205490565b6012546001600160a01b031633146117945760405162461bcd60e51b815260040161099690612f7e565b601355565b6012546001600160a01b031633146117c35760405162461bcd60e51b815260040161099690612f7e565b600c5481106118085760405162461bcd60e51b8152602060048201526011602482015270092dcc8caf040d2e640e8dede40d0d2ced607b1b6044820152606401610996565b600c818154811061181b5761181b612eb8565b6000918252602082206006909102019061183582826128e4565b6118436001830160006128e4565b50600060028201819055600382018190556004820181905560059091015550565b6012546001600160a01b0316331461188e5760405162461bcd60e51b815260040161099690612f7e565b601555565b60085481106118db5760405162461bcd60e51b81526020600482015260146024820152731d1a1a5cc81a5908191bc81b9bdd08195e1a5cdd60621b6044820152606401610996565b6000818152600d6020526040902054336118f4836112b6565b6001600160a01b0316146119425760405162461bcd60e51b81526020600482015260156024820152741b9bdd081bdddb995c881bd9881d1a1a5cc8139195605a1b6044820152606401610996565b6000818152600e602052604090205461198e5760405162461bcd60e51b815260206004820152600e60248201526d139bc814995dd85c991cc816595d60921b6044820152606401610996565b6000818152600e6020908152604080832054858452600f90925290912054106119f95760405162461bcd60e51b815260206004820152601f60248201527f596f7520616c726561647920636c61696d656420796f757220726577617264006044820152606401610996565b6000828152600f6020908152604080832054848452600e909252822054611a209190612ece565b60105460405163a9059cbb60e01b8152336004820152602481018390529192506000916001600160a01b039091169063a9059cbb906044016020604051808303816000875af1158015611a77573d6000803e3d6000fd5b505050506040513d601f19601f82011682018060405250810190611a9b9190612f16565b905080611aba5760405162461bcd60e51b815260040161099690612f33565b50506000908152600e6020908152604080832054938352600f909152902055565b60606001805461087890612e30565b610e553383836122d0565b6000600c8281548110611b0a57611b0a612eb8565b9060005260206000209060060201600201549050919050565b611b2d3383611fbc565b611b495760405162461bcd60e51b815260040161099690612e6a565b611b558484848461239e565b50505050565b600c8181548110611b6b57600080fd5b9060005260206000209060060201600091509050806000018054611b8e90612e30565b80601f0160208091040260200160405190810160405280929190818152602001828054611bba90612e30565b8015611c075780601f10611bdc57610100808354040283529160200191611c07565b820191906000526020600020905b815481529060010190602001808311611bea57829003601f168201915b505050505090806001018054611c1c90612e30565b80601f0160208091040260200160405190810160405280929190818152602001828054611c4890612e30565b8015611c955780601f10611c6a57610100808354040283529160200191611c95565b820191906000526020600020905b815481529060010190602001808311611c7857829003601f168201915b5050505050908060020154908060030154908060040154908060050154905086565b6000818152600260205260409020546060906001600160a01b0316611d1e5760405162461bcd60e51b815260206004820152601f60248201527f55524920717565727920666f72206e6f6e6578697374656e7420746f6b656e006044820152606401610996565b6000828152600d6020526040902054600c805482908110611d4157611d41612eb8565b9060005260206000209060060201600101604051602001611d629190612fcc565b604051602081830303815290604052915050919050565b6012546001600160a01b03163314611da35760405162461bcd60e51b815260040161099690612f7e565b601455565b6012546001600160a01b03163314611dd25760405162461bcd60e51b815260040161099690612f7e565b6040805160c08101825286815260208082018790529181018590526060810184905260006080820181905260a08201849052600c8054600181018255915281518051929360069092027fdf6966c971051c3d54ec59162606531493a51404a002842f56009d7e5cf4a8c70192611e4b928492019061291e565b506020828101518051611e64926001850192019061291e565b5060408201518160020155606082015181600301556080820151816004015560a0820151816005015550505050505050565b80546001019055565b60006001600160e01b031982166380ac58cd60e01b1480611ed057506001600160e01b03198216635b5e139f60e01b145b8061086357506301ffc9a760e01b6001600160e01b0319831614610863565b6000818152600260205260409020546001600160a01b03166111c95760405162461bcd60e51b8152602060048201526018602482015277115490cdcc8c4e881a5b9d985b1a59081d1bdad95b88125160421b6044820152606401610996565b600081815260046020526040902080546001600160a01b0319166001600160a01b0384169081179091558190611f83826112b6565b6001600160a01b03167f8c5be1e5ebec7d5bd14f71427d1e84f3dd0314c0f7b2291e5b200ac8c7c3b92560405160405180910390a45050565b600080611fc8836112b6565b9050806001600160a01b0316846001600160a01b0316148061200f57506001600160a01b0380821660009081526005602090815260408083209388168352929052205460ff165b806112ae5750836001600160a01b0316612028846108fb565b6001600160a01b031614949350505050565b826001600160a01b031661204d826112b6565b6001600160a01b0316146120b15760405162461bcd60e51b815260206004820152602560248201527f4552433732313a207472616e736665722066726f6d20696e636f72726563742060448201526437bbb732b960d91b6064820152608401610996565b6001600160a01b0382166121135760405162461bcd60e51b8152602060048201526024808201527f4552433732313a207472616e7366657220746f20746865207a65726f206164646044820152637265737360e01b6064820152608401610996565b61211e8383836123d1565b612129600082611f4e565b6001600160a01b0383166000908152600360205260408120805460019290612152908490612ece565b90915550506001600160a01b0382166000908152600360205260408120805460019290612180908490612efe565b909155505060008181526002602052604080822080546001600160a01b0319166001600160a01b0386811691821790925591518493918716917fddf252ad1be2c89b69c2b068fc378daa952ba7f163c4a11628f55a4df523b3ef91a4505050565b610e55828260405180602001604052806000815250612489565b6122036124bc565b600a805460ff191690557f5db9ee0a495bf2e6ff9c91a7834c1ba4fdd244a5e8aa4e537bd38aeae4b073aa335b6040516001600160a01b03909116815260200160405180910390a1565b61225561228a565b600a805460ff191660011790557f62e78cea01bee320cd4e420270b5ea74000d11b0c9f74754ebdbfc544b05a2586122303390565b600a5460ff16156111165760405162461bcd60e51b815260206004820152601060248201526f14185d5cd8589b194e881c185d5cd95960821b6044820152606401610996565b816001600160a01b0316836001600160a01b0316036123315760405162461bcd60e51b815260206004820152601960248201527f4552433732313a20617070726f766520746f2063616c6c6572000000000000006044820152606401610996565b6001600160a01b03838116600081815260056020908152604080832094871680845294825291829020805460ff191686151590811790915591519182527f17307eab39ab6107e8899845ad3d59bd9653f200f220920489ca2b5937696c31910160405180910390a3505050565b6123a984848461203a565b6123b584848484612505565b611b555760405162461bcd60e51b815260040161099690613067565b6001600160a01b03831661242c5761242781600880546000838152600960205260408120829055600182018355919091527ff3f7a9fe364faab93b216da50a3214154f22a0a2b415b23a84c8169e8b636ee30155565b61244f565b816001600160a01b0316836001600160a01b03161461244f5761244f8382612606565b6001600160a01b03821661246657610a37816126a3565b826001600160a01b0316826001600160a01b031614610a3757610a378282612752565b6124938383612796565b6124a06000848484612505565b610a375760405162461bcd60e51b815260040161099690613067565b600a5460ff166111165760405162461bcd60e51b815260206004820152601460248201527314185d5cd8589b194e881b9bdd081c185d5cd95960621b6044820152606401610996565b60006001600160a01b0384163b156125fb57604051630a85bd0160e11b81526001600160a01b0385169063150b7a02906125499033908990889088906004016130b9565b6020604051808303816000875af1925050508015612584575060408051601f3d908101601f19168201909252612581918101906130f6565b60015b6125e1573d8080156125b2576040519150601f19603f3d011682016040523d82523d6000602084013e6125b7565b606091505b5080516000036125d95760405162461bcd60e51b815260040161099690613067565b805181602001fd5b6001600160e01b031916630a85bd0160e11b1490506112ae565b506001949350505050565b60006001612613846116e4565b61261d9190612ece565b600083815260076020526040902054909150808214612670576001600160a01b03841660009081526006602090815260408083208584528252808320548484528184208190558352600790915290208190555b5060009182526007602090815260408084208490556001600160a01b039094168352600681528383209183525290812055565b6008546000906126b590600190612ece565b600083815260096020526040812054600880549394509092849081106126dd576126dd612eb8565b9060005260206000200154905080600883815481106126fe576126fe612eb8565b600091825260208083209091019290925582815260099091526040808220849055858252812055600880548061273657612736613113565b6001900381819060005260206000200160009055905550505050565b600061275d836116e4565b6001600160a01b039093166000908152600660209081526040808320868452825280832085905593825260079052919091209190915550565b6001600160a01b0382166127ec5760405162461bcd60e51b815260206004820181905260248201527f4552433732313a206d696e7420746f20746865207a65726f20616464726573736044820152606401610996565b6000818152600260205260409020546001600160a01b0316156128515760405162461bcd60e51b815260206004820152601c60248201527f4552433732313a20746f6b656e20616c7265616479206d696e746564000000006044820152606401610996565b61285d600083836123d1565b6001600160a01b0382166000908152600360205260408120805460019290612886908490612efe565b909155505060008181526002602052604080822080546001600160a01b0319166001600160a01b03861690811790915590518392907fddf252ad1be2c89b69c2b068fc378daa952ba7f163c4a11628f55a4df523b3ef908290a45050565b5080546128f090612e30565b6000825580601f10612900575050565b601f0160209004906000526020600020908101906111c991906129a2565b82805461292a90612e30565b90600052602060002090601f01602090048101928261294c5760008555612992565b82601f1061296557805160ff1916838001178555612992565b82800160010185558215612992579182015b82811115612992578251825591602001919060010190612977565b5061299e9291506129a2565b5090565b5b8082111561299e57600081556001016129a3565b634e487b7160e01b600052601160045260246000fd5b60008160001904831182151516156129e7576129e76129b7565b500290565b600082612a0957634e487b7160e01b600052601260045260246000fd5b500490565b6001600160e01b0319811681146111c957600080fd5b600060208284031215612a3657600080fd5b8135612a4181612a0e565b9392505050565b6000815180845260005b81811015612a6e57602081850181015186830182015201612a52565b81811115612a80576000602083870101525b50601f01601f19169290920160200192915050565b602081526000612a416020830184612a48565b600060208284031215612aba57600080fd5b5035919050565b80356001600160a01b0381168114612ad857600080fd5b919050565b60008060408385031215612af057600080fd5b612af983612ac1565b946020939093013593505050565b600080600060608486031215612b1c57600080fd5b612b2584612ac1565b9250612b3360208501612ac1565b9150604084013590509250925092565b600080600060608486031215612b5857600080fd5b612b6184612ac1565b95602085013595506040909401359392505050565b600080600060608486031215612b8b57600080fd5b8335925060208401359150612ba260408501612ac1565b90509250925092565b600060208284031215612bbd57600080fd5b612a4182612ac1565b80151581146111c957600080fd5b60008060408385031215612be757600080fd5b612bf083612ac1565b91506020830135612c0081612bc6565b809150509250929050565b634e487b7160e01b600052604160045260246000fd5b600067ffffffffffffffff80841115612c3c57612c3c612c0b565b604051601f8501601f19908116603f01168101908282118183101715612c6457612c64612c0b565b81604052809350858152868686011115612c7d57600080fd5b858560208301376000602087830101525050509392505050565b60008060008060808587031215612cad57600080fd5b612cb685612ac1565b9350612cc460208601612ac1565b925060408501359150606085013567ffffffffffffffff811115612ce757600080fd5b8501601f81018713612cf857600080fd5b612d0787823560208401612c21565b91505092959194509250565b60c081526000612d2660c0830189612a48565b8281036020840152612d388189612a48565b9150508560408301528460608301528360808301528260a0830152979650505050505050565b60008060408385031215612d7157600080fd5b612d7a83612ac1565b9150612d8860208401612ac1565b90509250929050565b600082601f830112612da257600080fd5b612a4183833560208501612c21565b600080600080600060a08688031215612dc957600080fd5b853567ffffffffffffffff80821115612de157600080fd5b612ded89838a01612d91565b96506020880135915080821115612e0357600080fd5b50612e1088828901612d91565b959895975050505060408401359360608101359360809091013592509050565b600181811c90821680612e4457607f821691505b602082108103612e6457634e487b7160e01b600052602260045260246000fd5b50919050565b6020808252602e908201527f4552433732313a2063616c6c6572206973206e6f7420746f6b656e206f776e6560408201526d1c881b9bdc88185c1c1c9bdd995960921b606082015260800190565b634e487b7160e01b600052603260045260246000fd5b600082821015612ee057612ee06129b7565b500390565b600060018201612ef757612ef76129b7565b5060010190565b60008219821115612f1157612f116129b7565b500190565b600060208284031215612f2857600080fd5b8151612a4181612bc6565b6020808252602b908201527f436f756c64206e6f74207472616e7366657220746f6b656e2e204d697373696e60408201526a6720617070726f76616c3f60a81b606082015260800190565b6020808252818101527f4f776e61626c653a2063616c6c6572206973206e6f7420746865206f776e6572604082015260600190565b600060208284031215612fc557600080fd5b5051919050565b600080835481600182811c915080831680612fe857607f831692505b6020808410820361300757634e487b7160e01b86526022600452602486fd5b81801561301b576001811461302c57613059565b60ff19861689528489019650613059565b60008a81526020902060005b868110156130515781548b820152908501908301613038565b505084890196505b509498975050505050505050565b60208082526032908201527f4552433732313a207472616e7366657220746f206e6f6e20455243373231526560408201527131b2b4bb32b91034b6b83632b6b2b73a32b960711b606082015260800190565b6001600160a01b03858116825284166020820152604081018390526080606082018190526000906130ec90830184612a48565b9695505050505050565b60006020828403121561310857600080fd5b8151612a4181612a0e565b634e487b7160e01b600052603160045260246000fdfea26469706673582212207b649a76754a40b3ef370a67a74ba4dfa4e6310f65e0ab25ac6c0a68ca9e32f764736f6c634300080e0033",
  "linkReferences": {},
  "deployedLinkReferences": {}
}