{
  "_format": "hh-sol-artifact-1",
  "contractName": "FactoryERC721",
  "sourceName": "contracts/factory.sol",
  "abi": [
    {
      "anonymous": false,
      "inputs": [
        {
          "indexed": false,
          "internalType": "address",
          "name": "addr",
          "type": "address"
        },
        {
          "indexed": false,
          "internalType": "uint256",
          "name": "salt",
          "type": "uint256"
        }
      ],
      "name": "Deployed",
      "type": "event"
    },
    {
      "inputs": [
        {
          "internalType": "address payable",
          "name": "_contract",
          "type": "address"
        },
        {
          "internalType": "address",
          "name": "_to",
          "type": "address"
        },
        {
          "internalType": "uint256",
          "name": "_category",
          "type": "uint256"
        },
        {
          "internalType": "uint256",
          "name": "_amount",
          "type": "uint256"
        }
      ],
      "name": "crossMintFactory",
      "outputs": [],
      "stateMutability": "payable",
      "type": "function"
    },
    {
      "inputs": [
        {
          "internalType": "bytes",
          "name": "bytecode",
          "type": "bytes"
        },
        {
          "internalType": "uint256",
          "name": "_salt",
          "type": "uint256"
        }
      ],
      "name": "deploy",
      "outputs": [
        {
          "internalType": "address",
          "name": "",
          "type": "address"
        }
      ],
      "stateMutability": "payable",
      "type": "function"
    },
    {
      "inputs": [
        {
          "internalType": "bytes",
          "name": "bytecode",
          "type": "bytes"
        },
        {
          "internalType": "uint256",
          "name": "_salt",
          "type": "uint256"
        }
      ],
      "name": "getAddress",
      "outputs": [
        {
          "internalType": "address",
          "name": "",
          "type": "address"
        }
      ],
      "stateMutability": "view",
      "type": "function"
    },
    {
      "inputs": [
        {
          "internalType": "string[]",
          "name": "_categories",
          "type": "string[]"
        },
        {
          "internalType": "string[]",
          "name": "_baseUri",
          "type": "string[]"
        },
        {
          "internalType": "uint256[]",
          "name": "_price",
          "type": "uint256[]"
        },
        {
          "internalType": "uint256[]",
          "name": "_maxSupply",
          "type": "uint256[]"
        },
        {
          "internalType": "uint256[]",
          "name": "_percentages",
          "type": "uint256[]"
        },
        {
          "internalType": "address",
          "name": "_usdc",
          "type": "address"
        },
        {
          "internalType": "address",
          "name": "_investor",
          "type": "address"
        },
        {
          "internalType": "address",
          "name": "_artist",
          "type": "address"
        },
        {
          "internalType": "uint256",
          "name": "_percentageInvestor",
          "type": "uint256"
        },
        {
          "internalType": "uint256",
          "name": "_percentageArtist",
          "type": "uint256"
        }
      ],
      "name": "getBytecode",
      "outputs": [
        {
          "internalType": "bytes",
          "name": "",
          "type": "bytes"
        }
      ],
      "stateMutability": "pure",
      "type": "function"
    },
    {
      "inputs": [
        {
          "internalType": "address payable",
          "name": "_contract",
          "type": "address"
        },
        {
          "internalType": "address",
          "name": "_usdc",
          "type": "address"
        },
        {
          "internalType": "uint256",
          "name": "_quantity",
          "type": "uint256"
        },
        {
          "internalType": "uint256",
          "name": "categoryId",
          "type": "uint256"
        }
      ],
      "name": "mintUSDCFactory",
      "outputs": [],
      "stateMutability": "payable",
      "type": "function"
    }
  ],
  "bytecode": "0x608060405234801561001057600080fd5b50614507806100206000396000f3fe608060405260043610620000505760003560e01c80634dbb1e46146200005557806394ca2cb5146200006e5780639be19dab14620001065780639c4ae2d0146200013a578063a84bd3981462000151575b600080fd5b6200006c62000066366004620005b0565b62000168565b005b3480156200007b57600080fd5b50620000e96200008d366004620006a3565b8151602092830120604080516001600160f81b0319818601523060601b6bffffffffffffffffffffffff191660218201526035810193909352605580840192909252805180840390920182526075909201909152805191012090565b6040516001600160a01b0390911681526020015b60405180910390f35b3480156200011357600080fd5b506200012b620001253660046200083b565b6200024e565b604051620000fd9190620009cb565b620000e96200014b366004620006a3565b620002e0565b6200006c62000162366004620005b0565b62000343565b73da30ee0788276c093e686780c25f6c94310272343314620001dd5760405162461bcd60e51b8152602060048201526024808201527f546869732066756e6374696f6e20697320666f722043726f73736d696e74206f60448201526337363c9760e11b60648201526084015b60405180910390fd5b60405163255f876960e01b81526001600160a01b038481166004830152602482018490526044820183905285169063255f876990606401600060405180830381600087803b1580156200022f57600080fd5b505af115801562000244573d6000803e3d6000fd5b5050505050505050565b6060600060405180602001620002649062000577565b6020820181038252601f19601f820116604052509050808c8c8c8c8c8c8c8c8c8c604051602001620002a09a9998979695949392919062000a7d565b60408051601f1981840301815290829052620002c0929160200162000b25565b6040516020818303038152906040529150509a9950505050505050505050565b6000808284516020860134f59050803b620002fa57600080fd5b604080516001600160a01b0383168152602081018590527fb03c53b28e78a88e31607a27e1fa48234dce28d5d9d9ec7b295aeb02e674a1e1910160405180910390a19392505050565b60405163a570f17760e01b8152600481018290526000906001600160a01b0386169063a570f17790602401602060405180830381865afa1580156200038c573d6000803e3d6000fd5b505050506040513d601f19601f82011682018060405250810190620003b2919062000b58565b9050620003c0818462000b72565b6040516370a0823160e01b81523360048201526001600160a01b038616906370a0823190602401602060405180830381865afa15801562000405573d6000803e3d6000fd5b505050506040513d601f19601f820116820180604052508101906200042b919062000b58565b10156200046e5760405162461bcd60e51b815260206004820152601060248201526f4e6f7420656e6f75676874205553444360801b6044820152606401620001d4565b6001600160a01b0384166323b872dd33876200048b858862000b72565b6040516001600160e01b031960e086901b1681526001600160a01b03938416600482015292909116602483015260448201526064016020604051808303816000875af1158015620004e0573d6000803e3d6000fd5b505050506040513d601f19601f8201168201806040525081019062000506919062000ba0565b5060405163372102e960e11b815260048101849052602481018390523360448201526001600160a01b03861690636e4205d290606401600060405180830381600087803b1580156200055757600080fd5b505af11580156200056c573d6000803e3d6000fd5b505050505050505050565b61390d8062000bc583390190565b6001600160a01b03811681146200059b57600080fd5b50565b8035620005ab8162000585565b919050565b60008060008060808587031215620005c757600080fd5b8435620005d48162000585565b93506020850135620005e68162000585565b93969395505050506040820135916060013590565b634e487b7160e01b600052604160045260246000fd5b604051601f8201601f1916810167ffffffffffffffff811182821017156200063d576200063d620005fb565b604052919050565b600067ffffffffffffffff831115620006625762000662620005fb565b62000677601f8401601f191660200162000611565b90508281528383830111156200068c57600080fd5b828260208301376000602084830101529392505050565b60008060408385031215620006b757600080fd5b823567ffffffffffffffff811115620006cf57600080fd5b8301601f81018513620006e157600080fd5b620006f28582356020840162000645565b95602094909401359450505050565b600067ffffffffffffffff8211156200071e576200071e620005fb565b5060051b60200190565b600082601f8301126200073a57600080fd5b81356020620007536200074d8362000701565b62000611565b82815260059290921b840181019181810190868411156200077357600080fd5b8286015b84811015620007ce57803567ffffffffffffffff811115620007995760008081fd5b8701603f81018913620007ac5760008081fd5b620007bf89868301356040840162000645565b84525091830191830162000777565b509695505050505050565b600082601f830112620007eb57600080fd5b81356020620007fe6200074d8362000701565b82815260059290921b840181019181810190868411156200081e57600080fd5b8286015b84811015620007ce578035835291830191830162000822565b6000806000806000806000806000806101408b8d0312156200085c57600080fd5b8a3567ffffffffffffffff808211156200087557600080fd5b620008838e838f0162000728565b9b5060208d01359150808211156200089a57600080fd5b620008a88e838f0162000728565b9a5060408d0135915080821115620008bf57600080fd5b620008cd8e838f01620007d9565b995060608d0135915080821115620008e457600080fd5b620008f28e838f01620007d9565b985060808d01359150808211156200090957600080fd5b50620009188d828e01620007d9565b9650506200092960a08c016200059e565b94506200093960c08c016200059e565b93506200094960e08c016200059e565b92506101008b013591506101208b013590509295989b9194979a5092959850565b60005b83811015620009875781810151838201526020016200096d565b8381111562000997576000848401525b50505050565b60008151808452620009b78160208601602086016200096a565b601f01601f19169290920160200192915050565b602081526000620009e060208301846200099d565b9392505050565b600081518084526020808501808196508360051b8101915082860160005b8581101562000a3357828403895262000a208483516200099d565b9885019893509084019060010162000a05565b5091979650505050505050565b600081518084526020808501945080840160005b8381101562000a725781518752958201959082019060010162000a54565b509495945050505050565b600061014080835262000a938184018e620009e7565b9050828103602084015262000aa9818d620009e7565b9050828103604084015262000abf818c62000a40565b9050828103606084015262000ad5818b62000a40565b9050828103608084015262000aeb818a62000a40565b6001600160a01b0398891660a085015296881660c084015250509290941660e0830152610100820152610120019190915295945050505050565b6000835162000b398184602088016200096a565b83519083019062000b4f8183602088016200096a565b01949350505050565b60006020828403121562000b6b57600080fd5b5051919050565b600081600019048311821515161562000b9b57634e487b7160e01b600052601160045260246000fd5b500290565b60006020828403121562000bb357600080fd5b81518015158114620009e057600080fdfe60806040523480156200001157600080fd5b506040516200390d3803806200390d83398101604081905262000034916200058c565b60408051808201825260048152631d195cdd60e21b602080830191825283518085019094526002845261151560f21b9084015281519192916200007a91600091620002d1565b50805162000090906001906020840190620002d1565b5050600a805460ff191690555088518a51148015620000b0575087518a51145b8015620000be575086518a51145b8015620000cc575085518a51145b620001295760405162461bcd60e51b8152602060048201526024808201527f416c6c20617272617973206d7573742068617665207468652073616d65206c656044820152630dccee8d60e31b606482015260840160405180910390fd5b60005b8a518110156200027e57600c6040518060c001604052808d8481518110620001585762000158620006ba565b602002602001015181526020018c84815181106200017a576200017a620006ba565b602002602001015181526020018b84815181106200019c576200019c620006ba565b602002602001015181526020018a8481518110620001be57620001be620006ba565b6020026020010151815260200160008152602001898481518110620001e757620001e7620006ba565b602090810291909101810151909152825460018101845560009384529281902082518051939460060290910192620002239284920190620002d1565b5060208281015180516200023e9260018501920190620002d1565b5060408201516002820155606082015160038201556080820151600482015560a090910151600590910155806200027581620006d0565b9150506200012c565b50601080546001600160a01b03199081166001600160a01b039788161790915560128054821694871694909417909355601180549093169390941692909217905560135560145550620007349350505050565b828054620002df90620006f8565b90600052602060002090601f0160209004810192826200030357600085556200034e565b82601f106200031e57805160ff19168380011785556200034e565b828001600101855582156200034e579182015b828111156200034e57825182559160200191906001019062000331565b506200035c92915062000360565b5090565b5b808211156200035c576000815560010162000361565b634e487b7160e01b600052604160045260246000fd5b604051601f8201601f191681016001600160401b0381118282101715620003b857620003b862000377565b604052919050565b60006001600160401b03821115620003dc57620003dc62000377565b5060051b60200190565b6000601f8381840112620003f957600080fd5b82516020620004126200040c83620003c0565b6200038d565b82815260059290921b850181019181810190878411156200043257600080fd5b8287015b84811015620004f65780516001600160401b0380821115620004585760008081fd5b818a0191508a603f8301126200046e5760008081fd5b858201518181111562000485576200048562000377565b62000498818a01601f191688016200038d565b915080825260408c81838601011115620004b25760008081fd5b60005b82811015620004d2578481018201518482018a01528801620004b5565b82811115620004e45760008984860101525b50505084525091830191830162000436565b50979650505050505050565b600082601f8301126200051457600080fd5b81516020620005276200040c83620003c0565b82815260059290921b840181019181810190868411156200054757600080fd5b8286015b848110156200056457805183529183019183016200054b565b509695505050505050565b80516001600160a01b03811681146200058757600080fd5b919050565b6000806000806000806000806000806101408b8d031215620005ad57600080fd5b8a516001600160401b0380821115620005c557600080fd5b620005d38e838f01620003e6565b9b5060208d0151915080821115620005ea57600080fd5b620005f88e838f01620003e6565b9a5060408d01519150808211156200060f57600080fd5b6200061d8e838f0162000502565b995060608d01519150808211156200063457600080fd5b620006428e838f0162000502565b985060808d01519150808211156200065957600080fd5b50620006688d828e0162000502565b9650506200067960a08c016200056f565b94506200068960c08c016200056f565b93506200069960e08c016200056f565b92506101008b015191506101208b015190509295989b9194979a5092959850565b634e487b7160e01b600052603260045260246000fd5b600060018201620006f157634e487b7160e01b600052601160045260246000fd5b5060010190565b600181811c908216806200070d57607f821691505b6020821081036200072e57634e487b7160e01b600052602260045260246000fd5b50919050565b6131c980620007446000396000f3fe60806040526004361061021e5760003560e01c8063546b7e0a1161012357806386ad310f116100ab578063c6cdbe5e1161006f578063c6cdbe5e1461073a578063c87b56dd1461076c578063e985e9c51461078c578063eb28f2dd146107d5578063ecbe483f146107f557600080fd5b806386ad310f146106a557806395d89b41146106c5578063a22cb465146106da578063a570f177146106fa578063b88d4fde1461071a57600080fd5b80636ff1c9bc116100f25780636ff1c9bc146105f857806370a0823114610618578063741faee6146106385780637f2c0bb81461066557806380420b311461068557600080fd5b8063546b7e0a146105805780635c975abb146105ad5780636352211e146105c55780636e4205d2146105e557600080fd5b80632f745c59116101a65780633e413bee116101755780633e413bee146104e057806342842e0e1461050057806343bc1612146105205780634f6ccce714610540578063515ec1051461056057600080fd5b80632f745c591461048e578063349fdb09146104ae57806337a66d85146104c35780633ccfd60b146104d857600080fd5b806318160ddd116101ed57806318160ddd1461040757806323b872dd14610426578063255f87691461044657806326c02d23146104595780632c8e96ab1461046e57600080fd5b806301ffc9a71461035657806306fdde031461038b578063081812fc146103ad578063095ea7b3146103e557600080fd5b36610351576012546013546000916001600160a01b0316906103e89061024490346129d5565b61024e9190612a0a565b604051600081818185875af1925050503d806000811461028a576040519150601f19603f3d011682016040523d82523d6000602084013e61028f565b606091505b505090508061029d57600080fd5b6011546014546000916001600160a01b0316906103e8906102be90346129d5565b6102c89190612a0a565b604051600081818185875af1925050503d8060008114610304576040519150601f19603f3d011682016040523d82523d6000602084013e610309565b606091505b505090508061031757600080fd5b604080513381523460208201527f7c6ffa8afa793623698938cd722cf1ed49a5fe661a60f5723fe00cc6f55baeb2910160405180910390a1005b600080fd5b34801561036257600080fd5b50610376610371366004612a34565b610815565b60405190151581526020015b60405180910390f35b34801561039757600080fd5b506103a0610840565b6040516103829190612ab0565b3480156103b957600080fd5b506103cd6103c8366004612ac3565b6108d2565b6040516001600160a01b039091168152602001610382565b3480156103f157600080fd5b50610405610400366004612af8565b6108f9565b005b34801561041357600080fd5b506008545b604051908152602001610382565b34801561043257600080fd5b50610405610441366004612b22565b610a13565b610405610454366004612b5e565b610a44565b34801561046557600080fd5b50610405610bbb565b34801561047a57600080fd5b50610405610489366004612ac3565b610ddf565b34801561049a57600080fd5b506104186104a9366004612af8565b610fd4565b3480156104ba57600080fd5b5061040561106a565b3480156104cf57600080fd5b5061040561109e565b6104056110d0565b3480156104ec57600080fd5b506010546103cd906001600160a01b031681565b34801561050c57600080fd5b5061040561051b366004612b22565b611152565b34801561052c57600080fd5b506011546103cd906001600160a01b031681565b34801561054c57600080fd5b5061041861055b366004612ac3565b61116d565b34801561056c57600080fd5b5061041861057b366004612ac3565b611200565b34801561058c57600080fd5b5061041861059b366004612ac3565b600e6020526000908152604090205481565b3480156105b957600080fd5b50600a5460ff16610376565b3480156105d157600080fd5b506103cd6105e0366004612ac3565b61123c565b6104056105f3366004612b91565b61129c565b34801561060457600080fd5b50610405610613366004612bc6565b6113ec565b34801561062457600080fd5b50610418610633366004612bc6565b611619565b34801561064457600080fd5b50610418610653366004612ac3565b600f6020526000908152604090205481565b34801561067157600080fd5b50610405610680366004612ac3565b61169f565b34801561069157600080fd5b506104056106a0366004612ac3565b6116ce565b3480156106b157600080fd5b506104056106c0366004612ac3565b611799565b3480156106d157600080fd5b506103a06119e1565b3480156106e657600080fd5b506104056106f5366004612bef565b6119f0565b34801561070657600080fd5b50610418610715366004612ac3565b6119fb565b34801561072657600080fd5b50610405610735366004612cb2565b611a29565b34801561074657600080fd5b5061075a610755366004612ac3565b611a61565b60405161038296959493929190612d2e565b34801561077857600080fd5b506103a0610787366004612ac3565b611bbd565b34801561079857600080fd5b506103766107a7366004612d79565b6001600160a01b03918216600090815260056020908152604080832093909416825291909152205460ff1690565b3480156107e157600080fd5b506104056107f0366004612ac3565b611c89565b34801561080157600080fd5b50610405610810366004612dcc565b611cb8565b60006001600160e01b0319821663780e9d6360e01b148061083a575061083a82611da6565b92915050565b60606000805461084f90612e4b565b80601f016020809104026020016040519081016040528092919081815260200182805461087b90612e4b565b80156108c85780601f1061089d576101008083540402835291602001916108c8565b820191906000526020600020905b8154815290600101906020018083116108ab57829003601f168201915b5050505050905090565b60006108dd82611df6565b506000908152600460205260409020546001600160a01b031690565b60006109048261123c565b9050806001600160a01b0316836001600160a01b0316036109765760405162461bcd60e51b815260206004820152602160248201527f4552433732313a20617070726f76616c20746f2063757272656e74206f776e656044820152603960f91b60648201526084015b60405180910390fd5b336001600160a01b0382161480610992575061099281336107a7565b610a045760405162461bcd60e51b815260206004820152603e60248201527f4552433732313a20617070726f76652063616c6c6572206973206e6f7420746f60448201527f6b656e206f776e6572206e6f7220617070726f76656420666f7220616c6c0000606482015260840161096d565b610a0e8383611e55565b505050565b610a1d3382611ec3565b610a395760405162461bcd60e51b815260040161096d90612e85565b610a0e838383611f41565b600c548210610a885760405162461bcd60e51b815260206004820152601060248201526f496e76616c69642063617465676f727960801b604482015260640161096d565b600c8281548110610a9b57610a9b612ed3565b906000526020600020906006020160040154600c8381548110610ac057610ac0612ed3565b906000526020600020906006020160030154610adc9190612ee9565b811115610b205760405162461bcd60e51b81526020600482015260126024820152714e6f7420656e6f7567687420737570706c7960701b604482015260640161096d565b60005b81811015610b7c57610b3d84610b38600b5490565b6120e8565b82600d6000610b4b600b5490565b8152602081019190915260400160002055610b6a600b80546001019055565b80610b7481612f00565b915050610b23565b5080600c8381548110610b9157610b91612ed3565b90600052602060002090600602016004016000828254610bb19190612f19565b9091555050505050565b6000610bc633611619565b11610c135760405162461bcd60e51b815260206004820152601a60248201527f796f7520646f206e6f7420706f736573732074686973206e6674000000000000604482015260640161096d565b6000805b610c2033611619565b811015610ce9576000610c333383610fd4565b6000818152600d6020908152604080832054808452600e835281842054858552600f9093529220549293509091108015610c7a57506000818152600e602052604090205415155b15610cd4576000828152600f6020908152604080832054848452600e909252822054610ca69190612ee9565b9050610cb28186612f19565b6000838152600e6020908152604080832054878452600f909252909120559450505b50508080610ce190612f00565b915050610c17565b5060008111610d465760405162461bcd60e51b8152602060048201526024808201527f796f7520616c726561647920636c61696d656420616c6c20796f7572207265776044820152636172647360e01b606482015260840161096d565b60105460405163a9059cbb60e01b8152336004820152602481018390526000916001600160a01b03169063a9059cbb906044016020604051808303816000875af1158015610d98573d6000803e3d6000fd5b505050506040513d601f19601f82011682018060405250810190610dbc9190612f31565b905080610ddb5760405162461bcd60e51b815260040161096d90612f4e565b5050565b6011546001600160a01b03163314610e095760405162461bcd60e51b815260040161096d90612f99565b60008111610e4d5760405162461bcd60e51b81526020600482015260116024820152700616d6f756e742063616e2774206265203607c1b604482015260640161096d565b6010546040516323b872dd60e01b8152336004820152306024820152604481018390526000916001600160a01b0316906323b872dd906064016020604051808303816000875af1158015610ea5573d6000803e3d6000fd5b505050506040513d601f19601f82011682018060405250810190610ec99190612f31565b905080610ee85760405162461bcd60e51b815260040161096d90612f4e565b60005b600c54811015610f96576064600c8281548110610f0a57610f0a612ed3565b906000526020600020906006020160030154600c8381548110610f2f57610f2f612ed3565b90600052602060002090600602016005015485610f4c91906129d5565b610f569190612a0a565b610f609190612a0a565b6000828152600e602052604081208054909190610f7e908490612f19565b90915550819050610f8e81612f00565b915050610eeb565b5060408051338152602081018490527f332c3fd68e199528deb4a5631f1c91795464d13656d118e824c5da4f75ea83e5910160405180910390a15050565b6000610fdf83611619565b82106110415760405162461bcd60e51b815260206004820152602b60248201527f455243373231456e756d657261626c653a206f776e657220696e646578206f7560448201526a74206f6620626f756e647360a81b606482015260840161096d565b506001600160a01b03919091166000908152600660209081526040808320938352929052205490565b6011546001600160a01b031633146110945760405162461bcd60e51b815260040161096d90612f99565b61109c612102565b565b6011546001600160a01b031633146110c85760405162461bcd60e51b815260040161096d90612f99565b61109c612154565b6011546001600160a01b031633146110fa5760405162461bcd60e51b815260040161096d90612f99565b604051600090339047908381818185875af1925050503d806000811461113c576040519150601f19603f3d011682016040523d82523d6000602084013e611141565b606091505b505090508061114f57600080fd5b50565b610a0e83838360405180602001604052806000815250611a29565b600061117860085490565b82106111db5760405162461bcd60e51b815260206004820152602c60248201527f455243373231456e756d657261626c653a20676c6f62616c20696e646578206f60448201526b7574206f6620626f756e647360a01b606482015260840161096d565b600882815481106111ee576111ee612ed3565b90600052602060002001549050919050565b6000818152600d6020908152604080832054600f835281842054818552600e90935290832054909183916112349190612ee9565b949350505050565b6000818152600260205260408120546001600160a01b03168061083a5760405162461bcd60e51b8152602060048201526018602482015277115490cdcc8c4e881a5b9d985b1a59081d1bdad95b88125160421b604482015260640161096d565b6112a4612191565b600c5482106112e85760405162461bcd60e51b815260206004820152601060248201526f496e76616c69642063617465676f727960801b604482015260640161096d565b600c82815481106112fb576112fb612ed3565b906000526020600020906006020160040154600c838154811061132057611320612ed3565b90600052602060002090600602016003015461133c9190612ee9565b8311156113805760405162461bcd60e51b81526020600482015260126024820152714e6f7420656e6f7567687420737570706c7960701b604482015260640161096d565b60005b838110156113d75761139882610b38600b5490565b82600d60006113a6600b5490565b81526020810191909152604001600020556113c5600b80546001019055565b806113cf81612f00565b915050611383565b5082600c8381548110610b9157610b91612ed3565b6011546001600160a01b031633146114165760405162461bcd60e51b815260040161096d90612f99565b6012546013546040516370a0823160e01b81523060048201526001600160a01b038481169363a9059cbb939116916064919085906370a0823190602401602060405180830381865afa158015611470573d6000803e3d6000fd5b505050506040513d601f19601f820116820180604052508101906114949190612fce565b61149e91906129d5565b6114a89190612a0a565b6040516001600160e01b031960e085901b1681526001600160a01b03909216600483015260248201526044016020604051808303816000875af11580156114f3573d6000803e3d6000fd5b505050506040513d601f19601f820116820180604052508101906115179190612f31565b506011546014546040516370a0823160e01b81523060048201526001600160a01b038481169363a9059cbb939116916064919085906370a0823190602401602060405180830381865afa158015611572573d6000803e3d6000fd5b505050506040513d601f19601f820116820180604052508101906115969190612fce565b6115a091906129d5565b6115aa9190612a0a565b6040516001600160e01b031960e085901b1681526001600160a01b03909216600483015260248201526044016020604051808303816000875af11580156115f5573d6000803e3d6000fd5b505050506040513d601f19601f82011682018060405250810190610ddb9190612f31565b60006001600160a01b0382166116835760405162461bcd60e51b815260206004820152602960248201527f4552433732313a2061646472657373207a65726f206973206e6f7420612076616044820152683634b21037bbb732b960b91b606482015260840161096d565b506001600160a01b031660009081526003602052604090205490565b6011546001600160a01b031633146116c95760405162461bcd60e51b815260040161096d90612f99565b601355565b6011546001600160a01b031633146116f85760405162461bcd60e51b815260040161096d90612f99565b600c54811061173d5760405162461bcd60e51b8152602060048201526011602482015270092dcc8caf040d2e640e8dede40d0d2ced607b1b604482015260640161096d565b600c818154811061175057611750612ed3565b6000918252602082206006909102019061176a82826128ec565b6117786001830160006128ec565b50600060028201819055600382018190556004820181905560059091015550565b60085481106117e15760405162461bcd60e51b81526020600482015260146024820152731d1a1a5cc81a5908191bc81b9bdd08195e1a5cdd60621b604482015260640161096d565b6000818152600d6020526040902054336117fa8361123c565b6001600160a01b0316146118485760405162461bcd60e51b81526020600482015260156024820152741b9bdd081bdddb995c881bd9881d1a1a5cc8139195605a1b604482015260640161096d565b6000818152600e60205260409020546118945760405162461bcd60e51b815260206004820152600e60248201526d139bc814995dd85c991cc816595d60921b604482015260640161096d565b6000818152600e6020908152604080832054858452600f90925290912054106118ff5760405162461bcd60e51b815260206004820152601f60248201527f596f7520616c726561647920636c61696d656420796f75722072657761726400604482015260640161096d565b6000828152600f6020908152604080832054848452600e9092528220546119269190612ee9565b60105460405163a9059cbb60e01b8152336004820152602481018390529192506000916001600160a01b039091169063a9059cbb906044016020604051808303816000875af115801561197d573d6000803e3d6000fd5b505050506040513d601f19601f820116820180604052508101906119a19190612f31565b9050806119c05760405162461bcd60e51b815260040161096d90612f4e565b50506000908152600e6020908152604080832054938352600f909152902055565b60606001805461084f90612e4b565b610ddb3383836121d7565b6000600c8281548110611a1057611a10612ed3565b9060005260206000209060060201600201549050919050565b611a333383611ec3565b611a4f5760405162461bcd60e51b815260040161096d90612e85565b611a5b848484846122a5565b50505050565b600c8181548110611a7157600080fd5b9060005260206000209060060201600091509050806000018054611a9490612e4b565b80601f0160208091040260200160405190810160405280929190818152602001828054611ac090612e4b565b8015611b0d5780601f10611ae257610100808354040283529160200191611b0d565b820191906000526020600020905b815481529060010190602001808311611af057829003601f168201915b505050505090806001018054611b2290612e4b565b80601f0160208091040260200160405190810160405280929190818152602001828054611b4e90612e4b565b8015611b9b5780601f10611b7057610100808354040283529160200191611b9b565b820191906000526020600020905b815481529060010190602001808311611b7e57829003601f168201915b5050505050908060020154908060030154908060040154908060050154905086565b6000818152600260205260409020546060906001600160a01b0316611c245760405162461bcd60e51b815260206004820152601f60248201527f55524920717565727920666f72206e6f6e6578697374656e7420746f6b656e00604482015260640161096d565b6000828152600d6020526040902054600c805482908110611c4757611c47612ed3565b9060005260206000209060060201600101611c61846122d8565b604051602001611c72929190613003565b604051602081830303815290604052915050919050565b6011546001600160a01b03163314611cb35760405162461bcd60e51b815260040161096d90612f99565b601455565b6011546001600160a01b03163314611ce25760405162461bcd60e51b815260040161096d90612f99565b6040805160c08101825286815260208082018790529181018590526060810184905260006080820181905260a08201849052600c8054600181018255915281518051929360069092027fdf6966c971051c3d54ec59162606531493a51404a002842f56009d7e5cf4a8c70192611d5b9284920190612926565b506020828101518051611d749260018501920190612926565b5060408201518160020155606082015181600301556080820151816004015560a0820151816005015550505050505050565b60006001600160e01b031982166380ac58cd60e01b1480611dd757506001600160e01b03198216635b5e139f60e01b145b8061083a57506301ffc9a760e01b6001600160e01b031983161461083a565b6000818152600260205260409020546001600160a01b031661114f5760405162461bcd60e51b8152602060048201526018602482015277115490cdcc8c4e881a5b9d985b1a59081d1bdad95b88125160421b604482015260640161096d565b600081815260046020526040902080546001600160a01b0319166001600160a01b0384169081179091558190611e8a8261123c565b6001600160a01b03167f8c5be1e5ebec7d5bd14f71427d1e84f3dd0314c0f7b2291e5b200ac8c7c3b92560405160405180910390a45050565b600080611ecf8361123c565b9050806001600160a01b0316846001600160a01b03161480611f1657506001600160a01b0380821660009081526005602090815260408083209388168352929052205460ff165b806112345750836001600160a01b0316611f2f846108d2565b6001600160a01b031614949350505050565b826001600160a01b0316611f548261123c565b6001600160a01b031614611fb85760405162461bcd60e51b815260206004820152602560248201527f4552433732313a207472616e736665722066726f6d20696e636f72726563742060448201526437bbb732b960d91b606482015260840161096d565b6001600160a01b03821661201a5760405162461bcd60e51b8152602060048201526024808201527f4552433732313a207472616e7366657220746f20746865207a65726f206164646044820152637265737360e01b606482015260840161096d565b6120258383836123d9565b612030600082611e55565b6001600160a01b0383166000908152600360205260408120805460019290612059908490612ee9565b90915550506001600160a01b0382166000908152600360205260408120805460019290612087908490612f19565b909155505060008181526002602052604080822080546001600160a01b0319166001600160a01b0386811691821790925591518493918716917fddf252ad1be2c89b69c2b068fc378daa952ba7f163c4a11628f55a4df523b3ef91a4505050565b610ddb828260405180602001604052806000815250612491565b61210a6124c4565b600a805460ff191690557f5db9ee0a495bf2e6ff9c91a7834c1ba4fdd244a5e8aa4e537bd38aeae4b073aa335b6040516001600160a01b03909116815260200160405180910390a1565b61215c612191565b600a805460ff191660011790557f62e78cea01bee320cd4e420270b5ea74000d11b0c9f74754ebdbfc544b05a2586121373390565b600a5460ff161561109c5760405162461bcd60e51b815260206004820152601060248201526f14185d5cd8589b194e881c185d5cd95960821b604482015260640161096d565b816001600160a01b0316836001600160a01b0316036122385760405162461bcd60e51b815260206004820152601960248201527f4552433732313a20617070726f766520746f2063616c6c657200000000000000604482015260640161096d565b6001600160a01b03838116600081815260056020908152604080832094871680845294825291829020805460ff191686151590811790915591519182527f17307eab39ab6107e8899845ad3d59bd9653f200f220920489ca2b5937696c31910160405180910390a3505050565b6122b0848484611f41565b6122bc8484848461250d565b611a5b5760405162461bcd60e51b815260040161096d906130bd565b6060816000036122ff5750506040805180820190915260018152600360fc1b602082015290565b8160005b8115612329578061231381612f00565b91506123229050600a83612a0a565b9150612303565b60008167ffffffffffffffff81111561234457612344612c26565b6040519080825280601f01601f19166020018201604052801561236e576020820181803683370190505b5090505b841561123457612383600183612ee9565b9150612390600a8661310f565b61239b906030612f19565b60f81b8183815181106123b0576123b0612ed3565b60200101906001600160f81b031916908160001a9053506123d2600a86612a0a565b9450612372565b6001600160a01b0383166124345761242f81600880546000838152600960205260408120829055600182018355919091527ff3f7a9fe364faab93b216da50a3214154f22a0a2b415b23a84c8169e8b636ee30155565b612457565b816001600160a01b0316836001600160a01b03161461245757612457838261260e565b6001600160a01b03821661246e57610a0e816126ab565b826001600160a01b0316826001600160a01b031614610a0e57610a0e828261275a565b61249b838361279e565b6124a8600084848461250d565b610a0e5760405162461bcd60e51b815260040161096d906130bd565b600a5460ff1661109c5760405162461bcd60e51b815260206004820152601460248201527314185d5cd8589b194e881b9bdd081c185d5cd95960621b604482015260640161096d565b60006001600160a01b0384163b1561260357604051630a85bd0160e11b81526001600160a01b0385169063150b7a0290612551903390899088908890600401613123565b6020604051808303816000875af192505050801561258c575060408051601f3d908101601f1916820190925261258991810190613160565b60015b6125e9573d8080156125ba576040519150601f19603f3d011682016040523d82523d6000602084013e6125bf565b606091505b5080516000036125e15760405162461bcd60e51b815260040161096d906130bd565b805181602001fd5b6001600160e01b031916630a85bd0160e11b149050611234565b506001949350505050565b6000600161261b84611619565b6126259190612ee9565b600083815260076020526040902054909150808214612678576001600160a01b03841660009081526006602090815260408083208584528252808320548484528184208190558352600790915290208190555b5060009182526007602090815260408084208490556001600160a01b039094168352600681528383209183525290812055565b6008546000906126bd90600190612ee9565b600083815260096020526040812054600880549394509092849081106126e5576126e5612ed3565b90600052602060002001549050806008838154811061270657612706612ed3565b600091825260208083209091019290925582815260099091526040808220849055858252812055600880548061273e5761273e61317d565b6001900381819060005260206000200160009055905550505050565b600061276583611619565b6001600160a01b039093166000908152600660209081526040808320868452825280832085905593825260079052919091209190915550565b6001600160a01b0382166127f45760405162461bcd60e51b815260206004820181905260248201527f4552433732313a206d696e7420746f20746865207a65726f2061646472657373604482015260640161096d565b6000818152600260205260409020546001600160a01b0316156128595760405162461bcd60e51b815260206004820152601c60248201527f4552433732313a20746f6b656e20616c7265616479206d696e74656400000000604482015260640161096d565b612865600083836123d9565b6001600160a01b038216600090815260036020526040812080546001929061288e908490612f19565b909155505060008181526002602052604080822080546001600160a01b0319166001600160a01b03861690811790915590518392907fddf252ad1be2c89b69c2b068fc378daa952ba7f163c4a11628f55a4df523b3ef908290a45050565b5080546128f890612e4b565b6000825580601f10612908575050565b601f01602090049060005260206000209081019061114f91906129aa565b82805461293290612e4b565b90600052602060002090601f016020900481019282612954576000855561299a565b82601f1061296d57805160ff191683800117855561299a565b8280016001018555821561299a579182015b8281111561299a57825182559160200191906001019061297f565b506129a69291506129aa565b5090565b5b808211156129a657600081556001016129ab565b634e487b7160e01b600052601160045260246000fd5b60008160001904831182151516156129ef576129ef6129bf565b500290565b634e487b7160e01b600052601260045260246000fd5b600082612a1957612a196129f4565b500490565b6001600160e01b03198116811461114f57600080fd5b600060208284031215612a4657600080fd5b8135612a5181612a1e565b9392505050565b60005b83811015612a73578181015183820152602001612a5b565b83811115611a5b5750506000910152565b60008151808452612a9c816020860160208601612a58565b601f01601f19169290920160200192915050565b602081526000612a516020830184612a84565b600060208284031215612ad557600080fd5b5035919050565b80356001600160a01b0381168114612af357600080fd5b919050565b60008060408385031215612b0b57600080fd5b612b1483612adc565b946020939093013593505050565b600080600060608486031215612b3757600080fd5b612b4084612adc565b9250612b4e60208501612adc565b9150604084013590509250925092565b600080600060608486031215612b7357600080fd5b612b7c84612adc565b95602085013595506040909401359392505050565b600080600060608486031215612ba657600080fd5b8335925060208401359150612bbd60408501612adc565b90509250925092565b600060208284031215612bd857600080fd5b612a5182612adc565b801515811461114f57600080fd5b60008060408385031215612c0257600080fd5b612c0b83612adc565b91506020830135612c1b81612be1565b809150509250929050565b634e487b7160e01b600052604160045260246000fd5b600067ffffffffffffffff80841115612c5757612c57612c26565b604051601f8501601f19908116603f01168101908282118183101715612c7f57612c7f612c26565b81604052809350858152868686011115612c9857600080fd5b858560208301376000602087830101525050509392505050565b60008060008060808587031215612cc857600080fd5b612cd185612adc565b9350612cdf60208601612adc565b925060408501359150606085013567ffffffffffffffff811115612d0257600080fd5b8501601f81018713612d1357600080fd5b612d2287823560208401612c3c565b91505092959194509250565b60c081526000612d4160c0830189612a84565b8281036020840152612d538189612a84565b9150508560408301528460608301528360808301528260a0830152979650505050505050565b60008060408385031215612d8c57600080fd5b612d9583612adc565b9150612da360208401612adc565b90509250929050565b600082601f830112612dbd57600080fd5b612a5183833560208501612c3c565b600080600080600060a08688031215612de457600080fd5b853567ffffffffffffffff80821115612dfc57600080fd5b612e0889838a01612dac565b96506020880135915080821115612e1e57600080fd5b50612e2b88828901612dac565b959895975050505060408401359360608101359360809091013592509050565b600181811c90821680612e5f57607f821691505b602082108103612e7f57634e487b7160e01b600052602260045260246000fd5b50919050565b6020808252602e908201527f4552433732313a2063616c6c6572206973206e6f7420746f6b656e206f776e6560408201526d1c881b9bdc88185c1c1c9bdd995960921b606082015260800190565b634e487b7160e01b600052603260045260246000fd5b600082821015612efb57612efb6129bf565b500390565b600060018201612f1257612f126129bf565b5060010190565b60008219821115612f2c57612f2c6129bf565b500190565b600060208284031215612f4357600080fd5b8151612a5181612be1565b6020808252602b908201527f436f756c64206e6f74207472616e7366657220746f6b656e2e204d697373696e60408201526a6720617070726f76616c3f60a81b606082015260800190565b6020808252818101527f4f776e61626c653a2063616c6c6572206973206e6f7420746865206f776e6572604082015260600190565b600060208284031215612fe057600080fd5b5051919050565b60008151612ff9818560208601612a58565b9290920192915050565b600080845481600182811c91508083168061301f57607f831692505b6020808410820361303e57634e487b7160e01b86526022600452602486fd5b818015613052576001811461306357613090565b60ff19861689528489019650613090565b60008b81526020902060005b868110156130885781548b82015290850190830161306f565b505084890196505b5050505050506130b46130a38286612fe7565b64173539b7b760d91b815260050190565b95945050505050565b60208082526032908201527f4552433732313a207472616e7366657220746f206e6f6e20455243373231526560408201527131b2b4bb32b91034b6b83632b6b2b73a32b960711b606082015260800190565b60008261311e5761311e6129f4565b500690565b6001600160a01b038581168252841660208201526040810183905260806060820181905260009061315690830184612a84565b9695505050505050565b60006020828403121561317257600080fd5b8151612a5181612a1e565b634e487b7160e01b600052603160045260246000fdfea2646970667358221220778430d950bb2f782bc21a31c7b29dac8bfdbfb460340122b725f578e847d1ac64736f6c634300080e0033a2646970667358221220e23c7e8fc5d7354ba619a8a8f9aeb75014b61f3a6689268f9e092333b4f776ab64736f6c634300080e0033",
  "linkReferences": {},
  "deployedLinkReferences": {}
}