{
  "_format": "hh-sol-artifact-1",
  "contractName": "ERC721Token",
  "sourceName": "contracts/nft.sol",
  "abi": [
    {
      "inputs": [
        {
          "internalType": "string[]",
          "name": "_categories",
          "type": "string[]"
        },
        {
          "internalType": "string[]",
          "name": "_baseUri",
          "type": "string[]"
        },
        {
          "internalType": "uint256[]",
          "name": "_price",
          "type": "uint256[]"
        },
        {
          "internalType": "uint256[]",
          "name": "_maxSupply",
          "type": "uint256[]"
        },
        {
          "internalType": "uint256[]",
          "name": "_percentages",
          "type": "uint256[]"
        },
        {
          "internalType": "address",
          "name": "_usdc",
          "type": "address"
        },
        {
          "internalType": "address",
          "name": "_artist",
          "type": "address"
        },
        {
          "internalType": "address",
          "name": "_investor",
          "type": "address"
        }
      ],
      "stateMutability": "nonpayable",
      "type": "constructor"
    },
    {
      "anonymous": false,
      "inputs": [
        {
          "indexed": true,
          "internalType": "address",
          "name": "owner",
          "type": "address"
        },
        {
          "indexed": true,
          "internalType": "address",
          "name": "approved",
          "type": "address"
        },
        {
          "indexed": true,
          "internalType": "uint256",
          "name": "tokenId",
          "type": "uint256"
        }
      ],
      "name": "Approval",
      "type": "event"
    },
    {
      "anonymous": false,
      "inputs": [
        {
          "indexed": true,
          "internalType": "address",
          "name": "owner",
          "type": "address"
        },
        {
          "indexed": true,
          "internalType": "address",
          "name": "operator",
          "type": "address"
        },
        {
          "indexed": false,
          "internalType": "bool",
          "name": "approved",
          "type": "bool"
        }
      ],
      "name": "ApprovalForAll",
      "type": "event"
    },
    {
      "anonymous": false,
      "inputs": [
        {
          "indexed": false,
          "internalType": "address",
          "name": "",
          "type": "address"
        },
        {
          "indexed": false,
          "internalType": "uint256",
          "name": "",
          "type": "uint256"
        }
      ],
      "name": "OpenseaReceived",
      "type": "event"
    },
    {
      "anonymous": false,
      "inputs": [
        {
          "indexed": false,
          "internalType": "address",
          "name": "account",
          "type": "address"
        }
      ],
      "name": "Paused",
      "type": "event"
    },
    {
      "anonymous": false,
      "inputs": [
        {
          "indexed": false,
          "internalType": "address",
          "name": "",
          "type": "address"
        },
        {
          "indexed": false,
          "internalType": "uint256",
          "name": "",
          "type": "uint256"
        }
      ],
      "name": "RoyaltiesReceived",
      "type": "event"
    },
    {
      "anonymous": false,
      "inputs": [
        {
          "indexed": true,
          "internalType": "address",
          "name": "from",
          "type": "address"
        },
        {
          "indexed": true,
          "internalType": "address",
          "name": "to",
          "type": "address"
        },
        {
          "indexed": true,
          "internalType": "uint256",
          "name": "tokenId",
          "type": "uint256"
        }
      ],
      "name": "Transfer",
      "type": "event"
    },
    {
      "anonymous": false,
      "inputs": [
        {
          "indexed": false,
          "internalType": "address",
          "name": "account",
          "type": "address"
        }
      ],
      "name": "Unpaused",
      "type": "event"
    },
    {
      "inputs": [
        {
          "internalType": "uint256",
          "name": "amount",
          "type": "uint256"
        }
      ],
      "name": "FundRoyalties",
      "outputs": [],
      "stateMutability": "nonpayable",
      "type": "function"
    },
    {
      "inputs": [
        {
          "internalType": "uint256",
          "name": "",
          "type": "uint256"
        }
      ],
      "name": "RoyaltiesClaimablePerCategory",
      "outputs": [
        {
          "internalType": "uint256",
          "name": "",
          "type": "uint256"
        }
      ],
      "stateMutability": "view",
      "type": "function"
    },
    {
      "inputs": [
        {
          "internalType": "uint256",
          "name": "",
          "type": "uint256"
        }
      ],
      "name": "RoyaltiesClaimedPerId",
      "outputs": [
        {
          "internalType": "uint256",
          "name": "",
          "type": "uint256"
        }
      ],
      "stateMutability": "view",
      "type": "function"
    },
    {
      "inputs": [
        {
          "internalType": "string",
          "name": "_categories",
          "type": "string"
        },
        {
          "internalType": "string",
          "name": "_baseUri",
          "type": "string"
        },
        {
          "internalType": "uint256",
          "name": "_price",
          "type": "uint256"
        },
        {
          "internalType": "uint256",
          "name": "_maxSupply",
          "type": "uint256"
        },
        {
          "internalType": "uint256",
          "name": "_percentages",
          "type": "uint256"
        }
      ],
      "name": "addCategory",
      "outputs": [],
      "stateMutability": "nonpayable",
      "type": "function"
    },
    {
      "inputs": [
        {
          "internalType": "address",
          "name": "to",
          "type": "address"
        },
        {
          "internalType": "uint256",
          "name": "tokenId",
          "type": "uint256"
        }
      ],
      "name": "approve",
      "outputs": [],
      "stateMutability": "nonpayable",
      "type": "function"
    },
    {
      "inputs": [],
      "name": "artist",
      "outputs": [
        {
          "internalType": "address",
          "name": "",
          "type": "address"
        }
      ],
      "stateMutability": "view",
      "type": "function"
    },
    {
      "inputs": [
        {
          "internalType": "address",
          "name": "owner",
          "type": "address"
        }
      ],
      "name": "balanceOf",
      "outputs": [
        {
          "internalType": "uint256",
          "name": "",
          "type": "uint256"
        }
      ],
      "stateMutability": "view",
      "type": "function"
    },
    {
      "inputs": [
        {
          "internalType": "uint256",
          "name": "",
          "type": "uint256"
        }
      ],
      "name": "categories",
      "outputs": [
        {
          "internalType": "string",
          "name": "name",
          "type": "string"
        },
        {
          "internalType": "string",
          "name": "baseUri",
          "type": "string"
        },
        {
          "internalType": "uint256",
          "name": "price",
          "type": "uint256"
        },
        {
          "internalType": "uint256",
          "name": "maxSupply",
          "type": "uint256"
        },
        {
          "internalType": "uint256",
          "name": "counterSupply",
          "type": "uint256"
        },
        {
          "internalType": "uint256",
          "name": "percentages",
          "type": "uint256"
        }
      ],
      "stateMutability": "view",
      "type": "function"
    },
    {
      "inputs": [],
      "name": "claimMultipleRoyalties",
      "outputs": [],
      "stateMutability": "nonpayable",
      "type": "function"
    },
    {
      "inputs": [
        {
          "internalType": "uint256",
          "name": "_tokenId",
          "type": "uint256"
        }
      ],
      "name": "claimRoyalties",
      "outputs": [],
      "stateMutability": "nonpayable",
      "type": "function"
    },
    {
      "inputs": [
        {
          "internalType": "address",
          "name": "_to",
          "type": "address"
        },
        {
          "internalType": "uint256",
          "name": "categoryId",
          "type": "uint256"
        },
        {
          "internalType": "uint256",
          "name": "_quantity",
          "type": "uint256"
        }
      ],
      "name": "crossMint",
      "outputs": [],
      "stateMutability": "payable",
      "type": "function"
    },
    {
      "inputs": [
        {
          "internalType": "uint256",
          "name": "tokenId",
          "type": "uint256"
        }
      ],
      "name": "getApproved",
      "outputs": [
        {
          "internalType": "address",
          "name": "",
          "type": "address"
        }
      ],
      "stateMutability": "view",
      "type": "function"
    },
    {
      "inputs": [
        {
          "internalType": "uint256",
          "name": "categoryId",
          "type": "uint256"
        }
      ],
      "name": "getPriceByCategory",
      "outputs": [
        {
          "internalType": "uint256",
          "name": "",
          "type": "uint256"
        }
      ],
      "stateMutability": "view",
      "type": "function"
    },
    {
      "inputs": [
        {
          "internalType": "uint256",
          "name": "_tokenId",
          "type": "uint256"
        }
      ],
      "name": "getRewardsByTokenId",
      "outputs": [
        {
          "internalType": "uint256",
          "name": "",
          "type": "uint256"
        }
      ],
      "stateMutability": "view",
      "type": "function"
    },
    {
      "inputs": [
        {
          "internalType": "address",
          "name": "owner",
          "type": "address"
        },
        {
          "internalType": "address",
          "name": "operator",
          "type": "address"
        }
      ],
      "name": "isApprovedForAll",
      "outputs": [
        {
          "internalType": "bool",
          "name": "",
          "type": "bool"
        }
      ],
      "stateMutability": "view",
      "type": "function"
    },
    {
      "inputs": [
        {
          "internalType": "uint256",
          "name": "_quantity",
          "type": "uint256"
        },
        {
          "internalType": "uint256",
          "name": "categoryId",
          "type": "uint256"
        },
        {
          "internalType": "address",
          "name": "_to",
          "type": "address"
        }
      ],
      "name": "mintUSDC",
      "outputs": [],
      "stateMutability": "payable",
      "type": "function"
    },
    {
      "inputs": [],
      "name": "name",
      "outputs": [
        {
          "internalType": "string",
          "name": "",
          "type": "string"
        }
      ],
      "stateMutability": "view",
      "type": "function"
    },
    {
      "inputs": [
        {
          "internalType": "uint256",
          "name": "tokenId",
          "type": "uint256"
        }
      ],
      "name": "ownerOf",
      "outputs": [
        {
          "internalType": "address",
          "name": "",
          "type": "address"
        }
      ],
      "stateMutability": "view",
      "type": "function"
    },
    {
      "inputs": [],
      "name": "paused",
      "outputs": [
        {
          "internalType": "bool",
          "name": "",
          "type": "bool"
        }
      ],
      "stateMutability": "view",
      "type": "function"
    },
    {
      "inputs": [
        {
          "internalType": "uint256",
          "name": "categoryId",
          "type": "uint256"
        }
      ],
      "name": "removeCategory",
      "outputs": [],
      "stateMutability": "nonpayable",
      "type": "function"
    },
    {
      "inputs": [
        {
          "internalType": "address",
          "name": "from",
          "type": "address"
        },
        {
          "internalType": "address",
          "name": "to",
          "type": "address"
        },
        {
          "internalType": "uint256",
          "name": "tokenId",
          "type": "uint256"
        }
      ],
      "name": "safeTransferFrom",
      "outputs": [],
      "stateMutability": "nonpayable",
      "type": "function"
    },
    {
      "inputs": [
        {
          "internalType": "address",
          "name": "from",
          "type": "address"
        },
        {
          "internalType": "address",
          "name": "to",
          "type": "address"
        },
        {
          "internalType": "uint256",
          "name": "tokenId",
          "type": "uint256"
        },
        {
          "internalType": "bytes",
          "name": "data",
          "type": "bytes"
        }
      ],
      "name": "safeTransferFrom",
      "outputs": [],
      "stateMutability": "nonpayable",
      "type": "function"
    },
    {
      "inputs": [
        {
          "internalType": "address",
          "name": "operator",
          "type": "address"
        },
        {
          "internalType": "bool",
          "name": "approved",
          "type": "bool"
        }
      ],
      "name": "setApprovalForAll",
      "outputs": [],
      "stateMutability": "nonpayable",
      "type": "function"
    },
    {
      "inputs": [],
      "name": "setPaused",
      "outputs": [],
      "stateMutability": "nonpayable",
      "type": "function"
    },
    {
      "inputs": [],
      "name": "setUnPaused",
      "outputs": [],
      "stateMutability": "nonpayable",
      "type": "function"
    },
    {
      "inputs": [
        {
          "internalType": "bytes4",
          "name": "interfaceId",
          "type": "bytes4"
        }
      ],
      "name": "supportsInterface",
      "outputs": [
        {
          "internalType": "bool",
          "name": "",
          "type": "bool"
        }
      ],
      "stateMutability": "view",
      "type": "function"
    },
    {
      "inputs": [],
      "name": "symbol",
      "outputs": [
        {
          "internalType": "string",
          "name": "",
          "type": "string"
        }
      ],
      "stateMutability": "view",
      "type": "function"
    },
    {
      "inputs": [
        {
          "internalType": "uint256",
          "name": "index",
          "type": "uint256"
        }
      ],
      "name": "tokenByIndex",
      "outputs": [
        {
          "internalType": "uint256",
          "name": "",
          "type": "uint256"
        }
      ],
      "stateMutability": "view",
      "type": "function"
    },
    {
      "inputs": [
        {
          "internalType": "address",
          "name": "owner",
          "type": "address"
        },
        {
          "internalType": "uint256",
          "name": "index",
          "type": "uint256"
        }
      ],
      "name": "tokenOfOwnerByIndex",
      "outputs": [
        {
          "internalType": "uint256",
          "name": "",
          "type": "uint256"
        }
      ],
      "stateMutability": "view",
      "type": "function"
    },
    {
      "inputs": [
        {
          "internalType": "uint256",
          "name": "_tokenId",
          "type": "uint256"
        }
      ],
      "name": "tokenURI",
      "outputs": [
        {
          "internalType": "string",
          "name": "",
          "type": "string"
        }
      ],
      "stateMutability": "view",
      "type": "function"
    },
    {
      "inputs": [],
      "name": "totalSupply",
      "outputs": [
        {
          "internalType": "uint256",
          "name": "",
          "type": "uint256"
        }
      ],
      "stateMutability": "view",
      "type": "function"
    },
    {
      "inputs": [
        {
          "internalType": "address",
          "name": "from",
          "type": "address"
        },
        {
          "internalType": "address",
          "name": "to",
          "type": "address"
        },
        {
          "internalType": "uint256",
          "name": "tokenId",
          "type": "uint256"
        }
      ],
      "name": "transferFrom",
      "outputs": [],
      "stateMutability": "nonpayable",
      "type": "function"
    },
    {
      "inputs": [],
      "name": "usdc",
      "outputs": [
        {
          "internalType": "address",
          "name": "",
          "type": "address"
        }
      ],
      "stateMutability": "view",
      "type": "function"
    },
    {
      "inputs": [],
      "name": "withdraw",
      "outputs": [],
      "stateMutability": "payable",
      "type": "function"
    },
    {
      "stateMutability": "payable",
      "type": "receive"
    }
  ],
  "bytecode": "0x6080604052603260135560326014553480156200001b57600080fd5b50604051620035d4380380620035d48339810160408190526200003e916200058d565b60408051808201825260048152631d195cdd60e21b602080830191825283518085019094526002845261151560f21b9084015281519192916200008491600091620002d2565b5080516200009a906001906020840190620002d2565b5050600a805460ff191690555086518851148015620000ba575085518851145b8015620000c8575084518851145b8015620000d6575083518851145b620001335760405162461bcd60e51b8152602060048201526024808201527f416c6c20617272617973206d7573742068617665207468652073616d65206c656044820152630dccee8d60e31b606482015260840160405180910390fd5b60005b88518110156200028857600c6040518060c001604052808b8481518110620001625762000162620006a6565b602002602001015181526020018a8481518110620001845762000184620006a6565b60200260200101518152602001898481518110620001a657620001a6620006a6565b60200260200101518152602001888481518110620001c857620001c8620006a6565b6020026020010151815260200160008152602001878481518110620001f157620001f1620006a6565b6020908102919091018101519091528254600181018455600093845292819020825180519394600602909101926200022d9284920190620002d2565b506020828101518051620002489260018501920190620002d2565b5060408201516002820155606082015160038201556080820151600482015560a090910151600590910155806200027f81620006bc565b91505062000136565b50601080546001600160a01b039485166001600160a01b03199182161790915560128054928516928216929092179091556011805492909316911617905550620007209350505050565b828054620002e090620006e4565b90600052602060002090601f0160209004810192826200030457600085556200034f565b82601f106200031f57805160ff19168380011785556200034f565b828001600101855582156200034f579182015b828111156200034f57825182559160200191906001019062000332565b506200035d92915062000361565b5090565b5b808211156200035d576000815560010162000362565b634e487b7160e01b600052604160045260246000fd5b604051601f8201601f191681016001600160401b0381118282101715620003b957620003b962000378565b604052919050565b60006001600160401b03821115620003dd57620003dd62000378565b5060051b60200190565b6000601f8381840112620003fa57600080fd5b82516020620004136200040d83620003c1565b6200038e565b82815260059290921b850181019181810190878411156200043357600080fd5b8287015b84811015620004f75780516001600160401b0380821115620004595760008081fd5b818a0191508a603f8301126200046f5760008081fd5b858201518181111562000486576200048662000378565b62000499818a01601f191688016200038e565b915080825260408c81838601011115620004b35760008081fd5b60005b82811015620004d3578481018201518482018a01528801620004b6565b82811115620004e55760008984860101525b50505084525091830191830162000437565b50979650505050505050565b600082601f8301126200051557600080fd5b81516020620005286200040d83620003c1565b82815260059290921b840181019181810190868411156200054857600080fd5b8286015b848110156200056557805183529183019183016200054c565b509695505050505050565b80516001600160a01b03811681146200058857600080fd5b919050565b600080600080600080600080610100898b031215620005ab57600080fd5b88516001600160401b0380821115620005c357600080fd5b620005d18c838d01620003e7565b995060208b0151915080821115620005e857600080fd5b620005f68c838d01620003e7565b985060408b01519150808211156200060d57600080fd5b6200061b8c838d0162000503565b975060608b01519150808211156200063257600080fd5b620006408c838d0162000503565b965060808b01519150808211156200065757600080fd5b50620006668b828c0162000503565b9450506200067760a08a0162000570565b92506200068760c08a0162000570565b91506200069760e08a0162000570565b90509295985092959890939650565b634e487b7160e01b600052603260045260246000fd5b600060018201620006dd57634e487b7160e01b600052601160045260246000fd5b5060010190565b600181811c90821680620006f957607f821691505b6020821081036200071a57634e487b7160e01b600052602260045260246000fd5b50919050565b612ea480620007306000396000f3fe6080604052600436106101fd5760003560e01c8063515ec1051161010d57806386ad310f116100a0578063b88d4fde1161006f578063b88d4fde146106b9578063c6cdbe5e146106d9578063c87b56dd1461070b578063e985e9c51461072b578063ecbe483f1461077457600080fd5b806386ad310f1461064457806395d89b4114610664578063a22cb46514610679578063a570f1771461069957600080fd5b80636e4205d2116100dc5780636e4205d2146105c457806370a08231146105d7578063741faee6146105f757806380420b311461062457600080fd5b8063515ec1051461053f578063546b7e0a1461055f5780635c975abb1461058c5780636352211e146105a457600080fd5b80632c8e96ab116101905780633ccfd60b1161015f5780633ccfd60b146104b75780633e413bee146104bf57806342842e0e146104df57806343bc1612146104ff5780634f6ccce71461051f57600080fd5b80632c8e96ab1461044d5780632f745c591461046d578063349fdb091461048d57806337a66d85146104a257600080fd5b806318160ddd116101cc57806318160ddd146103e657806323b872dd14610405578063255f87691461042557806326c02d231461043857600080fd5b806301ffc9a71461033557806306fdde031461036a578063081812fc1461038c578063095ea7b3146103c457600080fd5b36610330576012546013546000916001600160a01b0316906103e89061022390346126c9565b61022d91906126fe565b604051600081818185875af1925050503d8060008114610269576040519150601f19603f3d011682016040523d82523d6000602084013e61026e565b606091505b505090508061027c57600080fd5b6011546014546000916001600160a01b0316906103e89061029d90346126c9565b6102a791906126fe565b604051600081818185875af1925050503d80600081146102e3576040519150601f19603f3d011682016040523d82523d6000602084013e6102e8565b606091505b50509050806102f657600080fd5b604080513381523460208201527f7c6ffa8afa793623698938cd722cf1ed49a5fe661a60f5723fe00cc6f55baeb2910160405180910390a1005b600080fd5b34801561034157600080fd5b50610355610350366004612728565b610794565b60405190151581526020015b60405180910390f35b34801561037657600080fd5b5061037f6107bf565b60405161036191906127a4565b34801561039857600080fd5b506103ac6103a73660046127b7565b610851565b6040516001600160a01b039091168152602001610361565b3480156103d057600080fd5b506103e46103df3660046127ec565b610878565b005b3480156103f257600080fd5b506008545b604051908152602001610361565b34801561041157600080fd5b506103e4610420366004612816565b610992565b6103e4610433366004612852565b6109c3565b34801561044457600080fd5b506103e4610b3a565b34801561045957600080fd5b506103e46104683660046127b7565b610d5e565b34801561047957600080fd5b506103f76104883660046127ec565b610f53565b34801561049957600080fd5b506103e4610fe9565b3480156104ae57600080fd5b506103e461101d565b6103e461104f565b3480156104cb57600080fd5b506010546103ac906001600160a01b031681565b3480156104eb57600080fd5b506103e46104fa366004612816565b6110d1565b34801561050b57600080fd5b506011546103ac906001600160a01b031681565b34801561052b57600080fd5b506103f761053a3660046127b7565b6110ec565b34801561054b57600080fd5b506103f761055a3660046127b7565b61117f565b34801561056b57600080fd5b506103f761057a3660046127b7565b600e6020526000908152604090205481565b34801561059857600080fd5b50600a5460ff16610355565b3480156105b057600080fd5b506103ac6105bf3660046127b7565b6111bb565b6103e46105d2366004612885565b61121b565b3480156105e357600080fd5b506103f76105f23660046128ba565b61136b565b34801561060357600080fd5b506103f76106123660046127b7565b600f6020526000908152604090205481565b34801561063057600080fd5b506103e461063f3660046127b7565b6113f1565b34801561065057600080fd5b506103e461065f3660046127b7565b6114bc565b34801561067057600080fd5b5061037f611704565b34801561068557600080fd5b506103e46106943660046128e3565b611713565b3480156106a557600080fd5b506103f76106b43660046127b7565b61171e565b3480156106c557600080fd5b506103e46106d43660046129a6565b61174c565b3480156106e557600080fd5b506106f96106f43660046127b7565b611784565b60405161036196959493929190612a22565b34801561071757600080fd5b5061037f6107263660046127b7565b6118e0565b34801561073757600080fd5b50610355610746366004612a6d565b6001600160a01b03918216600090815260056020908152604080832093909416825291909152205460ff1690565b34801561078057600080fd5b506103e461078f366004612ac0565b6119ac565b60006001600160e01b0319821663780e9d6360e01b14806107b957506107b982611a9a565b92915050565b6060600080546107ce90612b3f565b80601f01602080910402602001604051908101604052809291908181526020018280546107fa90612b3f565b80156108475780601f1061081c57610100808354040283529160200191610847565b820191906000526020600020905b81548152906001019060200180831161082a57829003601f168201915b5050505050905090565b600061085c82611aea565b506000908152600460205260409020546001600160a01b031690565b6000610883826111bb565b9050806001600160a01b0316836001600160a01b0316036108f55760405162461bcd60e51b815260206004820152602160248201527f4552433732313a20617070726f76616c20746f2063757272656e74206f776e656044820152603960f91b60648201526084015b60405180910390fd5b336001600160a01b038216148061091157506109118133610746565b6109835760405162461bcd60e51b815260206004820152603e60248201527f4552433732313a20617070726f76652063616c6c6572206973206e6f7420746f60448201527f6b656e206f776e6572206e6f7220617070726f76656420666f7220616c6c000060648201526084016108ec565b61098d8383611b49565b505050565b61099c3382611bb7565b6109b85760405162461bcd60e51b81526004016108ec90612b79565b61098d838383611c35565b600c548210610a075760405162461bcd60e51b815260206004820152601060248201526f496e76616c69642063617465676f727960801b60448201526064016108ec565b600c8281548110610a1a57610a1a612bc7565b906000526020600020906006020160040154600c8381548110610a3f57610a3f612bc7565b906000526020600020906006020160030154610a5b9190612bdd565b811115610a9f5760405162461bcd60e51b81526020600482015260126024820152714e6f7420656e6f7567687420737570706c7960701b60448201526064016108ec565b60005b81811015610afb57610abc84610ab7600b5490565b611ddc565b82600d6000610aca600b5490565b8152602081019190915260400160002055610ae9600b80546001019055565b80610af381612bf4565b915050610aa2565b5080600c8381548110610b1057610b10612bc7565b90600052602060002090600602016004016000828254610b309190612c0d565b9091555050505050565b6000610b453361136b565b11610b925760405162461bcd60e51b815260206004820152601a60248201527f796f7520646f206e6f7420706f736573732074686973206e667400000000000060448201526064016108ec565b6000805b610b9f3361136b565b811015610c68576000610bb23383610f53565b6000818152600d6020908152604080832054808452600e835281842054858552600f9093529220549293509091108015610bf957506000818152600e602052604090205415155b15610c53576000828152600f6020908152604080832054848452600e909252822054610c259190612bdd565b9050610c318186612c0d565b6000838152600e6020908152604080832054878452600f909252909120559450505b50508080610c6090612bf4565b915050610b96565b5060008111610cc55760405162461bcd60e51b8152602060048201526024808201527f796f7520616c726561647920636c61696d656420616c6c20796f7572207265776044820152636172647360e01b60648201526084016108ec565b60105460405163a9059cbb60e01b8152336004820152602481018390526000916001600160a01b03169063a9059cbb906044016020604051808303816000875af1158015610d17573d6000803e3d6000fd5b505050506040513d601f19601f82011682018060405250810190610d3b9190612c25565b905080610d5a5760405162461bcd60e51b81526004016108ec90612c42565b5050565b6011546001600160a01b03163314610d885760405162461bcd60e51b81526004016108ec90612c8d565b60008111610dcc5760405162461bcd60e51b81526020600482015260116024820152700616d6f756e742063616e2774206265203607c1b60448201526064016108ec565b6010546040516323b872dd60e01b8152336004820152306024820152604481018390526000916001600160a01b0316906323b872dd906064016020604051808303816000875af1158015610e24573d6000803e3d6000fd5b505050506040513d601f19601f82011682018060405250810190610e489190612c25565b905080610e675760405162461bcd60e51b81526004016108ec90612c42565b60005b600c54811015610f15576064600c8281548110610e8957610e89612bc7565b906000526020600020906006020160030154600c8381548110610eae57610eae612bc7565b90600052602060002090600602016005015485610ecb91906126c9565b610ed591906126fe565b610edf91906126fe565b6000828152600e602052604081208054909190610efd908490612c0d565b90915550819050610f0d81612bf4565b915050610e6a565b5060408051338152602081018490527f332c3fd68e199528deb4a5631f1c91795464d13656d118e824c5da4f75ea83e5910160405180910390a15050565b6000610f5e8361136b565b8210610fc05760405162461bcd60e51b815260206004820152602b60248201527f455243373231456e756d657261626c653a206f776e657220696e646578206f7560448201526a74206f6620626f756e647360a81b60648201526084016108ec565b506001600160a01b03919091166000908152600660209081526040808320938352929052205490565b6011546001600160a01b031633146110135760405162461bcd60e51b81526004016108ec90612c8d565b61101b611df6565b565b6011546001600160a01b031633146110475760405162461bcd60e51b81526004016108ec90612c8d565b61101b611e48565b6011546001600160a01b031633146110795760405162461bcd60e51b81526004016108ec90612c8d565b604051600090339047908381818185875af1925050503d80600081146110bb576040519150601f19603f3d011682016040523d82523d6000602084013e6110c0565b606091505b50509050806110ce57600080fd5b50565b61098d8383836040518060200160405280600081525061174c565b60006110f760085490565b821061115a5760405162461bcd60e51b815260206004820152602c60248201527f455243373231456e756d657261626c653a20676c6f62616c20696e646578206f60448201526b7574206f6620626f756e647360a01b60648201526084016108ec565b6008828154811061116d5761116d612bc7565b90600052602060002001549050919050565b6000818152600d6020908152604080832054600f835281842054818552600e90935290832054909183916111b39190612bdd565b949350505050565b6000818152600260205260408120546001600160a01b0316806107b95760405162461bcd60e51b8152602060048201526018602482015277115490cdcc8c4e881a5b9d985b1a59081d1bdad95b88125160421b60448201526064016108ec565b611223611e85565b600c5482106112675760405162461bcd60e51b815260206004820152601060248201526f496e76616c69642063617465676f727960801b60448201526064016108ec565b600c828154811061127a5761127a612bc7565b906000526020600020906006020160040154600c838154811061129f5761129f612bc7565b9060005260206000209060060201600301546112bb9190612bdd565b8311156112ff5760405162461bcd60e51b81526020600482015260126024820152714e6f7420656e6f7567687420737570706c7960701b60448201526064016108ec565b60005b838110156113565761131782610ab7600b5490565b82600d6000611325600b5490565b8152602081019190915260400160002055611344600b80546001019055565b8061134e81612bf4565b915050611302565b5082600c8381548110610b1057610b10612bc7565b60006001600160a01b0382166113d55760405162461bcd60e51b815260206004820152602960248201527f4552433732313a2061646472657373207a65726f206973206e6f7420612076616044820152683634b21037bbb732b960b91b60648201526084016108ec565b506001600160a01b031660009081526003602052604090205490565b6011546001600160a01b0316331461141b5760405162461bcd60e51b81526004016108ec90612c8d565b600c5481106114605760405162461bcd60e51b8152602060048201526011602482015270092dcc8caf040d2e640e8dede40d0d2ced607b1b60448201526064016108ec565b600c818154811061147357611473612bc7565b6000918252602082206006909102019061148d82826125e0565b61149b6001830160006125e0565b50600060028201819055600382018190556004820181905560059091015550565b60085481106115045760405162461bcd60e51b81526020600482015260146024820152731d1a1a5cc81a5908191bc81b9bdd08195e1a5cdd60621b60448201526064016108ec565b6000818152600d60205260409020543361151d836111bb565b6001600160a01b03161461156b5760405162461bcd60e51b81526020600482015260156024820152741b9bdd081bdddb995c881bd9881d1a1a5cc8139195605a1b60448201526064016108ec565b6000818152600e60205260409020546115b75760405162461bcd60e51b815260206004820152600e60248201526d139bc814995dd85c991cc816595d60921b60448201526064016108ec565b6000818152600e6020908152604080832054858452600f90925290912054106116225760405162461bcd60e51b815260206004820152601f60248201527f596f7520616c726561647920636c61696d656420796f7572207265776172640060448201526064016108ec565b6000828152600f6020908152604080832054848452600e9092528220546116499190612bdd565b60105460405163a9059cbb60e01b8152336004820152602481018390529192506000916001600160a01b039091169063a9059cbb906044016020604051808303816000875af11580156116a0573d6000803e3d6000fd5b505050506040513d601f19601f820116820180604052508101906116c49190612c25565b9050806116e35760405162461bcd60e51b81526004016108ec90612c42565b50506000908152600e6020908152604080832054938352600f909152902055565b6060600180546107ce90612b3f565b610d5a338383611ecb565b6000600c828154811061173357611733612bc7565b9060005260206000209060060201600201549050919050565b6117563383611bb7565b6117725760405162461bcd60e51b81526004016108ec90612b79565b61177e84848484611f99565b50505050565b600c818154811061179457600080fd5b90600052602060002090600602016000915090508060000180546117b790612b3f565b80601f01602080910402602001604051908101604052809291908181526020018280546117e390612b3f565b80156118305780601f1061180557610100808354040283529160200191611830565b820191906000526020600020905b81548152906001019060200180831161181357829003601f168201915b50505050509080600101805461184590612b3f565b80601f016020809104026020016040519081016040528092919081815260200182805461187190612b3f565b80156118be5780601f10611893576101008083540402835291602001916118be565b820191906000526020600020905b8154815290600101906020018083116118a157829003601f168201915b5050505050908060020154908060030154908060040154908060050154905086565b6000818152600260205260409020546060906001600160a01b03166119475760405162461bcd60e51b815260206004820152601f60248201527f55524920717565727920666f72206e6f6e6578697374656e7420746f6b656e0060448201526064016108ec565b6000828152600d6020526040902054600c80548290811061196a5761196a612bc7565b906000526020600020906006020160010161198484611fcc565b604051602001611995929190612cde565b604051602081830303815290604052915050919050565b6011546001600160a01b031633146119d65760405162461bcd60e51b81526004016108ec90612c8d565b6040805160c08101825286815260208082018790529181018590526060810184905260006080820181905260a08201849052600c8054600181018255915281518051929360069092027fdf6966c971051c3d54ec59162606531493a51404a002842f56009d7e5cf4a8c70192611a4f928492019061261a565b506020828101518051611a68926001850192019061261a565b5060408201518160020155606082015181600301556080820151816004015560a0820151816005015550505050505050565b60006001600160e01b031982166380ac58cd60e01b1480611acb57506001600160e01b03198216635b5e139f60e01b145b806107b957506301ffc9a760e01b6001600160e01b03198316146107b9565b6000818152600260205260409020546001600160a01b03166110ce5760405162461bcd60e51b8152602060048201526018602482015277115490cdcc8c4e881a5b9d985b1a59081d1bdad95b88125160421b60448201526064016108ec565b600081815260046020526040902080546001600160a01b0319166001600160a01b0384169081179091558190611b7e826111bb565b6001600160a01b03167f8c5be1e5ebec7d5bd14f71427d1e84f3dd0314c0f7b2291e5b200ac8c7c3b92560405160405180910390a45050565b600080611bc3836111bb565b9050806001600160a01b0316846001600160a01b03161480611c0a57506001600160a01b0380821660009081526005602090815260408083209388168352929052205460ff165b806111b35750836001600160a01b0316611c2384610851565b6001600160a01b031614949350505050565b826001600160a01b0316611c48826111bb565b6001600160a01b031614611cac5760405162461bcd60e51b815260206004820152602560248201527f4552433732313a207472616e736665722066726f6d20696e636f72726563742060448201526437bbb732b960d91b60648201526084016108ec565b6001600160a01b038216611d0e5760405162461bcd60e51b8152602060048201526024808201527f4552433732313a207472616e7366657220746f20746865207a65726f206164646044820152637265737360e01b60648201526084016108ec565b611d198383836120cd565b611d24600082611b49565b6001600160a01b0383166000908152600360205260408120805460019290611d4d908490612bdd565b90915550506001600160a01b0382166000908152600360205260408120805460019290611d7b908490612c0d565b909155505060008181526002602052604080822080546001600160a01b0319166001600160a01b0386811691821790925591518493918716917fddf252ad1be2c89b69c2b068fc378daa952ba7f163c4a11628f55a4df523b3ef91a4505050565b610d5a828260405180602001604052806000815250612185565b611dfe6121b8565b600a805460ff191690557f5db9ee0a495bf2e6ff9c91a7834c1ba4fdd244a5e8aa4e537bd38aeae4b073aa335b6040516001600160a01b03909116815260200160405180910390a1565b611e50611e85565b600a805460ff191660011790557f62e78cea01bee320cd4e420270b5ea74000d11b0c9f74754ebdbfc544b05a258611e2b3390565b600a5460ff161561101b5760405162461bcd60e51b815260206004820152601060248201526f14185d5cd8589b194e881c185d5cd95960821b60448201526064016108ec565b816001600160a01b0316836001600160a01b031603611f2c5760405162461bcd60e51b815260206004820152601960248201527f4552433732313a20617070726f766520746f2063616c6c65720000000000000060448201526064016108ec565b6001600160a01b03838116600081815260056020908152604080832094871680845294825291829020805460ff191686151590811790915591519182527f17307eab39ab6107e8899845ad3d59bd9653f200f220920489ca2b5937696c31910160405180910390a3505050565b611fa4848484611c35565b611fb084848484612201565b61177e5760405162461bcd60e51b81526004016108ec90612d98565b606081600003611ff35750506040805180820190915260018152600360fc1b602082015290565b8160005b811561201d578061200781612bf4565b91506120169050600a836126fe565b9150611ff7565b60008167ffffffffffffffff8111156120385761203861291a565b6040519080825280601f01601f191660200182016040528015612062576020820181803683370190505b5090505b84156111b357612077600183612bdd565b9150612084600a86612dea565b61208f906030612c0d565b60f81b8183815181106120a4576120a4612bc7565b60200101906001600160f81b031916908160001a9053506120c6600a866126fe565b9450612066565b6001600160a01b0383166121285761212381600880546000838152600960205260408120829055600182018355919091527ff3f7a9fe364faab93b216da50a3214154f22a0a2b415b23a84c8169e8b636ee30155565b61214b565b816001600160a01b0316836001600160a01b03161461214b5761214b8382612302565b6001600160a01b0382166121625761098d8161239f565b826001600160a01b0316826001600160a01b03161461098d5761098d828261244e565b61218f8383612492565b61219c6000848484612201565b61098d5760405162461bcd60e51b81526004016108ec90612d98565b600a5460ff1661101b5760405162461bcd60e51b815260206004820152601460248201527314185d5cd8589b194e881b9bdd081c185d5cd95960621b60448201526064016108ec565b60006001600160a01b0384163b156122f757604051630a85bd0160e11b81526001600160a01b0385169063150b7a0290612245903390899088908890600401612dfe565b6020604051808303816000875af1925050508015612280575060408051601f3d908101601f1916820190925261227d91810190612e3b565b60015b6122dd573d8080156122ae576040519150601f19603f3d011682016040523d82523d6000602084013e6122b3565b606091505b5080516000036122d55760405162461bcd60e51b81526004016108ec90612d98565b805181602001fd5b6001600160e01b031916630a85bd0160e11b1490506111b3565b506001949350505050565b6000600161230f8461136b565b6123199190612bdd565b60008381526007602052604090205490915080821461236c576001600160a01b03841660009081526006602090815260408083208584528252808320548484528184208190558352600790915290208190555b5060009182526007602090815260408084208490556001600160a01b039094168352600681528383209183525290812055565b6008546000906123b190600190612bdd565b600083815260096020526040812054600880549394509092849081106123d9576123d9612bc7565b9060005260206000200154905080600883815481106123fa576123fa612bc7565b600091825260208083209091019290925582815260099091526040808220849055858252812055600880548061243257612432612e58565b6001900381819060005260206000200160009055905550505050565b60006124598361136b565b6001600160a01b039093166000908152600660209081526040808320868452825280832085905593825260079052919091209190915550565b6001600160a01b0382166124e85760405162461bcd60e51b815260206004820181905260248201527f4552433732313a206d696e7420746f20746865207a65726f206164647265737360448201526064016108ec565b6000818152600260205260409020546001600160a01b03161561254d5760405162461bcd60e51b815260206004820152601c60248201527f4552433732313a20746f6b656e20616c7265616479206d696e7465640000000060448201526064016108ec565b612559600083836120cd565b6001600160a01b0382166000908152600360205260408120805460019290612582908490612c0d565b909155505060008181526002602052604080822080546001600160a01b0319166001600160a01b03861690811790915590518392907fddf252ad1be2c89b69c2b068fc378daa952ba7f163c4a11628f55a4df523b3ef908290a45050565b5080546125ec90612b3f565b6000825580601f106125fc575050565b601f0160209004906000526020600020908101906110ce919061269e565b82805461262690612b3f565b90600052602060002090601f016020900481019282612648576000855561268e565b82601f1061266157805160ff191683800117855561268e565b8280016001018555821561268e579182015b8281111561268e578251825591602001919060010190612673565b5061269a92915061269e565b5090565b5b8082111561269a576000815560010161269f565b634e487b7160e01b600052601160045260246000fd5b60008160001904831182151516156126e3576126e36126b3565b500290565b634e487b7160e01b600052601260045260246000fd5b60008261270d5761270d6126e8565b500490565b6001600160e01b0319811681146110ce57600080fd5b60006020828403121561273a57600080fd5b813561274581612712565b9392505050565b60005b8381101561276757818101518382015260200161274f565b8381111561177e5750506000910152565b6000815180845261279081602086016020860161274c565b601f01601f19169290920160200192915050565b6020815260006127456020830184612778565b6000602082840312156127c957600080fd5b5035919050565b80356001600160a01b03811681146127e757600080fd5b919050565b600080604083850312156127ff57600080fd5b612808836127d0565b946020939093013593505050565b60008060006060848603121561282b57600080fd5b612834846127d0565b9250612842602085016127d0565b9150604084013590509250925092565b60008060006060848603121561286757600080fd5b612870846127d0565b95602085013595506040909401359392505050565b60008060006060848603121561289a57600080fd5b83359250602084013591506128b1604085016127d0565b90509250925092565b6000602082840312156128cc57600080fd5b612745826127d0565b80151581146110ce57600080fd5b600080604083850312156128f657600080fd5b6128ff836127d0565b9150602083013561290f816128d5565b809150509250929050565b634e487b7160e01b600052604160045260246000fd5b600067ffffffffffffffff8084111561294b5761294b61291a565b604051601f8501601f19908116603f011681019082821181831017156129735761297361291a565b8160405280935085815286868601111561298c57600080fd5b858560208301376000602087830101525050509392505050565b600080600080608085870312156129bc57600080fd5b6129c5856127d0565b93506129d3602086016127d0565b925060408501359150606085013567ffffffffffffffff8111156129f657600080fd5b8501601f81018713612a0757600080fd5b612a1687823560208401612930565b91505092959194509250565b60c081526000612a3560c0830189612778565b8281036020840152612a478189612778565b9150508560408301528460608301528360808301528260a0830152979650505050505050565b60008060408385031215612a8057600080fd5b612a89836127d0565b9150612a97602084016127d0565b90509250929050565b600082601f830112612ab157600080fd5b61274583833560208501612930565b600080600080600060a08688031215612ad857600080fd5b853567ffffffffffffffff80821115612af057600080fd5b612afc89838a01612aa0565b96506020880135915080821115612b1257600080fd5b50612b1f88828901612aa0565b959895975050505060408401359360608101359360809091013592509050565b600181811c90821680612b5357607f821691505b602082108103612b7357634e487b7160e01b600052602260045260246000fd5b50919050565b6020808252602e908201527f4552433732313a2063616c6c6572206973206e6f7420746f6b656e206f776e6560408201526d1c881b9bdc88185c1c1c9bdd995960921b606082015260800190565b634e487b7160e01b600052603260045260246000fd5b600082821015612bef57612bef6126b3565b500390565b600060018201612c0657612c066126b3565b5060010190565b60008219821115612c2057612c206126b3565b500190565b600060208284031215612c3757600080fd5b8151612745816128d5565b6020808252602b908201527f436f756c64206e6f74207472616e7366657220746f6b656e2e204d697373696e60408201526a6720617070726f76616c3f60a81b606082015260800190565b6020808252818101527f4f776e61626c653a2063616c6c6572206973206e6f7420746865206f776e6572604082015260600190565b60008151612cd481856020860161274c565b9290920192915050565b600080845481600182811c915080831680612cfa57607f831692505b60208084108203612d1957634e487b7160e01b86526022600452602486fd5b818015612d2d5760018114612d3e57612d6b565b60ff19861689528489019650612d6b565b60008b81526020902060005b86811015612d635781548b820152908501908301612d4a565b505084890196505b505050505050612d8f612d7e8286612cc2565b64173539b7b760d91b815260050190565b95945050505050565b60208082526032908201527f4552433732313a207472616e7366657220746f206e6f6e20455243373231526560408201527131b2b4bb32b91034b6b83632b6b2b73a32b960711b606082015260800190565b600082612df957612df96126e8565b500690565b6001600160a01b0385811682528416602082015260408101839052608060608201819052600090612e3190830184612778565b9695505050505050565b600060208284031215612e4d57600080fd5b815161274581612712565b634e487b7160e01b600052603160045260246000fdfea264697066735822122087e4bba5fbfe5caefa384f4f58b1f940b36e1d89bdd161aa2f035d29934279b964736f6c634300080e0033",
  "linkReferences": {},
  "deployedLinkReferences": {}
}