{
  "_format": "hh-sol-artifact-1",
  "contractName": "FactoryERC721",
  "sourceName": "contracts/factory.sol",
  "abi": [
    {
      "anonymous": false,
      "inputs": [
        {
          "indexed": false,
          "internalType": "address",
          "name": "addr",
          "type": "address"
        },
        {
          "indexed": false,
          "internalType": "uint256",
          "name": "salt",
          "type": "uint256"
        }
      ],
      "name": "Deployed",
      "type": "event"
    },
    {
      "inputs": [
        {
          "internalType": "address payable",
          "name": "_contract",
          "type": "address"
        },
        {
          "internalType": "address",
          "name": "_to",
          "type": "address"
        },
        {
          "internalType": "uint256",
          "name": "_category",
          "type": "uint256"
        },
        {
          "internalType": "uint256",
          "name": "_amount",
          "type": "uint256"
        }
      ],
      "name": "crossMintFactory",
      "outputs": [],
      "stateMutability": "payable",
      "type": "function"
    },
    {
      "inputs": [
        {
          "internalType": "bytes",
          "name": "bytecode",
          "type": "bytes"
        },
        {
          "internalType": "uint256",
          "name": "_salt",
          "type": "uint256"
        }
      ],
      "name": "deploy",
      "outputs": [
        {
          "internalType": "address",
          "name": "",
          "type": "address"
        }
      ],
      "stateMutability": "payable",
      "type": "function"
    },
    {
      "inputs": [
        {
          "internalType": "bytes",
          "name": "bytecode",
          "type": "bytes"
        },
        {
          "internalType": "uint256",
          "name": "_salt",
          "type": "uint256"
        }
      ],
      "name": "getAddress",
      "outputs": [
        {
          "internalType": "address",
          "name": "",
          "type": "address"
        }
      ],
      "stateMutability": "view",
      "type": "function"
    },
    {
      "inputs": [
        {
          "internalType": "string[]",
          "name": "_categories",
          "type": "string[]"
        },
        {
          "internalType": "string[]",
          "name": "_baseUri",
          "type": "string[]"
        },
        {
          "internalType": "uint256[]",
          "name": "_price",
          "type": "uint256[]"
        },
        {
          "internalType": "uint256[]",
          "name": "_maxSupply",
          "type": "uint256[]"
        },
        {
          "internalType": "uint256[]",
          "name": "_percentages",
          "type": "uint256[]"
        },
        {
          "internalType": "address",
          "name": "_usdc",
          "type": "address"
        },
        {
          "internalType": "address",
          "name": "_investor",
          "type": "address"
        },
        {
          "internalType": "address",
          "name": "_artist",
          "type": "address"
        }
      ],
      "name": "getBytecode",
      "outputs": [
        {
          "internalType": "bytes",
          "name": "",
          "type": "bytes"
        }
      ],
      "stateMutability": "pure",
      "type": "function"
    },
    {
      "inputs": [
        {
          "internalType": "address payable",
          "name": "_contract",
          "type": "address"
        },
        {
          "internalType": "address",
          "name": "_usdc",
          "type": "address"
        },
        {
          "internalType": "uint256",
          "name": "_quantity",
          "type": "uint256"
        },
        {
          "internalType": "uint256",
          "name": "categoryId",
          "type": "uint256"
        }
      ],
      "name": "mintUSDCFactory",
      "outputs": [],
      "stateMutability": "payable",
      "type": "function"
    }
  ],
  "bytecode": "0x608060405234801561001057600080fd5b5061418e806100206000396000f3fe608060405260043610620000505760003560e01c80634dbb1e4614620000555780637470a490146200006e57806394ca2cb514620000ab5780639c4ae2d0146200013f578063a84bd3981462000156575b600080fd5b6200006c62000066366004620005af565b6200016d565b005b3480156200007b57600080fd5b50620000936200008d366004620007dc565b62000253565b604051620000a2919062000957565b60405180910390f35b348015620000b857600080fd5b5062000126620000ca36600462000973565b8151602092830120604080516001600160f81b0319818601523060601b6bffffffffffffffffffffffff191660218201526035810193909352605580840192909252805180840390920182526075909201909152805191012090565b6040516001600160a01b039091168152602001620000a2565b620001266200015036600462000973565b620002df565b6200006c62000167366004620005af565b62000342565b73da30ee0788276c093e686780c25f6c94310272343314620001e25760405162461bcd60e51b8152602060048201526024808201527f546869732066756e6374696f6e20697320666f722043726f73736d696e74206f60448201526337363c9760e11b60648201526084015b60405180910390fd5b60405163255f876960e01b81526001600160a01b038481166004830152602482018490526044820183905285169063255f876990606401600060405180830381600087803b1580156200023457600080fd5b505af115801562000249573d6000803e3d6000fd5b5050505050505050565b6060600060405180602001620002699062000576565b6020820181038252601f19601f820116604052509050808a8a8a8a8a8a8a8a604051602001620002a198979695949392919062000a67565b60408051601f1981840301815290829052620002c1929160200162000b03565b60405160208183030381529060405291505098975050505050505050565b6000808284516020860134f59050803b620002f957600080fd5b604080516001600160a01b0383168152602081018590527fb03c53b28e78a88e31607a27e1fa48234dce28d5d9d9ec7b295aeb02e674a1e1910160405180910390a19392505050565b60405163a570f17760e01b8152600481018290526000906001600160a01b0386169063a570f17790602401602060405180830381865afa1580156200038b573d6000803e3d6000fd5b505050506040513d601f19601f82011682018060405250810190620003b1919062000b36565b9050620003bf818462000b50565b6040516370a0823160e01b81523360048201526001600160a01b038616906370a0823190602401602060405180830381865afa15801562000404573d6000803e3d6000fd5b505050506040513d601f19601f820116820180604052508101906200042a919062000b36565b10156200046d5760405162461bcd60e51b815260206004820152601060248201526f4e6f7420656e6f75676874205553444360801b6044820152606401620001d9565b6001600160a01b0384166323b872dd33876200048a858862000b50565b6040516001600160e01b031960e086901b1681526001600160a01b03938416600482015292909116602483015260448201526064016020604051808303816000875af1158015620004df573d6000803e3d6000fd5b505050506040513d601f19601f8201168201806040525081019062000505919062000b7e565b5060405163372102e960e11b815260048101849052602481018390523360448201526001600160a01b03861690636e4205d290606401600060405180830381600087803b1580156200055657600080fd5b505af11580156200056b573d6000803e3d6000fd5b505050505050505050565b6135b68062000ba383390190565b6001600160a01b03811681146200059a57600080fd5b50565b8035620005aa8162000584565b919050565b60008060008060808587031215620005c657600080fd5b8435620005d38162000584565b93506020850135620005e58162000584565b93969395505050506040820135916060013590565b634e487b7160e01b600052604160045260246000fd5b604051601f8201601f1916810167ffffffffffffffff811182821017156200063c576200063c620005fa565b604052919050565b600067ffffffffffffffff821115620006615762000661620005fa565b5060051b60200190565b600067ffffffffffffffff831115620006885762000688620005fa565b6200069d601f8401601f191660200162000610565b9050828152838383011115620006b257600080fd5b828260208301376000602084830101529392505050565b600082601f830112620006db57600080fd5b81356020620006f4620006ee8362000644565b62000610565b82815260059290921b840181019181810190868411156200071457600080fd5b8286015b848110156200076f57803567ffffffffffffffff8111156200073a5760008081fd5b8701603f810189136200074d5760008081fd5b620007608986830135604084016200066b565b84525091830191830162000718565b509695505050505050565b600082601f8301126200078c57600080fd5b813560206200079f620006ee8362000644565b82815260059290921b84018101918181019086841115620007bf57600080fd5b8286015b848110156200076f5780358352918301918301620007c3565b600080600080600080600080610100898b031215620007fa57600080fd5b883567ffffffffffffffff808211156200081357600080fd5b620008218c838d01620006c9565b995060208b01359150808211156200083857600080fd5b620008468c838d01620006c9565b985060408b01359150808211156200085d57600080fd5b6200086b8c838d016200077a565b975060608b01359150808211156200088257600080fd5b620008908c838d016200077a565b965060808b0135915080821115620008a757600080fd5b50620008b68b828c016200077a565b945050620008c760a08a016200059d565b9250620008d760c08a016200059d565b9150620008e760e08a016200059d565b90509295985092959890939650565b60005b8381101562000913578181015183820152602001620008f9565b8381111562000923576000848401525b50505050565b6000815180845262000943816020860160208601620008f6565b601f01601f19169290920160200192915050565b6020815260006200096c602083018462000929565b9392505050565b600080604083850312156200098757600080fd5b823567ffffffffffffffff8111156200099f57600080fd5b8301601f81018513620009b157600080fd5b620009c2858235602084016200066b565b95602094909401359450505050565b600081518084526020808501808196508360051b8101915082860160005b8581101562000a1d57828403895262000a0a84835162000929565b98850198935090840190600101620009ef565b5091979650505050505050565b600081518084526020808501945080840160005b8381101562000a5c5781518752958201959082019060010162000a3e565b509495945050505050565b600061010080835262000a7d8184018c620009d1565b9050828103602084015262000a93818b620009d1565b9050828103604084015262000aa9818a62000a2a565b9050828103606084015262000abf818962000a2a565b9050828103608084015262000ad5818862000a2a565b6001600160a01b0396871660a085015294861660c08401525050921660e09092019190915295945050505050565b6000835162000b17818460208801620008f6565b83519083019062000b2d818360208801620008f6565b01949350505050565b60006020828403121562000b4957600080fd5b5051919050565b600081600019048311821515161562000b7957634e487b7160e01b600052601160045260246000fd5b500290565b60006020828403121562000b9157600080fd5b815180151581146200096c57600080fdfe6080604052603260135560326014553480156200001b57600080fd5b50604051620035b6380380620035b68339810160408190526200003e916200058d565b60408051808201825260048152631d195cdd60e21b602080830191825283518085019094526002845261151560f21b9084015281519192916200008491600091620002d2565b5080516200009a906001906020840190620002d2565b5050600a805460ff191690555086518851148015620000ba575085518851145b8015620000c8575084518851145b8015620000d6575083518851145b620001335760405162461bcd60e51b8152602060048201526024808201527f416c6c20617272617973206d7573742068617665207468652073616d65206c656044820152630dccee8d60e31b606482015260840160405180910390fd5b60005b88518110156200028857600c6040518060c001604052808b8481518110620001625762000162620006a6565b602002602001015181526020018a8481518110620001845762000184620006a6565b60200260200101518152602001898481518110620001a657620001a6620006a6565b60200260200101518152602001888481518110620001c857620001c8620006a6565b6020026020010151815260200160008152602001878481518110620001f157620001f1620006a6565b6020908102919091018101519091528254600181018455600093845292819020825180519394600602909101926200022d9284920190620002d2565b506020828101518051620002489260018501920190620002d2565b5060408201516002820155606082015160038201556080820151600482015560a090910151600590910155806200027f81620006bc565b91505062000136565b50601080546001600160a01b039485166001600160a01b03199182161790915560128054928516928216929092179091556011805492909316911617905550620007209350505050565b828054620002e090620006e4565b90600052602060002090601f0160209004810192826200030457600085556200034f565b82601f106200031f57805160ff19168380011785556200034f565b828001600101855582156200034f579182015b828111156200034f57825182559160200191906001019062000332565b506200035d92915062000361565b5090565b5b808211156200035d576000815560010162000362565b634e487b7160e01b600052604160045260246000fd5b604051601f8201601f191681016001600160401b0381118282101715620003b957620003b962000378565b604052919050565b60006001600160401b03821115620003dd57620003dd62000378565b5060051b60200190565b6000601f8381840112620003fa57600080fd5b82516020620004136200040d83620003c1565b6200038e565b82815260059290921b850181019181810190878411156200043357600080fd5b8287015b84811015620004f75780516001600160401b0380821115620004595760008081fd5b818a0191508a603f8301126200046f5760008081fd5b858201518181111562000486576200048662000378565b62000499818a01601f191688016200038e565b915080825260408c81838601011115620004b35760008081fd5b60005b82811015620004d3578481018201518482018a01528801620004b6565b82811115620004e55760008984860101525b50505084525091830191830162000437565b50979650505050505050565b600082601f8301126200051557600080fd5b81516020620005286200040d83620003c1565b82815260059290921b840181019181810190868411156200054857600080fd5b8286015b848110156200056557805183529183019183016200054c565b509695505050505050565b80516001600160a01b03811681146200058857600080fd5b919050565b600080600080600080600080610100898b031215620005ab57600080fd5b88516001600160401b0380821115620005c357600080fd5b620005d18c838d01620003e7565b995060208b0151915080821115620005e857600080fd5b620005f68c838d01620003e7565b985060408b01519150808211156200060d57600080fd5b6200061b8c838d0162000503565b975060608b01519150808211156200063257600080fd5b620006408c838d0162000503565b965060808b01519150808211156200065757600080fd5b50620006668b828c0162000503565b9450506200067760a08a0162000570565b92506200068760c08a0162000570565b91506200069760e08a0162000570565b90509295985092959890939650565b634e487b7160e01b600052603260045260246000fd5b600060018201620006dd57634e487b7160e01b600052601160045260246000fd5b5060010190565b600181811c90821680620006f957607f821691505b6020821081036200071a57634e487b7160e01b600052602260045260246000fd5b50919050565b612e8680620007306000396000f3fe6080604052600436106101f25760003560e01c8063546b7e0a1161010d57806395d89b41116100a0578063b88d4fde1161006f578063b88d4fde1461068e578063c6cdbe5e146106ae578063c87b56dd146106e0578063e985e9c514610700578063ecbe483f1461074957600080fd5b806395d89b4114610619578063a22cb4651461062e578063a570f1771461064e578063b75896641461066e57600080fd5b806370a08231116100dc57806370a082311461058c578063741faee6146105ac57806380420b31146105d957806386ad310f146105f957600080fd5b8063546b7e0a146105145780635c975abb146105415780636352211e146105595780636e4205d21461057957600080fd5b80632f745c59116101855780633e413bee116101545780633e413bee1461049457806342842e0e146104b457806343bc1612146104d45780634f6ccce7146104f457600080fd5b80632f745c5914610442578063349fdb091461046257806337a66d85146104775780633ccfd60b1461048c57600080fd5b806318160ddd116101c157806318160ddd146103db57806323b872dd146103fa578063255f87691461041a57806326c02d231461042d57600080fd5b806301ffc9a71461032a57806306fdde031461035f578063081812fc14610381578063095ea7b3146103b957600080fd5b36610325576012546013546000916001600160a01b0316906103e8906102189034612685565b61022291906126ba565b604051600081818185875af1925050503d806000811461025e576040519150601f19603f3d011682016040523d82523d6000602084013e610263565b606091505b505090508061027157600080fd5b6011546014546000916001600160a01b0316906103e8906102929034612685565b61029c91906126ba565b604051600081818185875af1925050503d80600081146102d8576040519150601f19603f3d011682016040523d82523d6000602084013e6102dd565b606091505b50509050806102eb57600080fd5b604080513381523460208201527f7c6ffa8afa793623698938cd722cf1ed49a5fe661a60f5723fe00cc6f55baeb2910160405180910390a1005b600080fd5b34801561033657600080fd5b5061034a6103453660046126e4565b610769565b60405190151581526020015b60405180910390f35b34801561036b57600080fd5b50610374610794565b6040516103569190612760565b34801561038d57600080fd5b506103a161039c366004612773565b610826565b6040516001600160a01b039091168152602001610356565b3480156103c557600080fd5b506103d96103d43660046127a8565b61084d565b005b3480156103e757600080fd5b506008545b604051908152602001610356565b34801561040657600080fd5b506103d96104153660046127d2565b610967565b6103d961042836600461280e565b610998565b34801561043957600080fd5b506103d9610b0f565b34801561044e57600080fd5b506103ec61045d3660046127a8565b610d39565b34801561046e57600080fd5b506103d9610dcf565b34801561048357600080fd5b506103d9610e03565b6103d9610e35565b3480156104a057600080fd5b506010546103a1906001600160a01b031681565b3480156104c057600080fd5b506103d96104cf3660046127d2565b610eb7565b3480156104e057600080fd5b506011546103a1906001600160a01b031681565b34801561050057600080fd5b506103ec61050f366004612773565b610ed2565b34801561052057600080fd5b506103ec61052f366004612773565b600e6020526000908152604090205481565b34801561054d57600080fd5b50600a5460ff1661034a565b34801561056557600080fd5b506103a1610574366004612773565b610f65565b6103d9610587366004612841565b610fc5565b34801561059857600080fd5b506103ec6105a7366004612876565b611115565b3480156105b857600080fd5b506103ec6105c7366004612773565b600f6020526000908152604090205481565b3480156105e557600080fd5b506103d96105f4366004612773565b61119b565b34801561060557600080fd5b506103d9610614366004612773565b611266565b34801561062557600080fd5b506103746114b4565b34801561063a57600080fd5b506103d961064936600461289f565b6114c3565b34801561065a57600080fd5b506103ec610669366004612773565b6114ce565b34801561067a57600080fd5b506103d96106893660046128d6565b6114fc565b34801561069a57600080fd5b506103d96106a9366004612988565b611707565b3480156106ba57600080fd5b506106ce6106c9366004612773565b61173f565b60405161035696959493929190612a04565b3480156106ec57600080fd5b506103746106fb366004612773565b61189b565b34801561070c57600080fd5b5061034a61071b366004612a4f565b6001600160a01b03918216600090815260056020908152604080832093909416825291909152205460ff1690565b34801561075557600080fd5b506103d9610764366004612aa2565b611967565b60006001600160e01b0319821663780e9d6360e01b148061078e575061078e82611a55565b92915050565b6060600080546107a390612b21565b80601f01602080910402602001604051908101604052809291908181526020018280546107cf90612b21565b801561081c5780601f106107f15761010080835404028352916020019161081c565b820191906000526020600020905b8154815290600101906020018083116107ff57829003601f168201915b5050505050905090565b600061083182611aa5565b506000908152600460205260409020546001600160a01b031690565b600061085882610f65565b9050806001600160a01b0316836001600160a01b0316036108ca5760405162461bcd60e51b815260206004820152602160248201527f4552433732313a20617070726f76616c20746f2063757272656e74206f776e656044820152603960f91b60648201526084015b60405180910390fd5b336001600160a01b03821614806108e657506108e6813361071b565b6109585760405162461bcd60e51b815260206004820152603e60248201527f4552433732313a20617070726f76652063616c6c6572206973206e6f7420746f60448201527f6b656e206f776e6572206e6f7220617070726f76656420666f7220616c6c000060648201526084016108c1565b6109628383611b04565b505050565b6109713382611b72565b61098d5760405162461bcd60e51b81526004016108c190612b5b565b610962838383611bf1565b600c5482106109dc5760405162461bcd60e51b815260206004820152601060248201526f496e76616c69642063617465676f727960801b60448201526064016108c1565b600c82815481106109ef576109ef612ba9565b906000526020600020906006020160040154600c8381548110610a1457610a14612ba9565b906000526020600020906006020160030154610a309190612bbf565b811115610a745760405162461bcd60e51b81526020600482015260126024820152714e6f7420656e6f7567687420737570706c7960701b60448201526064016108c1565b60005b81811015610ad057610a9184610a8c600b5490565b611d98565b82600d6000610a9f600b5490565b8152602081019190915260400160002055610abe600b80546001019055565b80610ac881612bd6565b915050610a77565b5080600c8381548110610ae557610ae5612ba9565b90600052602060002090600602016004016000828254610b059190612bef565b9091555050505050565b6000610b1a33611115565b11610b675760405162461bcd60e51b815260206004820152601a60248201527f796f7520646f206e6f7420706f736573732074686973206e667400000000000060448201526064016108c1565b6000805b610b7433611115565b811015610c3d576000610b873383610d39565b6000818152600d6020908152604080832054808452600e835281842054858552600f9093529220549293509091108015610bce57506000818152600e602052604090205415155b15610c28576000828152600f6020908152604080832054848452600e909252822054610bfa9190612bbf565b9050610c068186612bef565b6000838152600e6020908152604080832054878452600f909252909120559450505b50508080610c3590612bd6565b915050610b6b565b5060008111610c9a5760405162461bcd60e51b8152602060048201526024808201527f796f7520616c726561647920636c61696d656420616c6c20796f7572207265776044820152636172647360e01b60648201526084016108c1565b6010546040516323b872dd60e01b8152336004820152306024820152604481018390526000916001600160a01b0316906323b872dd906064016020604051808303816000875af1158015610cf2573d6000803e3d6000fd5b505050506040513d601f19601f82011682018060405250810190610d169190612c07565b905080610d355760405162461bcd60e51b81526004016108c190612c24565b5050565b6000610d4483611115565b8210610da65760405162461bcd60e51b815260206004820152602b60248201527f455243373231456e756d657261626c653a206f776e657220696e646578206f7560448201526a74206f6620626f756e647360a81b60648201526084016108c1565b506001600160a01b03919091166000908152600660209081526040808320938352929052205490565b6011546001600160a01b03163314610df95760405162461bcd60e51b81526004016108c190612c6f565b610e01611db2565b565b6011546001600160a01b03163314610e2d5760405162461bcd60e51b81526004016108c190612c6f565b610e01611e04565b6011546001600160a01b03163314610e5f5760405162461bcd60e51b81526004016108c190612c6f565b604051600090339047908381818185875af1925050503d8060008114610ea1576040519150601f19603f3d011682016040523d82523d6000602084013e610ea6565b606091505b5050905080610eb457600080fd5b50565b61096283838360405180602001604052806000815250611707565b6000610edd60085490565b8210610f405760405162461bcd60e51b815260206004820152602c60248201527f455243373231456e756d657261626c653a20676c6f62616c20696e646578206f60448201526b7574206f6620626f756e647360a01b60648201526084016108c1565b60088281548110610f5357610f53612ba9565b90600052602060002001549050919050565b6000818152600260205260408120546001600160a01b03168061078e5760405162461bcd60e51b8152602060048201526018602482015277115490cdcc8c4e881a5b9d985b1a59081d1bdad95b88125160421b60448201526064016108c1565b610fcd611e41565b600c5482106110115760405162461bcd60e51b815260206004820152601060248201526f496e76616c69642063617465676f727960801b60448201526064016108c1565b600c828154811061102457611024612ba9565b906000526020600020906006020160040154600c838154811061104957611049612ba9565b9060005260206000209060060201600301546110659190612bbf565b8311156110a95760405162461bcd60e51b81526020600482015260126024820152714e6f7420656e6f7567687420737570706c7960701b60448201526064016108c1565b60005b83811015611100576110c182610a8c600b5490565b82600d60006110cf600b5490565b81526020810191909152604001600020556110ee600b80546001019055565b806110f881612bd6565b9150506110ac565b5082600c8381548110610ae557610ae5612ba9565b60006001600160a01b03821661117f5760405162461bcd60e51b815260206004820152602960248201527f4552433732313a2061646472657373207a65726f206973206e6f7420612076616044820152683634b21037bbb732b960b91b60648201526084016108c1565b506001600160a01b031660009081526003602052604090205490565b6011546001600160a01b031633146111c55760405162461bcd60e51b81526004016108c190612c6f565b600c54811061120a5760405162461bcd60e51b8152602060048201526011602482015270092dcc8caf040d2e640e8dede40d0d2ced607b1b60448201526064016108c1565b600c818154811061121d5761121d612ba9565b60009182526020822060069091020190611237828261259c565b61124560018301600061259c565b50600060028201819055600382018190556004820181905560059091015550565b60085481106112ae5760405162461bcd60e51b81526020600482015260146024820152731d1a1a5cc81a5908191bc81b9bdd08195e1a5cdd60621b60448201526064016108c1565b6000818152600d6020526040902054336112c783610f65565b6001600160a01b0316146113155760405162461bcd60e51b81526020600482015260156024820152741b9bdd081bdddb995c881bd9881d1a1a5cc8139195605a1b60448201526064016108c1565b6000818152600e60205260409020546113615760405162461bcd60e51b815260206004820152600e60248201526d139bc814995dd85c991cc816595d60921b60448201526064016108c1565b6000818152600e6020908152604080832054858452600f90925290912054106113cc5760405162461bcd60e51b815260206004820152601f60248201527f596f7520616c726561647920636c61696d656420796f7572207265776172640060448201526064016108c1565b6000828152600f6020908152604080832054848452600e9092528220546113f39190612bbf565b6010546040516323b872dd60e01b8152336004820152306024820152604481018390529192506000916001600160a01b03909116906323b872dd906064016020604051808303816000875af1158015611450573d6000803e3d6000fd5b505050506040513d601f19601f820116820180604052508101906114749190612c07565b9050806114935760405162461bcd60e51b81526004016108c190612c24565b50506000908152600e6020908152604080832054938352600f909152902055565b6060600180546107a390612b21565b610d35338383611e87565b6000600c82815481106114e3576114e3612ba9565b9060005260206000209060060201600201549050919050565b6011546001600160a01b031633146115265760405162461bcd60e51b81526004016108c190612c6f565b60008163ffffffff16116115705760405162461bcd60e51b81526020600482015260116024820152700616d6f756e742063616e2774206265203607c1b60448201526064016108c1565b6010546040516323b872dd60e01b815233600482015230602482015263ffffffff831660448201526000916001600160a01b0316906323b872dd906064016020604051808303816000875af11580156115cd573d6000803e3d6000fd5b505050506040513d601f19601f820116820180604052508101906115f19190612c07565b9050806116105760405162461bcd60e51b81526004016108c190612c24565b60005b600c548110156116c4576064600c828154811061163257611632612ba9565b906000526020600020906006020160030154600c838154811061165757611657612ba9565b9060005260206000209060060201600501548563ffffffff1661167a9190612685565b61168491906126ba565b61168e91906126ba565b6000828152600e6020526040812080549091906116ac908490612bef565b909155508190506116bc81612bd6565b915050611613565b506040805133815263ffffffff841660208201527f332c3fd68e199528deb4a5631f1c91795464d13656d118e824c5da4f75ea83e5910160405180910390a15050565b6117113383611b72565b61172d5760405162461bcd60e51b81526004016108c190612b5b565b61173984848484611f55565b50505050565b600c818154811061174f57600080fd5b906000526020600020906006020160009150905080600001805461177290612b21565b80601f016020809104026020016040519081016040528092919081815260200182805461179e90612b21565b80156117eb5780601f106117c0576101008083540402835291602001916117eb565b820191906000526020600020905b8154815290600101906020018083116117ce57829003601f168201915b50505050509080600101805461180090612b21565b80601f016020809104026020016040519081016040528092919081815260200182805461182c90612b21565b80156118795780601f1061184e57610100808354040283529160200191611879565b820191906000526020600020905b81548152906001019060200180831161185c57829003601f168201915b5050505050908060020154908060030154908060040154908060050154905086565b6000818152600260205260409020546060906001600160a01b03166119025760405162461bcd60e51b815260206004820152601f60248201527f55524920717565727920666f72206e6f6e6578697374656e7420746f6b656e0060448201526064016108c1565b6000828152600d6020526040902054600c80548290811061192557611925612ba9565b906000526020600020906006020160010161193f84611f88565b604051602001611950929190612cc0565b604051602081830303815290604052915050919050565b6011546001600160a01b031633146119915760405162461bcd60e51b81526004016108c190612c6f565b6040805160c08101825286815260208082018790529181018590526060810184905260006080820181905260a08201849052600c8054600181018255915281518051929360069092027fdf6966c971051c3d54ec59162606531493a51404a002842f56009d7e5cf4a8c70192611a0a92849201906125d6565b506020828101518051611a2392600185019201906125d6565b5060408201518160020155606082015181600301556080820151816004015560a0820151816005015550505050505050565b60006001600160e01b031982166380ac58cd60e01b1480611a8657506001600160e01b03198216635b5e139f60e01b145b8061078e57506301ffc9a760e01b6001600160e01b031983161461078e565b6000818152600260205260409020546001600160a01b0316610eb45760405162461bcd60e51b8152602060048201526018602482015277115490cdcc8c4e881a5b9d985b1a59081d1bdad95b88125160421b60448201526064016108c1565b600081815260046020526040902080546001600160a01b0319166001600160a01b0384169081179091558190611b3982610f65565b6001600160a01b03167f8c5be1e5ebec7d5bd14f71427d1e84f3dd0314c0f7b2291e5b200ac8c7c3b92560405160405180910390a45050565b600080611b7e83610f65565b9050806001600160a01b0316846001600160a01b03161480611bc557506001600160a01b0380821660009081526005602090815260408083209388168352929052205460ff165b80611be95750836001600160a01b0316611bde84610826565b6001600160a01b0316145b949350505050565b826001600160a01b0316611c0482610f65565b6001600160a01b031614611c685760405162461bcd60e51b815260206004820152602560248201527f4552433732313a207472616e736665722066726f6d20696e636f72726563742060448201526437bbb732b960d91b60648201526084016108c1565b6001600160a01b038216611cca5760405162461bcd60e51b8152602060048201526024808201527f4552433732313a207472616e7366657220746f20746865207a65726f206164646044820152637265737360e01b60648201526084016108c1565b611cd5838383612089565b611ce0600082611b04565b6001600160a01b0383166000908152600360205260408120805460019290611d09908490612bbf565b90915550506001600160a01b0382166000908152600360205260408120805460019290611d37908490612bef565b909155505060008181526002602052604080822080546001600160a01b0319166001600160a01b0386811691821790925591518493918716917fddf252ad1be2c89b69c2b068fc378daa952ba7f163c4a11628f55a4df523b3ef91a4505050565b610d35828260405180602001604052806000815250612141565b611dba612174565b600a805460ff191690557f5db9ee0a495bf2e6ff9c91a7834c1ba4fdd244a5e8aa4e537bd38aeae4b073aa335b6040516001600160a01b03909116815260200160405180910390a1565b611e0c611e41565b600a805460ff191660011790557f62e78cea01bee320cd4e420270b5ea74000d11b0c9f74754ebdbfc544b05a258611de73390565b600a5460ff1615610e015760405162461bcd60e51b815260206004820152601060248201526f14185d5cd8589b194e881c185d5cd95960821b60448201526064016108c1565b816001600160a01b0316836001600160a01b031603611ee85760405162461bcd60e51b815260206004820152601960248201527f4552433732313a20617070726f766520746f2063616c6c65720000000000000060448201526064016108c1565b6001600160a01b03838116600081815260056020908152604080832094871680845294825291829020805460ff191686151590811790915591519182527f17307eab39ab6107e8899845ad3d59bd9653f200f220920489ca2b5937696c31910160405180910390a3505050565b611f60848484611bf1565b611f6c848484846121bd565b6117395760405162461bcd60e51b81526004016108c190612d7a565b606081600003611faf5750506040805180820190915260018152600360fc1b602082015290565b8160005b8115611fd95780611fc381612bd6565b9150611fd29050600a836126ba565b9150611fb3565b60008167ffffffffffffffff811115611ff457611ff46128fc565b6040519080825280601f01601f19166020018201604052801561201e576020820181803683370190505b5090505b8415611be957612033600183612bbf565b9150612040600a86612dcc565b61204b906030612bef565b60f81b81838151811061206057612060612ba9565b60200101906001600160f81b031916908160001a905350612082600a866126ba565b9450612022565b6001600160a01b0383166120e4576120df81600880546000838152600960205260408120829055600182018355919091527ff3f7a9fe364faab93b216da50a3214154f22a0a2b415b23a84c8169e8b636ee30155565b612107565b816001600160a01b0316836001600160a01b0316146121075761210783826122be565b6001600160a01b03821661211e576109628161235b565b826001600160a01b0316826001600160a01b03161461096257610962828261240a565b61214b838361244e565b61215860008484846121bd565b6109625760405162461bcd60e51b81526004016108c190612d7a565b600a5460ff16610e015760405162461bcd60e51b815260206004820152601460248201527314185d5cd8589b194e881b9bdd081c185d5cd95960621b60448201526064016108c1565b60006001600160a01b0384163b156122b357604051630a85bd0160e11b81526001600160a01b0385169063150b7a0290612201903390899088908890600401612de0565b6020604051808303816000875af192505050801561223c575060408051601f3d908101601f1916820190925261223991810190612e1d565b60015b612299573d80801561226a576040519150601f19603f3d011682016040523d82523d6000602084013e61226f565b606091505b5080516000036122915760405162461bcd60e51b81526004016108c190612d7a565b805181602001fd5b6001600160e01b031916630a85bd0160e11b149050611be9565b506001949350505050565b600060016122cb84611115565b6122d59190612bbf565b600083815260076020526040902054909150808214612328576001600160a01b03841660009081526006602090815260408083208584528252808320548484528184208190558352600790915290208190555b5060009182526007602090815260408084208490556001600160a01b039094168352600681528383209183525290812055565b60085460009061236d90600190612bbf565b6000838152600960205260408120546008805493945090928490811061239557612395612ba9565b9060005260206000200154905080600883815481106123b6576123b6612ba9565b60009182526020808320909101929092558281526009909152604080822084905585825281205560088054806123ee576123ee612e3a565b6001900381819060005260206000200160009055905550505050565b600061241583611115565b6001600160a01b039093166000908152600660209081526040808320868452825280832085905593825260079052919091209190915550565b6001600160a01b0382166124a45760405162461bcd60e51b815260206004820181905260248201527f4552433732313a206d696e7420746f20746865207a65726f206164647265737360448201526064016108c1565b6000818152600260205260409020546001600160a01b0316156125095760405162461bcd60e51b815260206004820152601c60248201527f4552433732313a20746f6b656e20616c7265616479206d696e7465640000000060448201526064016108c1565b61251560008383612089565b6001600160a01b038216600090815260036020526040812080546001929061253e908490612bef565b909155505060008181526002602052604080822080546001600160a01b0319166001600160a01b03861690811790915590518392907fddf252ad1be2c89b69c2b068fc378daa952ba7f163c4a11628f55a4df523b3ef908290a45050565b5080546125a890612b21565b6000825580601f106125b8575050565b601f016020900490600052602060002090810190610eb4919061265a565b8280546125e290612b21565b90600052602060002090601f016020900481019282612604576000855561264a565b82601f1061261d57805160ff191683800117855561264a565b8280016001018555821561264a579182015b8281111561264a57825182559160200191906001019061262f565b5061265692915061265a565b5090565b5b80821115612656576000815560010161265b565b634e487b7160e01b600052601160045260246000fd5b600081600019048311821515161561269f5761269f61266f565b500290565b634e487b7160e01b600052601260045260246000fd5b6000826126c9576126c96126a4565b500490565b6001600160e01b031981168114610eb457600080fd5b6000602082840312156126f657600080fd5b8135612701816126ce565b9392505050565b60005b8381101561272357818101518382015260200161270b565b838111156117395750506000910152565b6000815180845261274c816020860160208601612708565b601f01601f19169290920160200192915050565b6020815260006127016020830184612734565b60006020828403121561278557600080fd5b5035919050565b80356001600160a01b03811681146127a357600080fd5b919050565b600080604083850312156127bb57600080fd5b6127c48361278c565b946020939093013593505050565b6000806000606084860312156127e757600080fd5b6127f08461278c565b92506127fe6020850161278c565b9150604084013590509250925092565b60008060006060848603121561282357600080fd5b61282c8461278c565b95602085013595506040909401359392505050565b60008060006060848603121561285657600080fd5b833592506020840135915061286d6040850161278c565b90509250925092565b60006020828403121561288857600080fd5b6127018261278c565b8015158114610eb457600080fd5b600080604083850312156128b257600080fd5b6128bb8361278c565b915060208301356128cb81612891565b809150509250929050565b6000602082840312156128e857600080fd5b813563ffffffff8116811461270157600080fd5b634e487b7160e01b600052604160045260246000fd5b600067ffffffffffffffff8084111561292d5761292d6128fc565b604051601f8501601f19908116603f01168101908282118183101715612955576129556128fc565b8160405280935085815286868601111561296e57600080fd5b858560208301376000602087830101525050509392505050565b6000806000806080858703121561299e57600080fd5b6129a78561278c565b93506129b56020860161278c565b925060408501359150606085013567ffffffffffffffff8111156129d857600080fd5b8501601f810187136129e957600080fd5b6129f887823560208401612912565b91505092959194509250565b60c081526000612a1760c0830189612734565b8281036020840152612a298189612734565b9150508560408301528460608301528360808301528260a0830152979650505050505050565b60008060408385031215612a6257600080fd5b612a6b8361278c565b9150612a796020840161278c565b90509250929050565b600082601f830112612a9357600080fd5b61270183833560208501612912565b600080600080600060a08688031215612aba57600080fd5b853567ffffffffffffffff80821115612ad257600080fd5b612ade89838a01612a82565b96506020880135915080821115612af457600080fd5b50612b0188828901612a82565b959895975050505060408401359360608101359360809091013592509050565b600181811c90821680612b3557607f821691505b602082108103612b5557634e487b7160e01b600052602260045260246000fd5b50919050565b6020808252602e908201527f4552433732313a2063616c6c6572206973206e6f7420746f6b656e206f776e6560408201526d1c881b9bdc88185c1c1c9bdd995960921b606082015260800190565b634e487b7160e01b600052603260045260246000fd5b600082821015612bd157612bd161266f565b500390565b600060018201612be857612be861266f565b5060010190565b60008219821115612c0257612c0261266f565b500190565b600060208284031215612c1957600080fd5b815161270181612891565b6020808252602b908201527f436f756c64206e6f74207472616e7366657220746f6b656e2e204d697373696e60408201526a6720617070726f76616c3f60a81b606082015260800190565b6020808252818101527f4f776e61626c653a2063616c6c6572206973206e6f7420746865206f776e6572604082015260600190565b60008151612cb6818560208601612708565b9290920192915050565b600080845481600182811c915080831680612cdc57607f831692505b60208084108203612cfb57634e487b7160e01b86526022600452602486fd5b818015612d0f5760018114612d2057612d4d565b60ff19861689528489019650612d4d565b60008b81526020902060005b86811015612d455781548b820152908501908301612d2c565b505084890196505b505050505050612d71612d608286612ca4565b64173539b7b760d91b815260050190565b95945050505050565b60208082526032908201527f4552433732313a207472616e7366657220746f206e6f6e20455243373231526560408201527131b2b4bb32b91034b6b83632b6b2b73a32b960711b606082015260800190565b600082612ddb57612ddb6126a4565b500690565b6001600160a01b0385811682528416602082015260408101839052608060608201819052600090612e1390830184612734565b9695505050505050565b600060208284031215612e2f57600080fd5b8151612701816126ce565b634e487b7160e01b600052603160045260246000fdfea2646970667358221220120281ad5ad9dea76577c4248d2c9e96821993ab1fa0346a7c73acf29b70bc4164736f6c634300080e0033a26469706673582212209b6611ad77fccd4e585c29a97e2118cd323d09ee086f8f3f8c8a991d05e649f264736f6c634300080e0033",
  "linkReferences": {},
  "deployedLinkReferences": {}
}