{
  "_format": "hh-sol-artifact-1",
  "contractName": "FactoryERC721",
  "sourceName": "contracts/factory.sol",
  "abi": [
    {
      "anonymous": false,
      "inputs": [
        {
          "indexed": false,
          "internalType": "address",
          "name": "addr",
          "type": "address"
        },
        {
          "indexed": false,
          "internalType": "uint256",
          "name": "salt",
          "type": "uint256"
        }
      ],
      "name": "Deployed",
      "type": "event"
    },
    {
      "inputs": [
        {
          "internalType": "address payable",
          "name": "_contract",
          "type": "address"
        },
        {
          "internalType": "address",
          "name": "_to",
          "type": "address"
        },
        {
          "internalType": "uint256",
          "name": "_category",
          "type": "uint256"
        },
        {
          "internalType": "uint256",
          "name": "_amount",
          "type": "uint256"
        }
      ],
      "name": "crossMintFactory",
      "outputs": [],
      "stateMutability": "payable",
      "type": "function"
    },
    {
      "inputs": [
        {
          "internalType": "bytes",
          "name": "bytecode",
          "type": "bytes"
        },
        {
          "internalType": "uint256",
          "name": "_salt",
          "type": "uint256"
        }
      ],
      "name": "deploy",
      "outputs": [
        {
          "internalType": "address",
          "name": "",
          "type": "address"
        }
      ],
      "stateMutability": "payable",
      "type": "function"
    },
    {
      "inputs": [
        {
          "internalType": "bytes",
          "name": "bytecode",
          "type": "bytes"
        },
        {
          "internalType": "uint256",
          "name": "_salt",
          "type": "uint256"
        }
      ],
      "name": "getAddress",
      "outputs": [
        {
          "internalType": "address",
          "name": "",
          "type": "address"
        }
      ],
      "stateMutability": "view",
      "type": "function"
    },
    {
      "inputs": [
        {
          "internalType": "string[]",
          "name": "_categories",
          "type": "string[]"
        },
        {
          "internalType": "string[]",
          "name": "_baseUri",
          "type": "string[]"
        },
        {
          "internalType": "uint256[]",
          "name": "_price",
          "type": "uint256[]"
        },
        {
          "internalType": "uint256[]",
          "name": "_maxSupply",
          "type": "uint256[]"
        },
        {
          "internalType": "uint256[]",
          "name": "_percentages",
          "type": "uint256[]"
        },
        {
          "internalType": "address",
          "name": "_usdc",
          "type": "address"
        },
        {
          "internalType": "address",
          "name": "_investor",
          "type": "address"
        },
        {
          "internalType": "address",
          "name": "_artist",
          "type": "address"
        },
        {
          "internalType": "uint256",
          "name": "_percentageInvestor",
          "type": "uint256"
        },
        {
          "internalType": "uint256",
          "name": "_percentageArtist",
          "type": "uint256"
        },
        {
          "internalType": "uint256",
          "name": "_startDate",
          "type": "uint256"
        }
      ],
      "name": "getBytecode",
      "outputs": [
        {
          "internalType": "bytes",
          "name": "",
          "type": "bytes"
        }
      ],
      "stateMutability": "pure",
      "type": "function"
    },
    {
      "inputs": [
        {
          "internalType": "address payable",
          "name": "_contract",
          "type": "address"
        },
        {
          "internalType": "address",
          "name": "_usdc",
          "type": "address"
        },
        {
          "internalType": "uint256",
          "name": "_quantity",
          "type": "uint256"
        },
        {
          "internalType": "uint256",
          "name": "categoryId",
          "type": "uint256"
        }
      ],
      "name": "mintUSDCFactory",
      "outputs": [],
      "stateMutability": "payable",
      "type": "function"
    }
  ],
  "bytecode": "0x608060405234801561001057600080fd5b506148cb806100206000396000f3fe608060405260043610620000505760003560e01c80634dbb1e4614620000555780638d95fb70146200006e57806394ca2cb514620000ab5780639c4ae2d0146200013f578063a84bd3981462000156575b600080fd5b6200006c62000066366004620005b8565b6200016d565b005b3480156200007b57600080fd5b50620000936200008d366004620007e5565b62000253565b604051620000a2919062000983565b60405180910390f35b348015620000b857600080fd5b5062000126620000ca3660046200099f565b8151602092830120604080516001600160f81b0319818601523060601b6bffffffffffffffffffffffff191660218201526035810193909352605580840192909252805180840390920182526075909201909152805191012090565b6040516001600160a01b039091168152602001620000a2565b62000126620001503660046200099f565b620002e8565b6200006c62000167366004620005b8565b6200034b565b73da30ee0788276c093e686780c25f6c94310272343314620001e25760405162461bcd60e51b8152602060048201526024808201527f546869732066756e6374696f6e20697320666f722043726f73736d696e74206f60448201526337363c9760e11b60648201526084015b60405180910390fd5b60405163255f876960e01b81526001600160a01b038481166004830152602482018490526044820183905285169063255f876990606401600060405180830381600087803b1580156200023457600080fd5b505af115801562000249573d6000803e3d6000fd5b5050505050505050565b606060006040518060200162000269906200057f565b6020820181038252601f19601f820116604052509050808d8d8d8d8d8d8d8d8d8d8d604051602001620002a79b9a9998979695949392919062000a96565b60408051601f1981840301815290829052620002c7929160200162000b47565b6040516020818303038152906040529150509b9a5050505050505050505050565b6000808284516020860134f59050803b6200030257600080fd5b604080516001600160a01b0383168152602081018590527fb03c53b28e78a88e31607a27e1fa48234dce28d5d9d9ec7b295aeb02e674a1e1910160405180910390a19392505050565b60405163a570f17760e01b8152600481018290526000906001600160a01b0386169063a570f17790602401602060405180830381865afa15801562000394573d6000803e3d6000fd5b505050506040513d601f19601f82011682018060405250810190620003ba919062000b7a565b9050620003c8818462000b94565b6040516370a0823160e01b81523360048201526001600160a01b038616906370a0823190602401602060405180830381865afa1580156200040d573d6000803e3d6000fd5b505050506040513d601f19601f8201168201806040525081019062000433919062000b7a565b1015620004765760405162461bcd60e51b815260206004820152601060248201526f4e6f7420656e6f75676874205553444360801b6044820152606401620001d9565b6001600160a01b0384166323b872dd338762000493858862000b94565b6040516001600160e01b031960e086901b1681526001600160a01b03938416600482015292909116602483015260448201526064016020604051808303816000875af1158015620004e8573d6000803e3d6000fd5b505050506040513d601f19601f820116820180604052508101906200050e919062000bc2565b5060405163372102e960e11b815260048101849052602481018390523360448201526001600160a01b03861690636e4205d290606401600060405180830381600087803b1580156200055f57600080fd5b505af115801562000574573d6000803e3d6000fd5b505050505050505050565b613caf8062000be783390190565b6001600160a01b0381168114620005a357600080fd5b50565b8035620005b3816200058d565b919050565b60008060008060808587031215620005cf57600080fd5b8435620005dc816200058d565b93506020850135620005ee816200058d565b93969395505050506040820135916060013590565b634e487b7160e01b600052604160045260246000fd5b604051601f8201601f1916810167ffffffffffffffff8111828210171562000645576200064562000603565b604052919050565b600067ffffffffffffffff8211156200066a576200066a62000603565b5060051b60200190565b600067ffffffffffffffff83111562000691576200069162000603565b620006a6601f8401601f191660200162000619565b9050828152838383011115620006bb57600080fd5b828260208301376000602084830101529392505050565b600082601f830112620006e457600080fd5b81356020620006fd620006f7836200064d565b62000619565b82815260059290921b840181019181810190868411156200071d57600080fd5b8286015b848110156200077857803567ffffffffffffffff811115620007435760008081fd5b8701603f81018913620007565760008081fd5b6200076989868301356040840162000674565b84525091830191830162000721565b509695505050505050565b600082601f8301126200079557600080fd5b81356020620007a8620006f7836200064d565b82815260059290921b84018101918181019086841115620007c857600080fd5b8286015b84811015620007785780358352918301918301620007cc565b60008060008060008060008060008060006101608c8e0312156200080857600080fd5b67ffffffffffffffff808d3511156200082057600080fd5b6200082f8e8e358f01620006d2565b9b508060208e013511156200084357600080fd5b620008558e60208f01358f01620006d2565b9a508060408e013511156200086957600080fd5b6200087b8e60408f01358f0162000783565b99508060608e013511156200088f57600080fd5b620008a18e60608f01358f0162000783565b98508060808e01351115620008b557600080fd5b50620008c88d60808e01358e0162000783565b9650620008d860a08d01620005a6565b9550620008e860c08d01620005a6565b9450620008f860e08d01620005a6565b93506101008c013592506101208c013591506101408c013590509295989b509295989b9093969950565b60005b838110156200093f57818101518382015260200162000925565b838111156200094f576000848401525b50505050565b600081518084526200096f81602086016020860162000922565b601f01601f19169290920160200192915050565b60208152600062000998602083018462000955565b9392505050565b60008060408385031215620009b357600080fd5b823567ffffffffffffffff811115620009cb57600080fd5b8301601f81018513620009dd57600080fd5b620009ee8582356020840162000674565b95602094909401359450505050565b600082825180855260208086019550808260051b84010181860160005b8481101562000a4c57601f1986840301895262000a3983835162000955565b9884019892509083019060010162000a1a565b5090979650505050505050565b600081518084526020808501945080840160005b8381101562000a8b5781518752958201959082019060010162000a6d565b509495945050505050565b600061016080835262000aac8184018f620009fd565b9050828103602084015262000ac2818e620009fd565b9050828103604084015262000ad8818d62000a59565b9050828103606084015262000aee818c62000a59565b9050828103608084015262000b04818b62000a59565b6001600160a01b03998a1660a085015297891660c084015250509390951660e0840152610100830191909152610120820152610140019190915295945050505050565b6000835162000b5b81846020880162000922565b83519083019062000b7181836020880162000922565b01949350505050565b60006020828403121562000b8d57600080fd5b5051919050565b600081600019048311821515161562000bbd57634e487b7160e01b600052601160045260246000fd5b500290565b60006020828403121562000bd557600080fd5b815180151581146200099857600080fdfe60806040523480156200001157600080fd5b5060405162003caf38038062003caf8339810160408190526200003491620007e4565b60408051808201825260048152631d195cdd60e21b602080830191825283518085019094526002845261151560f21b9084015281519192916200007a9160009162000529565b5080516200009090600190602084019062000529565b5050600a805460ff191690555089518b51148015620000b0575088518b51145b8015620000be575087518b51145b8015620000cc575086518b51145b6200012a5760405162461bcd60e51b8152602060048201526024808201527f416c6c20617272617973206d7573742068617665207468652073616d65206c656044820152630dccee8d60e31b60648201526084015b60405180910390fd5b62000136828462000951565b606414620001875760405162461bcd60e51b815260206004820152601660248201527f50657263656e74616765206d7573742062652031303000000000000000000000604482015260640162000121565b6001600160a01b038416620001f15760405162461bcd60e51b815260206004820152602960248201527f496e766573746f722061646472657373206d757374206265206469666665726560448201526806e742066726f6d20360bc1b606482015260840162000121565b6001600160a01b038516620002595760405162461bcd60e51b815260206004820152602760248201527f4172746973742061646472657373206d75737420626520646966666572656e7460448201526602066726f6d20360cc1b606482015260840162000121565b6001600160a01b038616620002bf5760405162461bcd60e51b815260206004820152602560248201527f555344432061646472657373206d75737420626520646966666572656e7420666044820152640726f6d20360dc1b606482015260840162000121565b620002ca87620004d2565b606414620003265760405162461bcd60e51b815260206004820152602260248201527f5468652073756d206f662070657263656e7461676573206d7573742062652031604482015261030360f41b606482015260840162000121565b60005b8b518110156200047b57600c6040518060c001604052808e84815181106200035557620003556200096c565b602002602001015181526020018d84815181106200037757620003776200096c565b602002602001015181526020018c84815181106200039957620003996200096c565b602002602001015181526020018b8481518110620003bb57620003bb6200096c565b60200260200101518152602001600081526020018a8481518110620003e457620003e46200096c565b60209081029190910181015190915282546001810184556000938452928190208251805193946006029091019262000420928492019062000529565b5060208281015180516200043b926001850192019062000529565b5060408201516002820155606082015160038201556080820151600482015560a09091015160059091015580620004728162000982565b91505062000329565b50601080546001600160a01b03199081166001600160a01b03988916179091556012805482169588169590951790945560118054909416949095169390931790915560135560145560155550620009da9350505050565b600080805b83518110156200052257838181518110620004f657620004f66200096c565b6020026020010151826200050b919062000951565b915080620005198162000982565b915050620004d7565b5092915050565b82805462000537906200099e565b90600052602060002090601f0160209004810192826200055b5760008555620005a6565b82601f106200057657805160ff1916838001178555620005a6565b82800160010185558215620005a6579182015b82811115620005a657825182559160200191906001019062000589565b50620005b4929150620005b8565b5090565b5b80821115620005b45760008155600101620005b9565b634e487b7160e01b600052604160045260246000fd5b604051601f8201601f191681016001600160401b0381118282101715620006105762000610620005cf565b604052919050565b60006001600160401b03821115620006345762000634620005cf565b5060051b60200190565b6000601f83818401126200065157600080fd5b825160206200066a620006648362000618565b620005e5565b82815260059290921b850181019181810190878411156200068a57600080fd5b8287015b848110156200074e5780516001600160401b0380821115620006b05760008081fd5b818a0191508a603f830112620006c65760008081fd5b8582015181811115620006dd57620006dd620005cf565b620006f0818a01601f19168801620005e5565b915080825260408c818386010111156200070a5760008081fd5b60005b828110156200072a578481018201518482018a015288016200070d565b828111156200073c5760008984860101525b5050508452509183019183016200068e565b50979650505050505050565b600082601f8301126200076c57600080fd5b815160206200077f620006648362000618565b82815260059290921b840181019181810190868411156200079f57600080fd5b8286015b84811015620007bc5780518352918301918301620007a3565b509695505050505050565b80516001600160a01b0381168114620007df57600080fd5b919050565b60008060008060008060008060008060006101608c8e0312156200080757600080fd5b8b516001600160401b038111156200081e57600080fd5b6200082c8e828f016200063e565b60208e0151909c5090506001600160401b038111156200084b57600080fd5b620008598e828f016200063e565b60408e0151909b5090506001600160401b038111156200087857600080fd5b620008868e828f016200075a565b60608e0151909a5090506001600160401b03811115620008a557600080fd5b620008b38e828f016200075a565b60808e015190995090506001600160401b03811115620008d257600080fd5b620008e08e828f016200075a565b975050620008f160a08d01620007c7565b95506200090160c08d01620007c7565b94506200091160e08d01620007c7565b93506101008c015192506101208c015191506101408c015190509295989b509295989b9093969950565b634e487b7160e01b600052601160045260246000fd5b600082198211156200096757620009676200093b565b500190565b634e487b7160e01b600052603260045260246000fd5b6000600182016200099757620009976200093b565b5060010190565b600181811c90821680620009b357607f821691505b602082108103620009d457634e487b7160e01b600052602260045260246000fd5b50919050565b6132c580620009ea6000396000f3fe6080604052600436106102295760003560e01c80635c975abb1161012357806386ad310f116100ab578063c6cdbe5e1161006f578063c6cdbe5e14610765578063c87b56dd14610797578063e985e9c5146107b7578063eb28f2dd14610800578063ecbe483f1461082057600080fd5b806386ad310f146106d057806395d89b41146106f0578063a22cb46514610705578063a570f17714610725578063b88d4fde1461074557600080fd5b806370a08231116100f257806370a0823114610623578063741faee6146106435780637f2c0bb81461067057806380420b311461069057806382d95df5146106b057600080fd5b80635c975abb146105b85780636352211e146105d05780636e4205d2146105f05780636ff1c9bc1461060357600080fd5b80632f745c59116101b157806342842e0e1161017557806342842e0e1461050b57806343bc16121461052b5780634f6ccce71461054b578063515ec1051461056b578063546b7e0a1461058b57600080fd5b80632f745c5914610499578063349fdb09146104b957806337a66d85146104ce5780633ccfd60b146104e35780633e413bee146104eb57600080fd5b806318160ddd116101f857806318160ddd1461041257806323b872dd14610431578063255f87691461045157806326c02d23146104645780632c8e96ab1461047957600080fd5b806301ffc9a71461036157806306fdde0314610396578063081812fc146103b8578063095ea7b3146103f057600080fd5b3661035c576012546013546000916001600160a01b0316906103e89061024f9034612ad1565b6102599190612b06565b604051600081818185875af1925050503d8060008114610295576040519150601f19603f3d011682016040523d82523d6000602084013e61029a565b606091505b50509050806102a857600080fd5b6011546014546000916001600160a01b0316906103e8906102c99034612ad1565b6102d39190612b06565b604051600081818185875af1925050503d806000811461030f576040519150601f19603f3d011682016040523d82523d6000602084013e610314565b606091505b505090508061032257600080fd5b604080513381523460208201527f7c6ffa8afa793623698938cd722cf1ed49a5fe661a60f5723fe00cc6f55baeb2910160405180910390a1005b600080fd5b34801561036d57600080fd5b5061038161037c366004612b30565b610840565b60405190151581526020015b60405180910390f35b3480156103a257600080fd5b506103ab61086b565b60405161038d9190612bac565b3480156103c457600080fd5b506103d86103d3366004612bbf565b6108fd565b6040516001600160a01b03909116815260200161038d565b3480156103fc57600080fd5b5061041061040b366004612bf4565b610924565b005b34801561041e57600080fd5b506008545b60405190815260200161038d565b34801561043d57600080fd5b5061041061044c366004612c1e565b610a3e565b61041061045f366004612c5a565b610a6f565b34801561047057600080fd5b50610410610c37565b34801561048557600080fd5b50610410610494366004612bbf565b610e5b565b3480156104a557600080fd5b506104236104b4366004612bf4565b611050565b3480156104c557600080fd5b506104106110e6565b3480156104da57600080fd5b5061041061111a565b61041061114c565b3480156104f757600080fd5b506010546103d8906001600160a01b031681565b34801561051757600080fd5b50610410610526366004612c1e565b6111ce565b34801561053757600080fd5b506011546103d8906001600160a01b031681565b34801561055757600080fd5b50610423610566366004612bbf565b6111e9565b34801561057757600080fd5b50610423610586366004612bbf565b61127c565b34801561059757600080fd5b506104236105a6366004612bbf565b600e6020526000908152604090205481565b3480156105c457600080fd5b50600a5460ff16610381565b3480156105dc57600080fd5b506103d86105eb366004612bbf565b6112b8565b6104106105fe366004612c8d565b611318565b34801561060f57600080fd5b5061041061061e366004612cc2565b6114b9565b34801561062f57600080fd5b5061042361063e366004612cc2565b6116e6565b34801561064f57600080fd5b5061042361065e366004612bbf565b600f6020526000908152604090205481565b34801561067c57600080fd5b5061041061068b366004612bbf565b61176c565b34801561069c57600080fd5b506104106106ab366004612bbf565b61179b565b3480156106bc57600080fd5b506104106106cb366004612bbf565b611866565b3480156106dc57600080fd5b506104106106eb366004612bbf565b611895565b3480156106fc57600080fd5b506103ab611add565b34801561071157600080fd5b50610410610720366004612ceb565b611aec565b34801561073157600080fd5b50610423610740366004612bbf565b611af7565b34801561075157600080fd5b50610410610760366004612dae565b611b25565b34801561077157600080fd5b50610785610780366004612bbf565b611b5d565b60405161038d96959493929190612e2a565b3480156107a357600080fd5b506103ab6107b2366004612bbf565b611cb9565b3480156107c357600080fd5b506103816107d2366004612e75565b6001600160a01b03918216600090815260056020908152604080832093909416825291909152205460ff1690565b34801561080c57600080fd5b5061041061081b366004612bbf565b611d85565b34801561082c57600080fd5b5061041061083b366004612ec8565b611db4565b60006001600160e01b0319821663780e9d6360e01b1480610865575061086582611ea2565b92915050565b60606000805461087a90612f47565b80601f01602080910402602001604051908101604052809291908181526020018280546108a690612f47565b80156108f35780601f106108c8576101008083540402835291602001916108f3565b820191906000526020600020905b8154815290600101906020018083116108d657829003601f168201915b5050505050905090565b600061090882611ef2565b506000908152600460205260409020546001600160a01b031690565b600061092f826112b8565b9050806001600160a01b0316836001600160a01b0316036109a15760405162461bcd60e51b815260206004820152602160248201527f4552433732313a20617070726f76616c20746f2063757272656e74206f776e656044820152603960f91b60648201526084015b60405180910390fd5b336001600160a01b03821614806109bd57506109bd81336107d2565b610a2f5760405162461bcd60e51b815260206004820152603e60248201527f4552433732313a20617070726f76652063616c6c6572206973206e6f7420746f60448201527f6b656e206f776e6572206e6f7220617070726f76656420666f7220616c6c00006064820152608401610998565b610a398383611f51565b505050565b610a483382611fbf565b610a645760405162461bcd60e51b815260040161099890612f81565b610a3983838361203d565b600c548210610ab35760405162461bcd60e51b815260206004820152601060248201526f496e76616c69642063617465676f727960801b6044820152606401610998565b4260155410610b045760405162461bcd60e51b815260206004820152601c60248201527f5468652073616c6520686173206e6f74207374617274656420796574000000006044820152606401610998565b600c8281548110610b1757610b17612fcf565b906000526020600020906006020160040154600c8381548110610b3c57610b3c612fcf565b906000526020600020906006020160030154610b589190612fe5565b811115610b9c5760405162461bcd60e51b81526020600482015260126024820152714e6f7420656e6f7567687420737570706c7960701b6044820152606401610998565b60015b81811015610bf857610bb984610bb4600b5490565b6121e4565b82600d6000610bc7600b5490565b8152602081019190915260400160002055610be6600b80546001019055565b80610bf081612ffc565b915050610b9f565b5080600c8381548110610c0d57610c0d612fcf565b90600052602060002090600602016004016000828254610c2d9190613015565b9091555050505050565b6000610c42336116e6565b11610c8f5760405162461bcd60e51b815260206004820152601a60248201527f796f7520646f206e6f7420706f736573732074686973206e66740000000000006044820152606401610998565b6000805b610c9c336116e6565b811015610d65576000610caf3383611050565b6000818152600d6020908152604080832054808452600e835281842054858552600f9093529220549293509091108015610cf657506000818152600e602052604090205415155b15610d50576000828152600f6020908152604080832054848452600e909252822054610d229190612fe5565b9050610d2e8186613015565b6000838152600e6020908152604080832054878452600f909252909120559450505b50508080610d5d90612ffc565b915050610c93565b5060008111610dc25760405162461bcd60e51b8152602060048201526024808201527f796f7520616c726561647920636c61696d656420616c6c20796f7572207265776044820152636172647360e01b6064820152608401610998565b60105460405163a9059cbb60e01b8152336004820152602481018390526000916001600160a01b03169063a9059cbb906044016020604051808303816000875af1158015610e14573d6000803e3d6000fd5b505050506040513d601f19601f82011682018060405250810190610e38919061302d565b905080610e575760405162461bcd60e51b81526004016109989061304a565b5050565b6012546001600160a01b03163314610e855760405162461bcd60e51b815260040161099890613095565b60008111610ec95760405162461bcd60e51b81526020600482015260116024820152700616d6f756e742063616e2774206265203607c1b6044820152606401610998565b6010546040516323b872dd60e01b8152336004820152306024820152604481018390526000916001600160a01b0316906323b872dd906064016020604051808303816000875af1158015610f21573d6000803e3d6000fd5b505050506040513d601f19601f82011682018060405250810190610f45919061302d565b905080610f645760405162461bcd60e51b81526004016109989061304a565b60005b600c54811015611012576064600c8281548110610f8657610f86612fcf565b906000526020600020906006020160030154600c8381548110610fab57610fab612fcf565b90600052602060002090600602016005015485610fc89190612ad1565b610fd29190612b06565b610fdc9190612b06565b6000828152600e602052604081208054909190610ffa908490613015565b9091555081905061100a81612ffc565b915050610f67565b5060408051338152602081018490527f332c3fd68e199528deb4a5631f1c91795464d13656d118e824c5da4f75ea83e5910160405180910390a15050565b600061105b836116e6565b82106110bd5760405162461bcd60e51b815260206004820152602b60248201527f455243373231456e756d657261626c653a206f776e657220696e646578206f7560448201526a74206f6620626f756e647360a81b6064820152608401610998565b506001600160a01b03919091166000908152600660209081526040808320938352929052205490565b6012546001600160a01b031633146111105760405162461bcd60e51b815260040161099890613095565b6111186121fe565b565b6012546001600160a01b031633146111445760405162461bcd60e51b815260040161099890613095565b611118612250565b6012546001600160a01b031633146111765760405162461bcd60e51b815260040161099890613095565b604051600090339047908381818185875af1925050503d80600081146111b8576040519150601f19603f3d011682016040523d82523d6000602084013e6111bd565b606091505b50509050806111cb57600080fd5b50565b610a3983838360405180602001604052806000815250611b25565b60006111f460085490565b82106112575760405162461bcd60e51b815260206004820152602c60248201527f455243373231456e756d657261626c653a20676c6f62616c20696e646578206f60448201526b7574206f6620626f756e647360a01b6064820152608401610998565b6008828154811061126a5761126a612fcf565b90600052602060002001549050919050565b6000818152600d6020908152604080832054600f835281842054818552600e90935290832054909183916112b09190612fe5565b949350505050565b6000818152600260205260408120546001600160a01b0316806108655760405162461bcd60e51b8152602060048201526018602482015277115490cdcc8c4e881a5b9d985b1a59081d1bdad95b88125160421b6044820152606401610998565b61132061228d565b600c5482106113645760405162461bcd60e51b815260206004820152601060248201526f496e76616c69642063617465676f727960801b6044820152606401610998565b42601554106113b55760405162461bcd60e51b815260206004820152601c60248201527f5468652073616c6520686173206e6f74207374617274656420796574000000006044820152606401610998565b600c82815481106113c8576113c8612fcf565b906000526020600020906006020160040154600c83815481106113ed576113ed612fcf565b9060005260206000209060060201600301546114099190612fe5565b83111561144d5760405162461bcd60e51b81526020600482015260126024820152714e6f7420656e6f7567687420737570706c7960701b6044820152606401610998565b60015b838110156114a45761146582610bb4600b5490565b82600d6000611473600b5490565b8152602081019190915260400160002055611492600b80546001019055565b8061149c81612ffc565b915050611450565b5082600c8381548110610c0d57610c0d612fcf565b6012546001600160a01b031633146114e35760405162461bcd60e51b815260040161099890613095565b6012546013546040516370a0823160e01b81523060048201526001600160a01b038481169363a9059cbb939116916064919085906370a0823190602401602060405180830381865afa15801561153d573d6000803e3d6000fd5b505050506040513d601f19601f8201168201806040525081019061156191906130ca565b61156b9190612ad1565b6115759190612b06565b6040516001600160e01b031960e085901b1681526001600160a01b03909216600483015260248201526044016020604051808303816000875af11580156115c0573d6000803e3d6000fd5b505050506040513d601f19601f820116820180604052508101906115e4919061302d565b506011546014546040516370a0823160e01b81523060048201526001600160a01b038481169363a9059cbb939116916064919085906370a0823190602401602060405180830381865afa15801561163f573d6000803e3d6000fd5b505050506040513d601f19601f8201168201806040525081019061166391906130ca565b61166d9190612ad1565b6116779190612b06565b6040516001600160e01b031960e085901b1681526001600160a01b03909216600483015260248201526044016020604051808303816000875af11580156116c2573d6000803e3d6000fd5b505050506040513d601f19601f82011682018060405250810190610e57919061302d565b60006001600160a01b0382166117505760405162461bcd60e51b815260206004820152602960248201527f4552433732313a2061646472657373207a65726f206973206e6f7420612076616044820152683634b21037bbb732b960b91b6064820152608401610998565b506001600160a01b031660009081526003602052604090205490565b6012546001600160a01b031633146117965760405162461bcd60e51b815260040161099890613095565b601355565b6012546001600160a01b031633146117c55760405162461bcd60e51b815260040161099890613095565b600c54811061180a5760405162461bcd60e51b8152602060048201526011602482015270092dcc8caf040d2e640e8dede40d0d2ced607b1b6044820152606401610998565b600c818154811061181d5761181d612fcf565b6000918252602082206006909102019061183782826129e8565b6118456001830160006129e8565b50600060028201819055600382018190556004820181905560059091015550565b6012546001600160a01b031633146118905760405162461bcd60e51b815260040161099890613095565b601555565b60085481106118dd5760405162461bcd60e51b81526020600482015260146024820152731d1a1a5cc81a5908191bc81b9bdd08195e1a5cdd60621b6044820152606401610998565b6000818152600d6020526040902054336118f6836112b8565b6001600160a01b0316146119445760405162461bcd60e51b81526020600482015260156024820152741b9bdd081bdddb995c881bd9881d1a1a5cc8139195605a1b6044820152606401610998565b6000818152600e60205260409020546119905760405162461bcd60e51b815260206004820152600e60248201526d139bc814995dd85c991cc816595d60921b6044820152606401610998565b6000818152600e6020908152604080832054858452600f90925290912054106119fb5760405162461bcd60e51b815260206004820152601f60248201527f596f7520616c726561647920636c61696d656420796f757220726577617264006044820152606401610998565b6000828152600f6020908152604080832054848452600e909252822054611a229190612fe5565b60105460405163a9059cbb60e01b8152336004820152602481018390529192506000916001600160a01b039091169063a9059cbb906044016020604051808303816000875af1158015611a79573d6000803e3d6000fd5b505050506040513d601f19601f82011682018060405250810190611a9d919061302d565b905080611abc5760405162461bcd60e51b81526004016109989061304a565b50506000908152600e6020908152604080832054938352600f909152902055565b60606001805461087a90612f47565b610e573383836122d3565b6000600c8281548110611b0c57611b0c612fcf565b9060005260206000209060060201600201549050919050565b611b2f3383611fbf565b611b4b5760405162461bcd60e51b815260040161099890612f81565b611b57848484846123a1565b50505050565b600c8181548110611b6d57600080fd5b9060005260206000209060060201600091509050806000018054611b9090612f47565b80601f0160208091040260200160405190810160405280929190818152602001828054611bbc90612f47565b8015611c095780601f10611bde57610100808354040283529160200191611c09565b820191906000526020600020905b815481529060010190602001808311611bec57829003601f168201915b505050505090806001018054611c1e90612f47565b80601f0160208091040260200160405190810160405280929190818152602001828054611c4a90612f47565b8015611c975780601f10611c6c57610100808354040283529160200191611c97565b820191906000526020600020905b815481529060010190602001808311611c7a57829003601f168201915b5050505050908060020154908060030154908060040154908060050154905086565b6000818152600260205260409020546060906001600160a01b0316611d205760405162461bcd60e51b815260206004820152601f60248201527f55524920717565727920666f72206e6f6e6578697374656e7420746f6b656e006044820152606401610998565b6000828152600d6020526040902054600c805482908110611d4357611d43612fcf565b9060005260206000209060060201600101611d5d846123d4565b604051602001611d6e9291906130ff565b604051602081830303815290604052915050919050565b6012546001600160a01b03163314611daf5760405162461bcd60e51b815260040161099890613095565b601455565b6012546001600160a01b03163314611dde5760405162461bcd60e51b815260040161099890613095565b6040805160c08101825286815260208082018790529181018590526060810184905260006080820181905260a08201849052600c8054600181018255915281518051929360069092027fdf6966c971051c3d54ec59162606531493a51404a002842f56009d7e5cf4a8c70192611e579284920190612a22565b506020828101518051611e709260018501920190612a22565b5060408201518160020155606082015181600301556080820151816004015560a0820151816005015550505050505050565b60006001600160e01b031982166380ac58cd60e01b1480611ed357506001600160e01b03198216635b5e139f60e01b145b8061086557506301ffc9a760e01b6001600160e01b0319831614610865565b6000818152600260205260409020546001600160a01b03166111cb5760405162461bcd60e51b8152602060048201526018602482015277115490cdcc8c4e881a5b9d985b1a59081d1bdad95b88125160421b6044820152606401610998565b600081815260046020526040902080546001600160a01b0319166001600160a01b0384169081179091558190611f86826112b8565b6001600160a01b03167f8c5be1e5ebec7d5bd14f71427d1e84f3dd0314c0f7b2291e5b200ac8c7c3b92560405160405180910390a45050565b600080611fcb836112b8565b9050806001600160a01b0316846001600160a01b0316148061201257506001600160a01b0380821660009081526005602090815260408083209388168352929052205460ff165b806112b05750836001600160a01b031661202b846108fd565b6001600160a01b031614949350505050565b826001600160a01b0316612050826112b8565b6001600160a01b0316146120b45760405162461bcd60e51b815260206004820152602560248201527f4552433732313a207472616e736665722066726f6d20696e636f72726563742060448201526437bbb732b960d91b6064820152608401610998565b6001600160a01b0382166121165760405162461bcd60e51b8152602060048201526024808201527f4552433732313a207472616e7366657220746f20746865207a65726f206164646044820152637265737360e01b6064820152608401610998565b6121218383836124d5565b61212c600082611f51565b6001600160a01b0383166000908152600360205260408120805460019290612155908490612fe5565b90915550506001600160a01b0382166000908152600360205260408120805460019290612183908490613015565b909155505060008181526002602052604080822080546001600160a01b0319166001600160a01b0386811691821790925591518493918716917fddf252ad1be2c89b69c2b068fc378daa952ba7f163c4a11628f55a4df523b3ef91a4505050565b610e5782826040518060200160405280600081525061258d565b6122066125c0565b600a805460ff191690557f5db9ee0a495bf2e6ff9c91a7834c1ba4fdd244a5e8aa4e537bd38aeae4b073aa335b6040516001600160a01b03909116815260200160405180910390a1565b61225861228d565b600a805460ff191660011790557f62e78cea01bee320cd4e420270b5ea74000d11b0c9f74754ebdbfc544b05a2586122333390565b600a5460ff16156111185760405162461bcd60e51b815260206004820152601060248201526f14185d5cd8589b194e881c185d5cd95960821b6044820152606401610998565b816001600160a01b0316836001600160a01b0316036123345760405162461bcd60e51b815260206004820152601960248201527f4552433732313a20617070726f766520746f2063616c6c6572000000000000006044820152606401610998565b6001600160a01b03838116600081815260056020908152604080832094871680845294825291829020805460ff191686151590811790915591519182527f17307eab39ab6107e8899845ad3d59bd9653f200f220920489ca2b5937696c31910160405180910390a3505050565b6123ac84848461203d565b6123b884848484612609565b611b575760405162461bcd60e51b8152600401610998906131b9565b6060816000036123fb5750506040805180820190915260018152600360fc1b602082015290565b8160005b8115612425578061240f81612ffc565b915061241e9050600a83612b06565b91506123ff565b60008167ffffffffffffffff81111561244057612440612d22565b6040519080825280601f01601f19166020018201604052801561246a576020820181803683370190505b5090505b84156112b05761247f600183612fe5565b915061248c600a8661320b565b612497906030613015565b60f81b8183815181106124ac576124ac612fcf565b60200101906001600160f81b031916908160001a9053506124ce600a86612b06565b945061246e565b6001600160a01b0383166125305761252b81600880546000838152600960205260408120829055600182018355919091527ff3f7a9fe364faab93b216da50a3214154f22a0a2b415b23a84c8169e8b636ee30155565b612553565b816001600160a01b0316836001600160a01b03161461255357612553838261270a565b6001600160a01b03821661256a57610a39816127a7565b826001600160a01b0316826001600160a01b031614610a3957610a398282612856565b612597838361289a565b6125a46000848484612609565b610a395760405162461bcd60e51b8152600401610998906131b9565b600a5460ff166111185760405162461bcd60e51b815260206004820152601460248201527314185d5cd8589b194e881b9bdd081c185d5cd95960621b6044820152606401610998565b60006001600160a01b0384163b156126ff57604051630a85bd0160e11b81526001600160a01b0385169063150b7a029061264d90339089908890889060040161321f565b6020604051808303816000875af1925050508015612688575060408051601f3d908101601f191682019092526126859181019061325c565b60015b6126e5573d8080156126b6576040519150601f19603f3d011682016040523d82523d6000602084013e6126bb565b606091505b5080516000036126dd5760405162461bcd60e51b8152600401610998906131b9565b805181602001fd5b6001600160e01b031916630a85bd0160e11b1490506112b0565b506001949350505050565b60006001612717846116e6565b6127219190612fe5565b600083815260076020526040902054909150808214612774576001600160a01b03841660009081526006602090815260408083208584528252808320548484528184208190558352600790915290208190555b5060009182526007602090815260408084208490556001600160a01b039094168352600681528383209183525290812055565b6008546000906127b990600190612fe5565b600083815260096020526040812054600880549394509092849081106127e1576127e1612fcf565b90600052602060002001549050806008838154811061280257612802612fcf565b600091825260208083209091019290925582815260099091526040808220849055858252812055600880548061283a5761283a613279565b6001900381819060005260206000200160009055905550505050565b6000612861836116e6565b6001600160a01b039093166000908152600660209081526040808320868452825280832085905593825260079052919091209190915550565b6001600160a01b0382166128f05760405162461bcd60e51b815260206004820181905260248201527f4552433732313a206d696e7420746f20746865207a65726f20616464726573736044820152606401610998565b6000818152600260205260409020546001600160a01b0316156129555760405162461bcd60e51b815260206004820152601c60248201527f4552433732313a20746f6b656e20616c7265616479206d696e746564000000006044820152606401610998565b612961600083836124d5565b6001600160a01b038216600090815260036020526040812080546001929061298a908490613015565b909155505060008181526002602052604080822080546001600160a01b0319166001600160a01b03861690811790915590518392907fddf252ad1be2c89b69c2b068fc378daa952ba7f163c4a11628f55a4df523b3ef908290a45050565b5080546129f490612f47565b6000825580601f10612a04575050565b601f0160209004906000526020600020908101906111cb9190612aa6565b828054612a2e90612f47565b90600052602060002090601f016020900481019282612a505760008555612a96565b82601f10612a6957805160ff1916838001178555612a96565b82800160010185558215612a96579182015b82811115612a96578251825591602001919060010190612a7b565b50612aa2929150612aa6565b5090565b5b80821115612aa25760008155600101612aa7565b634e487b7160e01b600052601160045260246000fd5b6000816000190483118215151615612aeb57612aeb612abb565b500290565b634e487b7160e01b600052601260045260246000fd5b600082612b1557612b15612af0565b500490565b6001600160e01b0319811681146111cb57600080fd5b600060208284031215612b4257600080fd5b8135612b4d81612b1a565b9392505050565b60005b83811015612b6f578181015183820152602001612b57565b83811115611b575750506000910152565b60008151808452612b98816020860160208601612b54565b601f01601f19169290920160200192915050565b602081526000612b4d6020830184612b80565b600060208284031215612bd157600080fd5b5035919050565b80356001600160a01b0381168114612bef57600080fd5b919050565b60008060408385031215612c0757600080fd5b612c1083612bd8565b946020939093013593505050565b600080600060608486031215612c3357600080fd5b612c3c84612bd8565b9250612c4a60208501612bd8565b9150604084013590509250925092565b600080600060608486031215612c6f57600080fd5b612c7884612bd8565b95602085013595506040909401359392505050565b600080600060608486031215612ca257600080fd5b8335925060208401359150612cb960408501612bd8565b90509250925092565b600060208284031215612cd457600080fd5b612b4d82612bd8565b80151581146111cb57600080fd5b60008060408385031215612cfe57600080fd5b612d0783612bd8565b91506020830135612d1781612cdd565b809150509250929050565b634e487b7160e01b600052604160045260246000fd5b600067ffffffffffffffff80841115612d5357612d53612d22565b604051601f8501601f19908116603f01168101908282118183101715612d7b57612d7b612d22565b81604052809350858152868686011115612d9457600080fd5b858560208301376000602087830101525050509392505050565b60008060008060808587031215612dc457600080fd5b612dcd85612bd8565b9350612ddb60208601612bd8565b925060408501359150606085013567ffffffffffffffff811115612dfe57600080fd5b8501601f81018713612e0f57600080fd5b612e1e87823560208401612d38565b91505092959194509250565b60c081526000612e3d60c0830189612b80565b8281036020840152612e4f8189612b80565b9150508560408301528460608301528360808301528260a0830152979650505050505050565b60008060408385031215612e8857600080fd5b612e9183612bd8565b9150612e9f60208401612bd8565b90509250929050565b600082601f830112612eb957600080fd5b612b4d83833560208501612d38565b600080600080600060a08688031215612ee057600080fd5b853567ffffffffffffffff80821115612ef857600080fd5b612f0489838a01612ea8565b96506020880135915080821115612f1a57600080fd5b50612f2788828901612ea8565b959895975050505060408401359360608101359360809091013592509050565b600181811c90821680612f5b57607f821691505b602082108103612f7b57634e487b7160e01b600052602260045260246000fd5b50919050565b6020808252602e908201527f4552433732313a2063616c6c6572206973206e6f7420746f6b656e206f776e6560408201526d1c881b9bdc88185c1c1c9bdd995960921b606082015260800190565b634e487b7160e01b600052603260045260246000fd5b600082821015612ff757612ff7612abb565b500390565b60006001820161300e5761300e612abb565b5060010190565b6000821982111561302857613028612abb565b500190565b60006020828403121561303f57600080fd5b8151612b4d81612cdd565b6020808252602b908201527f436f756c64206e6f74207472616e7366657220746f6b656e2e204d697373696e60408201526a6720617070726f76616c3f60a81b606082015260800190565b6020808252818101527f4f776e61626c653a2063616c6c6572206973206e6f7420746865206f776e6572604082015260600190565b6000602082840312156130dc57600080fd5b5051919050565b600081516130f5818560208601612b54565b9290920192915050565b600080845481600182811c91508083168061311b57607f831692505b6020808410820361313a57634e487b7160e01b86526022600452602486fd5b81801561314e576001811461315f5761318c565b60ff1986168952848901965061318c565b60008b81526020902060005b868110156131845781548b82015290850190830161316b565b505084890196505b5050505050506131b061319f82866130e3565b64173539b7b760d91b815260050190565b95945050505050565b60208082526032908201527f4552433732313a207472616e7366657220746f206e6f6e20455243373231526560408201527131b2b4bb32b91034b6b83632b6b2b73a32b960711b606082015260800190565b60008261321a5761321a612af0565b500690565b6001600160a01b038581168252841660208201526040810183905260806060820181905260009061325290830184612b80565b9695505050505050565b60006020828403121561326e57600080fd5b8151612b4d81612b1a565b634e487b7160e01b600052603160045260246000fdfea26469706673582212203d9019498ad7f21f899a7d32faa3d13cf23d2ab04b3c73a3f8a090b061d48d1b64736f6c634300080e0033a26469706673582212201696c22d22d0509e5ea5b4a71056c23314628eaacb40748a05de189917ddbda364736f6c634300080e0033",
  "linkReferences": {},
  "deployedLinkReferences": {}
}