{
  "_format": "hh-sol-artifact-1",
  "contractName": "FactoryERC721",
  "sourceName": "contracts/factory.sol",
  "abi": [
    {
      "anonymous": false,
      "inputs": [
        {
          "indexed": false,
          "internalType": "address",
          "name": "addr",
          "type": "address"
        },
        {
          "indexed": false,
          "internalType": "uint256",
          "name": "salt",
          "type": "uint256"
        }
      ],
      "name": "Deployed",
      "type": "event"
    },
    {
      "inputs": [
        {
          "internalType": "bytes",
          "name": "bytecode",
          "type": "bytes"
        },
        {
          "internalType": "uint256",
          "name": "_salt",
          "type": "uint256"
        }
      ],
      "name": "deploy",
      "outputs": [
        {
          "internalType": "address",
          "name": "",
          "type": "address"
        }
      ],
      "stateMutability": "payable",
      "type": "function"
    },
    {
      "inputs": [
        {
          "internalType": "bytes",
          "name": "bytecode",
          "type": "bytes"
        },
        {
          "internalType": "uint256",
          "name": "_salt",
          "type": "uint256"
        }
      ],
      "name": "getAddress",
      "outputs": [
        {
          "internalType": "address",
          "name": "",
          "type": "address"
        }
      ],
      "stateMutability": "view",
      "type": "function"
    },
    {
      "inputs": [
        {
          "internalType": "string[]",
          "name": "_categories",
          "type": "string[]"
        },
        {
          "internalType": "string[]",
          "name": "_baseUri",
          "type": "string[]"
        },
        {
          "internalType": "uint256[]",
          "name": "_price",
          "type": "uint256[]"
        },
        {
          "internalType": "uint256[]",
          "name": "_maxSupply",
          "type": "uint256[]"
        },
        {
          "internalType": "uint256[]",
          "name": "_percentages",
          "type": "uint256[]"
        },
        {
          "internalType": "address",
          "name": "_usdc",
          "type": "address"
        },
        {
          "internalType": "address",
          "name": "_investor",
          "type": "address"
        },
        {
          "internalType": "address",
          "name": "_artist",
          "type": "address"
        }
      ],
      "name": "getBytecode",
      "outputs": [
        {
          "internalType": "bytes",
          "name": "",
          "type": "bytes"
        }
      ],
      "stateMutability": "pure",
      "type": "function"
    }
  ],
  "bytecode": "0x608060405234801561001057600080fd5b506140d1806100206000396000f3fe608060405260043610620000385760003560e01c80637470a490146200003d57806394ca2cb5146200007a5780639c4ae2d0146200010e575b600080fd5b3480156200004a57600080fd5b50620000626200005c36600462000421565b62000125565b6040516200007191906200059c565b60405180910390f35b3480156200008757600080fd5b50620000f562000099366004620005b8565b8151602092830120604080516001600160f81b0319818601523060601b6bffffffffffffffffffffffff191660218201526035810193909352605580840192909252805180840390920182526075909201909152805191012090565b6040516001600160a01b03909116815260200162000071565b620000f56200011f366004620005b8565b620001b1565b60606000604051806020016200013b9062000214565b6020820181038252601f19601f820116604052509050808a8a8a8a8a8a8a8a60405160200162000173989796959493929190620006ac565b60408051601f198184030181529082905262000193929160200162000748565b60405160208183030381529060405291505098975050505050505050565b6000808284516020860134f59050803b620001cb57600080fd5b604080516001600160a01b0383168152602081018590527fb03c53b28e78a88e31607a27e1fa48234dce28d5d9d9ec7b295aeb02e674a1e1910160405180910390a19392505050565b613920806200077c83390190565b634e487b7160e01b600052604160045260246000fd5b604051601f8201601f1916810167ffffffffffffffff8111828210171562000264576200026462000222565b604052919050565b600067ffffffffffffffff82111562000289576200028962000222565b5060051b60200190565b600067ffffffffffffffff831115620002b057620002b062000222565b620002c5601f8401601f191660200162000238565b9050828152838383011115620002da57600080fd5b828260208301376000602084830101529392505050565b600082601f8301126200030357600080fd5b813560206200031c62000316836200026c565b62000238565b82815260059290921b840181019181810190868411156200033c57600080fd5b8286015b848110156200039757803567ffffffffffffffff811115620003625760008081fd5b8701603f81018913620003755760008081fd5b6200038889868301356040840162000293565b84525091830191830162000340565b509695505050505050565b600082601f830112620003b457600080fd5b81356020620003c762000316836200026c565b82815260059290921b84018101918181019086841115620003e757600080fd5b8286015b84811015620003975780358352918301918301620003eb565b80356001600160a01b03811681146200041c57600080fd5b919050565b600080600080600080600080610100898b0312156200043f57600080fd5b883567ffffffffffffffff808211156200045857600080fd5b620004668c838d01620002f1565b995060208b01359150808211156200047d57600080fd5b6200048b8c838d01620002f1565b985060408b0135915080821115620004a257600080fd5b620004b08c838d01620003a2565b975060608b0135915080821115620004c757600080fd5b620004d58c838d01620003a2565b965060808b0135915080821115620004ec57600080fd5b50620004fb8b828c01620003a2565b9450506200050c60a08a0162000404565b92506200051c60c08a0162000404565b91506200052c60e08a0162000404565b90509295985092959890939650565b60005b83811015620005585781810151838201526020016200053e565b8381111562000568576000848401525b50505050565b60008151808452620005888160208601602086016200053b565b601f01601f19169290920160200192915050565b602081526000620005b160208301846200056e565b9392505050565b60008060408385031215620005cc57600080fd5b823567ffffffffffffffff811115620005e457600080fd5b8301601f81018513620005f657600080fd5b620006078582356020840162000293565b95602094909401359450505050565b600081518084526020808501808196508360051b8101915082860160005b85811015620006625782840389526200064f8483516200056e565b9885019893509084019060010162000634565b5091979650505050505050565b600081518084526020808501945080840160005b83811015620006a15781518752958201959082019060010162000683565b509495945050505050565b6000610100808352620006c28184018c62000616565b90508281036020840152620006d8818b62000616565b90508281036040840152620006ee818a6200066f565b905082810360608401526200070481896200066f565b905082810360808401526200071a81886200066f565b6001600160a01b0396871660a085015294861660c08401525050921660e09092019190915295945050505050565b600083516200075c8184602088016200053b565b835190830190620007728183602088016200053b565b0194935050505056fe6080604052603260135560326014553480156200001b57600080fd5b5060405162003920380380620039208339810160408190526200003e916200064c565b60408051808201825260048152631d195cdd60e21b602080830191825283518085019094526002845261151560f21b908401528151919291620000849160009162000391565b5080516200009a90600190602084019062000391565b5050600a805460ff191690555086518851148015620000ba575085518851145b8015620000c8575084518851145b8015620000d6575083518851145b620001345760405162461bcd60e51b8152602060048201526024808201527f416c6c20617272617973206d7573742068617665207468652073616d65206c656044820152630dccee8d60e31b60648201526084015b60405180910390fd5b6200013f846200033a565b6064146200019b5760405162461bcd60e51b815260206004820152602260248201527f5468652073756d206f662070657263656e7461676573206d7573742062652031604482015261030360f41b60648201526084016200012b565b60005b8851811015620002f057600c6040518060c001604052808b8481518110620001ca57620001ca62000765565b602002602001015181526020018a8481518110620001ec57620001ec62000765565b602002602001015181526020018984815181106200020e576200020e62000765565b6020026020010151815260200188848151811062000230576200023062000765565b602002602001015181526020016000815260200187848151811062000259576200025962000765565b60209081029190910181015190915282546001810184556000938452928190208251805193946006029091019262000295928492019062000391565b506020828101518051620002b0926001850192019062000391565b5060408201516002820155606082015160038201556080820151600482015560a09091015160059091015580620002e78162000791565b9150506200019e565b50601080546001600160a01b039485166001600160a01b03199182161790915560128054928516928216929092179091556011805492909316911617905550620008049350505050565b600080805b83518110156200038a578381815181106200035e576200035e62000765565b602002602001015182620003739190620007ad565b915080620003818162000791565b9150506200033f565b5092915050565b8280546200039f90620007c8565b90600052602060002090601f016020900481019282620003c357600085556200040e565b82601f10620003de57805160ff19168380011785556200040e565b828001600101855582156200040e579182015b828111156200040e578251825591602001919060010190620003f1565b506200041c92915062000420565b5090565b5b808211156200041c576000815560010162000421565b634e487b7160e01b600052604160045260246000fd5b604051601f8201601f191681016001600160401b038111828210171562000478576200047862000437565b604052919050565b60006001600160401b038211156200049c576200049c62000437565b5060051b60200190565b6000601f8381840112620004b957600080fd5b82516020620004d2620004cc8362000480565b6200044d565b82815260059290921b85018101918181019087841115620004f257600080fd5b8287015b84811015620005b65780516001600160401b0380821115620005185760008081fd5b818a0191508a603f8301126200052e5760008081fd5b858201518181111562000545576200054562000437565b62000558818a01601f191688016200044d565b915080825260408c81838601011115620005725760008081fd5b60005b8281101562000592578481018201518482018a0152880162000575565b82811115620005a45760008984860101525b505050845250918301918301620004f6565b50979650505050505050565b600082601f830112620005d457600080fd5b81516020620005e7620004cc8362000480565b82815260059290921b840181019181810190868411156200060757600080fd5b8286015b848110156200062457805183529183019183016200060b565b509695505050505050565b80516001600160a01b03811681146200064757600080fd5b919050565b600080600080600080600080610100898b0312156200066a57600080fd5b88516001600160401b03808211156200068257600080fd5b620006908c838d01620004a6565b995060208b0151915080821115620006a757600080fd5b620006b58c838d01620004a6565b985060408b0151915080821115620006cc57600080fd5b620006da8c838d01620005c2565b975060608b0151915080821115620006f157600080fd5b620006ff8c838d01620005c2565b965060808b01519150808211156200071657600080fd5b50620007258b828c01620005c2565b9450506200073660a08a016200062f565b92506200074660c08a016200062f565b91506200075660e08a016200062f565b90509295985092959890939650565b634e487b7160e01b600052603260045260246000fd5b634e487b7160e01b600052601160045260246000fd5b600060018201620007a657620007a66200077b565b5060010190565b60008219821115620007c357620007c36200077b565b500190565b600181811c90821680620007dd57607f821691505b602082108103620007fe57634e487b7160e01b600052602260045260246000fd5b50919050565b61310c80620008146000396000f3fe6080604052600436106101e75760003560e01c8063546b7e0a11610102578063a22cb46511610095578063c87b56dd11610064578063c87b56dd146106a2578063e985e9c5146106c2578063ecbe483f1461070b578063f31384b71461072b57600080fd5b8063a22cb46514610610578063b758966414610630578063b88d4fde14610650578063c6cdbe5e1461067057600080fd5b8063741faee6116100d1578063741faee61461058e57806380420b31146105bb57806386ad310f146105db57806395d89b41146105fb57600080fd5b8063546b7e0a146105095780635c975abb146105365780636352211e1461054e57806370a082311461056e57600080fd5b80632f745c591161017a5780633e413bee116101495780633e413bee1461048957806342842e0e146104a957806343bc1612146104c95780634f6ccce7146104e957600080fd5b80632f745c5914610437578063349fdb091461045757806337a66d851461046c5780633ccfd60b1461048157600080fd5b8063095ea7b3116101b6578063095ea7b3146103c357806318160ddd146103e357806323b872dd1461040257806326c02d231461042257600080fd5b806301ffc9a71461031f5780630247051f1461035457806306fdde0314610369578063081812fc1461038b57600080fd5b3661031a576012546013546000916001600160a01b0316906103e89061020d90346128b5565b61021791906128ea565b604051600081818185875af1925050503d8060008114610253576040519150601f19603f3d011682016040523d82523d6000602084013e610258565b606091505b505090508061026657600080fd5b6011546014546000916001600160a01b0316906103e89061028790346128b5565b61029191906128ea565b604051600081818185875af1925050503d80600081146102cd576040519150601f19603f3d011682016040523d82523d6000602084013e6102d2565b606091505b50509050806102e057600080fd5b604080513381523460208201527f7c6ffa8afa793623698938cd722cf1ed49a5fe661a60f5723fe00cc6f55baeb2910160405180910390a1005b600080fd5b34801561032b57600080fd5b5061033f61033a366004612914565b61073e565b60405190151581526020015b60405180910390f35b610367610362366004612938565b610769565b005b34801561037557600080fd5b5061037e610adc565b60405161034b91906129b2565b34801561039757600080fd5b506103ab6103a63660046129c5565b610b6e565b6040516001600160a01b03909116815260200161034b565b3480156103cf57600080fd5b506103676103de3660046129fa565b610b95565b3480156103ef57600080fd5b506008545b60405190815260200161034b565b34801561040e57600080fd5b5061036761041d366004612a24565b610caa565b34801561042e57600080fd5b50610367610cdb565b34801561044357600080fd5b506103f46104523660046129fa565b610f05565b34801561046357600080fd5b50610367610f9b565b34801561047857600080fd5b50610367610fcf565b610367611001565b34801561049557600080fd5b506010546103ab906001600160a01b031681565b3480156104b557600080fd5b506103676104c4366004612a24565b611083565b3480156104d557600080fd5b506011546103ab906001600160a01b031681565b3480156104f557600080fd5b506103f46105043660046129c5565b61109e565b34801561051557600080fd5b506103f46105243660046129c5565b600e6020526000908152604090205481565b34801561054257600080fd5b50600a5460ff1661033f565b34801561055a57600080fd5b506103ab6105693660046129c5565b611131565b34801561057a57600080fd5b506103f4610589366004612a60565b611191565b34801561059a57600080fd5b506103f46105a93660046129c5565b600f6020526000908152604090205481565b3480156105c757600080fd5b506103676105d63660046129c5565b611217565b3480156105e757600080fd5b506103676105f63660046129c5565b6112e2565b34801561060757600080fd5b5061037e611530565b34801561061c57600080fd5b5061036761062b366004612a89565b61153f565b34801561063c57600080fd5b5061036761064b366004612ac0565b61154a565b34801561065c57600080fd5b5061036761066b366004612b72565b611755565b34801561067c57600080fd5b5061069061068b3660046129c5565b61178d565b60405161034b96959493929190612bee565b3480156106ae57600080fd5b5061037e6106bd3660046129c5565b6118e9565b3480156106ce57600080fd5b5061033f6106dd366004612c39565b6001600160a01b03918216600090815260056020908152604080832093909416825291909152205460ff1690565b34801561071757600080fd5b50610367610726366004612c8c565b6119b5565b610367610739366004612d0b565b611aa3565b60006001600160e01b0319821663780e9d6360e01b1480610763575061076382611c85565b92915050565b3233146107bd5760405162461bcd60e51b815260206004820152601e60248201527f5468652063616c6c657220697320616e6f7468657220636f6e7472616374000060448201526064015b60405180910390fd5b6107c5611cd5565b600c5481106108095760405162461bcd60e51b815260206004820152601060248201526f496e76616c69642063617465676f727960801b60448201526064016107b4565b600c818154811061081c5761081c612d8e565b906000526020600020906006020160040154600c828154811061084157610841612d8e565b90600052602060002090600602016003015461085d9190612da4565b8211156108a15760405162461bcd60e51b81526020600482015260126024820152714e6f7420656e6f7567687420737570706c7960701b60448201526064016107b4565b600c81815481106108b4576108b4612d8e565b906000526020600020906006020160020154826108d191906128b5565b6010546040516370a0823160e01b81523360048201526001600160a01b03909116906370a0823190602401602060405180830381865afa158015610919573d6000803e3d6000fd5b505050506040513d601f19601f8201168201806040525081019061093d9190612dbb565b101561097e5760405162461bcd60e51b815260206004820152601060248201526f4e6f7420656e6f75676874205553444360801b60448201526064016107b4565b601054600c80546001600160a01b03909216916323b872dd913391309190869081106109ac576109ac612d8e565b906000526020600020906006020160020154866109c991906128b5565b6040516001600160e01b031960e086901b1681526001600160a01b03938416600482015292909116602483015260448201526064016020604051808303816000875af1158015610a1d573d6000803e3d6000fd5b505050506040513d601f19601f82011682018060405250810190610a419190612dd4565b5060005b82811015610a9e57610a5f33610a5a600b5490565b611d1b565b81600d6000610a6d600b5490565b8152602081019190915260400160002055610a8c600b80546001019055565b80610a9681612df1565b915050610a45565b5081600c8281548110610ab357610ab3612d8e565b90600052602060002090600602016004016000828254610ad39190612e0a565b90915550505050565b606060008054610aeb90612e22565b80601f0160208091040260200160405190810160405280929190818152602001828054610b1790612e22565b8015610b645780601f10610b3957610100808354040283529160200191610b64565b820191906000526020600020905b815481529060010190602001808311610b4757829003601f168201915b5050505050905090565b6000610b7982611d35565b506000908152600460205260409020546001600160a01b031690565b6000610ba082611131565b9050806001600160a01b0316836001600160a01b031603610c0d5760405162461bcd60e51b815260206004820152602160248201527f4552433732313a20617070726f76616c20746f2063757272656e74206f776e656044820152603960f91b60648201526084016107b4565b336001600160a01b0382161480610c295750610c2981336106dd565b610c9b5760405162461bcd60e51b815260206004820152603e60248201527f4552433732313a20617070726f76652063616c6c6572206973206e6f7420746f60448201527f6b656e206f776e6572206e6f7220617070726f76656420666f7220616c6c000060648201526084016107b4565b610ca58383611d94565b505050565b610cb43382611e02565b610cd05760405162461bcd60e51b81526004016107b490612e5c565b610ca5838383611e81565b6000610ce633611191565b11610d335760405162461bcd60e51b815260206004820152601a60248201527f796f7520646f206e6f7420706f736573732074686973206e667400000000000060448201526064016107b4565b6000805b610d4033611191565b811015610e09576000610d533383610f05565b6000818152600d6020908152604080832054808452600e835281842054858552600f9093529220549293509091108015610d9a57506000818152600e602052604090205415155b15610df4576000828152600f6020908152604080832054848452600e909252822054610dc69190612da4565b9050610dd28186612e0a565b6000838152600e6020908152604080832054878452600f909252909120559450505b50508080610e0190612df1565b915050610d37565b5060008111610e665760405162461bcd60e51b8152602060048201526024808201527f796f7520616c726561647920636c61696d656420616c6c20796f7572207265776044820152636172647360e01b60648201526084016107b4565b6010546040516323b872dd60e01b8152336004820152306024820152604481018390526000916001600160a01b0316906323b872dd906064016020604051808303816000875af1158015610ebe573d6000803e3d6000fd5b505050506040513d601f19601f82011682018060405250810190610ee29190612dd4565b905080610f015760405162461bcd60e51b81526004016107b490612eaa565b5050565b6000610f1083611191565b8210610f725760405162461bcd60e51b815260206004820152602b60248201527f455243373231456e756d657261626c653a206f776e657220696e646578206f7560448201526a74206f6620626f756e647360a81b60648201526084016107b4565b506001600160a01b03919091166000908152600660209081526040808320938352929052205490565b6011546001600160a01b03163314610fc55760405162461bcd60e51b81526004016107b490612ef5565b610fcd612028565b565b6011546001600160a01b03163314610ff95760405162461bcd60e51b81526004016107b490612ef5565b610fcd61207a565b6011546001600160a01b0316331461102b5760405162461bcd60e51b81526004016107b490612ef5565b604051600090339047908381818185875af1925050503d806000811461106d576040519150601f19603f3d011682016040523d82523d6000602084013e611072565b606091505b505090508061108057600080fd5b50565b610ca583838360405180602001604052806000815250611755565b60006110a960085490565b821061110c5760405162461bcd60e51b815260206004820152602c60248201527f455243373231456e756d657261626c653a20676c6f62616c20696e646578206f60448201526b7574206f6620626f756e647360a01b60648201526084016107b4565b6008828154811061111f5761111f612d8e565b90600052602060002001549050919050565b6000818152600260205260408120546001600160a01b0316806107635760405162461bcd60e51b8152602060048201526018602482015277115490cdcc8c4e881a5b9d985b1a59081d1bdad95b88125160421b60448201526064016107b4565b60006001600160a01b0382166111fb5760405162461bcd60e51b815260206004820152602960248201527f4552433732313a2061646472657373207a65726f206973206e6f7420612076616044820152683634b21037bbb732b960b91b60648201526084016107b4565b506001600160a01b031660009081526003602052604090205490565b6011546001600160a01b031633146112415760405162461bcd60e51b81526004016107b490612ef5565b600c5481106112865760405162461bcd60e51b8152602060048201526011602482015270092dcc8caf040d2e640e8dede40d0d2ced607b1b60448201526064016107b4565b600c818154811061129957611299612d8e565b600091825260208220600690910201906112b382826127cc565b6112c16001830160006127cc565b50600060028201819055600382018190556004820181905560059091015550565b600854811061132a5760405162461bcd60e51b81526020600482015260146024820152731d1a1a5cc81a5908191bc81b9bdd08195e1a5cdd60621b60448201526064016107b4565b6000818152600d60205260409020543361134383611131565b6001600160a01b0316146113915760405162461bcd60e51b81526020600482015260156024820152741b9bdd081bdddb995c881bd9881d1a1a5cc8139195605a1b60448201526064016107b4565b6000818152600e60205260409020546113dd5760405162461bcd60e51b815260206004820152600e60248201526d139bc814995dd85c991cc816595d60921b60448201526064016107b4565b6000818152600e6020908152604080832054858452600f90925290912054106114485760405162461bcd60e51b815260206004820152601f60248201527f596f7520616c726561647920636c61696d656420796f7572207265776172640060448201526064016107b4565b6000828152600f6020908152604080832054848452600e90925282205461146f9190612da4565b6010546040516323b872dd60e01b8152336004820152306024820152604481018390529192506000916001600160a01b03909116906323b872dd906064016020604051808303816000875af11580156114cc573d6000803e3d6000fd5b505050506040513d601f19601f820116820180604052508101906114f09190612dd4565b90508061150f5760405162461bcd60e51b81526004016107b490612eaa565b50506000908152600e6020908152604080832054938352600f909152902055565b606060018054610aeb90612e22565b610f013383836120b7565b6011546001600160a01b031633146115745760405162461bcd60e51b81526004016107b490612ef5565b60008163ffffffff16116115be5760405162461bcd60e51b81526020600482015260116024820152700616d6f756e742063616e2774206265203607c1b60448201526064016107b4565b6010546040516323b872dd60e01b815233600482015230602482015263ffffffff831660448201526000916001600160a01b0316906323b872dd906064016020604051808303816000875af115801561161b573d6000803e3d6000fd5b505050506040513d601f19601f8201168201806040525081019061163f9190612dd4565b90508061165e5760405162461bcd60e51b81526004016107b490612eaa565b60005b600c54811015611712576064600c828154811061168057611680612d8e565b906000526020600020906006020160030154600c83815481106116a5576116a5612d8e565b9060005260206000209060060201600501548563ffffffff166116c891906128b5565b6116d291906128ea565b6116dc91906128ea565b6000828152600e6020526040812080549091906116fa908490612e0a565b9091555081905061170a81612df1565b915050611661565b506040805133815263ffffffff841660208201527f332c3fd68e199528deb4a5631f1c91795464d13656d118e824c5da4f75ea83e5910160405180910390a15050565b61175f3383611e02565b61177b5760405162461bcd60e51b81526004016107b490612e5c565b61178784848484612185565b50505050565b600c818154811061179d57600080fd5b90600052602060002090600602016000915090508060000180546117c090612e22565b80601f01602080910402602001604051908101604052809291908181526020018280546117ec90612e22565b80156118395780601f1061180e57610100808354040283529160200191611839565b820191906000526020600020905b81548152906001019060200180831161181c57829003601f168201915b50505050509080600101805461184e90612e22565b80601f016020809104026020016040519081016040528092919081815260200182805461187a90612e22565b80156118c75780601f1061189c576101008083540402835291602001916118c7565b820191906000526020600020905b8154815290600101906020018083116118aa57829003601f168201915b5050505050908060020154908060030154908060040154908060050154905086565b6000818152600260205260409020546060906001600160a01b03166119505760405162461bcd60e51b815260206004820152601f60248201527f55524920717565727920666f72206e6f6e6578697374656e7420746f6b656e0060448201526064016107b4565b6000828152600d6020526040902054600c80548290811061197357611973612d8e565b906000526020600020906006020160010161198d846121b8565b60405160200161199e929190612f46565b604051602081830303815290604052915050919050565b6011546001600160a01b031633146119df5760405162461bcd60e51b81526004016107b490612ef5565b6040805160c08101825286815260208082018790529181018590526060810184905260006080820181905260a08201849052600c8054600181018255915281518051929360069092027fdf6966c971051c3d54ec59162606531493a51404a002842f56009d7e5cf4a8c70192611a589284920190612806565b506020828101518051611a719260018501920190612806565b5060408201518160020155606082015181600301556080820151816004015560a0820151816005015550505050505050565b600c548410611ae75760405162461bcd60e51b815260206004820152601060248201526f496e76616c69642063617465676f727960801b60448201526064016107b4565b600c8481548110611afa57611afa612d8e565b906000526020600020906006020160040154600c8581548110611b1f57611b1f612d8e565b906000526020600020906006020160030154611b3b9190612da4565b831115611b7f5760405162461bcd60e51b81526020600482015260126024820152714e6f7420656e6f7567687420737570706c7960701b60448201526064016107b4565b73dab1a1854214684ace522439684a145e625052333314611bee5760405162461bcd60e51b8152602060048201526024808201527f546869732066756e6374696f6e20697320666f722043726f73736d696e74206f60448201526337363c9760e11b60648201526084016107b4565b60005b83811015611c4557611c0633610a5a600b5490565b84600d6000611c14600b5490565b8152602081019190915260400160002055611c33600b80546001019055565b80611c3d81612df1565b915050611bf1565b5082600c8581548110611c5a57611c5a612d8e565b90600052602060002090600602016004016000828254611c7a9190612e0a565b909155505050505050565b60006001600160e01b031982166380ac58cd60e01b1480611cb657506001600160e01b03198216635b5e139f60e01b145b8061076357506301ffc9a760e01b6001600160e01b0319831614610763565b600a5460ff1615610fcd5760405162461bcd60e51b815260206004820152601060248201526f14185d5cd8589b194e881c185d5cd95960821b60448201526064016107b4565b610f018282604051806020016040528060008152506122b9565b6000818152600260205260409020546001600160a01b03166110805760405162461bcd60e51b8152602060048201526018602482015277115490cdcc8c4e881a5b9d985b1a59081d1bdad95b88125160421b60448201526064016107b4565b600081815260046020526040902080546001600160a01b0319166001600160a01b0384169081179091558190611dc982611131565b6001600160a01b03167f8c5be1e5ebec7d5bd14f71427d1e84f3dd0314c0f7b2291e5b200ac8c7c3b92560405160405180910390a45050565b600080611e0e83611131565b9050806001600160a01b0316846001600160a01b03161480611e5557506001600160a01b0380821660009081526005602090815260408083209388168352929052205460ff165b80611e795750836001600160a01b0316611e6e84610b6e565b6001600160a01b0316145b949350505050565b826001600160a01b0316611e9482611131565b6001600160a01b031614611ef85760405162461bcd60e51b815260206004820152602560248201527f4552433732313a207472616e736665722066726f6d20696e636f72726563742060448201526437bbb732b960d91b60648201526084016107b4565b6001600160a01b038216611f5a5760405162461bcd60e51b8152602060048201526024808201527f4552433732313a207472616e7366657220746f20746865207a65726f206164646044820152637265737360e01b60648201526084016107b4565b611f658383836122ec565b611f70600082611d94565b6001600160a01b0383166000908152600360205260408120805460019290611f99908490612da4565b90915550506001600160a01b0382166000908152600360205260408120805460019290611fc7908490612e0a565b909155505060008181526002602052604080822080546001600160a01b0319166001600160a01b0386811691821790925591518493918716917fddf252ad1be2c89b69c2b068fc378daa952ba7f163c4a11628f55a4df523b3ef91a4505050565b6120306123a4565b600a805460ff191690557f5db9ee0a495bf2e6ff9c91a7834c1ba4fdd244a5e8aa4e537bd38aeae4b073aa335b6040516001600160a01b03909116815260200160405180910390a1565b612082611cd5565b600a805460ff191660011790557f62e78cea01bee320cd4e420270b5ea74000d11b0c9f74754ebdbfc544b05a25861205d3390565b816001600160a01b0316836001600160a01b0316036121185760405162461bcd60e51b815260206004820152601960248201527f4552433732313a20617070726f766520746f2063616c6c65720000000000000060448201526064016107b4565b6001600160a01b03838116600081815260056020908152604080832094871680845294825291829020805460ff191686151590811790915591519182527f17307eab39ab6107e8899845ad3d59bd9653f200f220920489ca2b5937696c31910160405180910390a3505050565b612190848484611e81565b61219c848484846123ed565b6117875760405162461bcd60e51b81526004016107b490613000565b6060816000036121df5750506040805180820190915260018152600360fc1b602082015290565b8160005b811561220957806121f381612df1565b91506122029050600a836128ea565b91506121e3565b60008167ffffffffffffffff81111561222457612224612ae6565b6040519080825280601f01601f19166020018201604052801561224e576020820181803683370190505b5090505b8415611e7957612263600183612da4565b9150612270600a86613052565b61227b906030612e0a565b60f81b81838151811061229057612290612d8e565b60200101906001600160f81b031916908160001a9053506122b2600a866128ea565b9450612252565b6122c383836124ee565b6122d060008484846123ed565b610ca55760405162461bcd60e51b81526004016107b490613000565b6001600160a01b0383166123475761234281600880546000838152600960205260408120829055600182018355919091527ff3f7a9fe364faab93b216da50a3214154f22a0a2b415b23a84c8169e8b636ee30155565b61236a565b816001600160a01b0316836001600160a01b03161461236a5761236a838261263c565b6001600160a01b03821661238157610ca5816126d9565b826001600160a01b0316826001600160a01b031614610ca557610ca58282612788565b600a5460ff16610fcd5760405162461bcd60e51b815260206004820152601460248201527314185d5cd8589b194e881b9bdd081c185d5cd95960621b60448201526064016107b4565b60006001600160a01b0384163b156124e357604051630a85bd0160e11b81526001600160a01b0385169063150b7a0290612431903390899088908890600401613066565b6020604051808303816000875af192505050801561246c575060408051601f3d908101601f19168201909252612469918101906130a3565b60015b6124c9573d80801561249a576040519150601f19603f3d011682016040523d82523d6000602084013e61249f565b606091505b5080516000036124c15760405162461bcd60e51b81526004016107b490613000565b805181602001fd5b6001600160e01b031916630a85bd0160e11b149050611e79565b506001949350505050565b6001600160a01b0382166125445760405162461bcd60e51b815260206004820181905260248201527f4552433732313a206d696e7420746f20746865207a65726f206164647265737360448201526064016107b4565b6000818152600260205260409020546001600160a01b0316156125a95760405162461bcd60e51b815260206004820152601c60248201527f4552433732313a20746f6b656e20616c7265616479206d696e7465640000000060448201526064016107b4565b6125b5600083836122ec565b6001600160a01b03821660009081526003602052604081208054600192906125de908490612e0a565b909155505060008181526002602052604080822080546001600160a01b0319166001600160a01b03861690811790915590518392907fddf252ad1be2c89b69c2b068fc378daa952ba7f163c4a11628f55a4df523b3ef908290a45050565b6000600161264984611191565b6126539190612da4565b6000838152600760205260409020549091508082146126a6576001600160a01b03841660009081526006602090815260408083208584528252808320548484528184208190558352600790915290208190555b5060009182526007602090815260408084208490556001600160a01b039094168352600681528383209183525290812055565b6008546000906126eb90600190612da4565b6000838152600960205260408120546008805493945090928490811061271357612713612d8e565b90600052602060002001549050806008838154811061273457612734612d8e565b600091825260208083209091019290925582815260099091526040808220849055858252812055600880548061276c5761276c6130c0565b6001900381819060005260206000200160009055905550505050565b600061279383611191565b6001600160a01b039093166000908152600660209081526040808320868452825280832085905593825260079052919091209190915550565b5080546127d890612e22565b6000825580601f106127e8575050565b601f016020900490600052602060002090810190611080919061288a565b82805461281290612e22565b90600052602060002090601f016020900481019282612834576000855561287a565b82601f1061284d57805160ff191683800117855561287a565b8280016001018555821561287a579182015b8281111561287a57825182559160200191906001019061285f565b5061288692915061288a565b5090565b5b80821115612886576000815560010161288b565b634e487b7160e01b600052601160045260246000fd5b60008160001904831182151516156128cf576128cf61289f565b500290565b634e487b7160e01b600052601260045260246000fd5b6000826128f9576128f96128d4565b500490565b6001600160e01b03198116811461108057600080fd5b60006020828403121561292657600080fd5b8135612931816128fe565b9392505050565b6000806040838503121561294b57600080fd5b50508035926020909101359150565b60005b8381101561297557818101518382015260200161295d565b838111156117875750506000910152565b6000815180845261299e81602086016020860161295a565b601f01601f19169290920160200192915050565b6020815260006129316020830184612986565b6000602082840312156129d757600080fd5b5035919050565b80356001600160a01b03811681146129f557600080fd5b919050565b60008060408385031215612a0d57600080fd5b612a16836129de565b946020939093013593505050565b600080600060608486031215612a3957600080fd5b612a42846129de565b9250612a50602085016129de565b9150604084013590509250925092565b600060208284031215612a7257600080fd5b612931826129de565b801515811461108057600080fd5b60008060408385031215612a9c57600080fd5b612aa5836129de565b91506020830135612ab581612a7b565b809150509250929050565b600060208284031215612ad257600080fd5b813563ffffffff8116811461293157600080fd5b634e487b7160e01b600052604160045260246000fd5b600067ffffffffffffffff80841115612b1757612b17612ae6565b604051601f8501601f19908116603f01168101908282118183101715612b3f57612b3f612ae6565b81604052809350858152868686011115612b5857600080fd5b858560208301376000602087830101525050509392505050565b60008060008060808587031215612b8857600080fd5b612b91856129de565b9350612b9f602086016129de565b925060408501359150606085013567ffffffffffffffff811115612bc257600080fd5b8501601f81018713612bd357600080fd5b612be287823560208401612afc565b91505092959194509250565b60c081526000612c0160c0830189612986565b8281036020840152612c138189612986565b9150508560408301528460608301528360808301528260a0830152979650505050505050565b60008060408385031215612c4c57600080fd5b612c55836129de565b9150612c63602084016129de565b90509250929050565b600082601f830112612c7d57600080fd5b61293183833560208501612afc565b600080600080600060a08688031215612ca457600080fd5b853567ffffffffffffffff80821115612cbc57600080fd5b612cc889838a01612c6c565b96506020880135915080821115612cde57600080fd5b50612ceb88828901612c6c565b959895975050505060408401359360608101359360809091013592509050565b60008060008060608587031215612d2157600080fd5b8435935060208501359250604085013567ffffffffffffffff80821115612d4757600080fd5b818701915087601f830112612d5b57600080fd5b813581811115612d6a57600080fd5b8860208260051b8501011115612d7f57600080fd5b95989497505060200194505050565b634e487b7160e01b600052603260045260246000fd5b600082821015612db657612db661289f565b500390565b600060208284031215612dcd57600080fd5b5051919050565b600060208284031215612de657600080fd5b815161293181612a7b565b600060018201612e0357612e0361289f565b5060010190565b60008219821115612e1d57612e1d61289f565b500190565b600181811c90821680612e3657607f821691505b602082108103612e5657634e487b7160e01b600052602260045260246000fd5b50919050565b6020808252602e908201527f4552433732313a2063616c6c6572206973206e6f7420746f6b656e206f776e6560408201526d1c881b9bdc88185c1c1c9bdd995960921b606082015260800190565b6020808252602b908201527f436f756c64206e6f74207472616e7366657220746f6b656e2e204d697373696e60408201526a6720617070726f76616c3f60a81b606082015260800190565b6020808252818101527f4f776e61626c653a2063616c6c6572206973206e6f7420746865206f776e6572604082015260600190565b60008151612f3c81856020860161295a565b9290920192915050565b600080845481600182811c915080831680612f6257607f831692505b60208084108203612f8157634e487b7160e01b86526022600452602486fd5b818015612f955760018114612fa657612fd3565b60ff19861689528489019650612fd3565b60008b81526020902060005b86811015612fcb5781548b820152908501908301612fb2565b505084890196505b505050505050612ff7612fe68286612f2a565b64173539b7b760d91b815260050190565b95945050505050565b60208082526032908201527f4552433732313a207472616e7366657220746f206e6f6e20455243373231526560408201527131b2b4bb32b91034b6b83632b6b2b73a32b960711b606082015260800190565b600082613061576130616128d4565b500690565b6001600160a01b038581168252841660208201526040810183905260806060820181905260009061309990830184612986565b9695505050505050565b6000602082840312156130b557600080fd5b8151612931816128fe565b634e487b7160e01b600052603160045260246000fdfea2646970667358221220ae4661d0bceb77ed266803f507a836010556303c3a819221df65874c457f26e764736f6c634300080e0033a2646970667358221220e29bca70f5171f0468619f6966639cfc14c66cd04d986601b0a2b7db94c2726264736f6c634300080e0033",
  "linkReferences": {},
  "deployedLinkReferences": {}
}