{
  "_format": "hh-sol-artifact-1",
  "contractName": "ERC721Token",
  "sourceName": "contracts/nft.sol",
  "abi": [
    {
      "inputs": [
        {
          "internalType": "string[]",
          "name": "_categories",
          "type": "string[]"
        },
        {
          "internalType": "string[]",
          "name": "_baseUri",
          "type": "string[]"
        },
        {
          "internalType": "uint256[]",
          "name": "_price",
          "type": "uint256[]"
        },
        {
          "internalType": "uint256[]",
          "name": "_maxSupply",
          "type": "uint256[]"
        },
        {
          "internalType": "uint256[]",
          "name": "_percentages",
          "type": "uint256[]"
        },
        {
          "internalType": "address",
          "name": "_usdc",
          "type": "address"
        },
        {
          "internalType": "address",
          "name": "_artist",
          "type": "address"
        },
        {
          "internalType": "address",
          "name": "_investor",
          "type": "address"
        },
        {
          "internalType": "uint256[]",
          "name": "_percentagesPrimary",
          "type": "uint256[]"
        },
        {
          "internalType": "uint256[]",
          "name": "_percentagesSecondary",
          "type": "uint256[]"
        },
        {
          "internalType": "uint256",
          "name": "_startDate",
          "type": "uint256"
        }
      ],
      "stateMutability": "nonpayable",
      "type": "constructor"
    },
    {
      "anonymous": false,
      "inputs": [
        {
          "indexed": true,
          "internalType": "address",
          "name": "owner",
          "type": "address"
        },
        {
          "indexed": true,
          "internalType": "address",
          "name": "approved",
          "type": "address"
        },
        {
          "indexed": true,
          "internalType": "uint256",
          "name": "tokenId",
          "type": "uint256"
        }
      ],
      "name": "Approval",
      "type": "event"
    },
    {
      "anonymous": false,
      "inputs": [
        {
          "indexed": true,
          "internalType": "address",
          "name": "owner",
          "type": "address"
        },
        {
          "indexed": true,
          "internalType": "address",
          "name": "operator",
          "type": "address"
        },
        {
          "indexed": false,
          "internalType": "bool",
          "name": "approved",
          "type": "bool"
        }
      ],
      "name": "ApprovalForAll",
      "type": "event"
    },
    {
      "anonymous": false,
      "inputs": [
        {
          "indexed": false,
          "internalType": "address",
          "name": "",
          "type": "address"
        },
        {
          "indexed": false,
          "internalType": "uint256",
          "name": "",
          "type": "uint256"
        }
      ],
      "name": "OpenseaReceived",
      "type": "event"
    },
    {
      "anonymous": false,
      "inputs": [
        {
          "indexed": false,
          "internalType": "address",
          "name": "account",
          "type": "address"
        }
      ],
      "name": "Paused",
      "type": "event"
    },
    {
      "anonymous": false,
      "inputs": [
        {
          "indexed": false,
          "internalType": "address",
          "name": "",
          "type": "address"
        },
        {
          "indexed": false,
          "internalType": "uint256",
          "name": "",
          "type": "uint256"
        }
      ],
      "name": "RoyaltiesReceived",
      "type": "event"
    },
    {
      "anonymous": false,
      "inputs": [
        {
          "indexed": true,
          "internalType": "address",
          "name": "from",
          "type": "address"
        },
        {
          "indexed": true,
          "internalType": "address",
          "name": "to",
          "type": "address"
        },
        {
          "indexed": true,
          "internalType": "uint256",
          "name": "tokenId",
          "type": "uint256"
        }
      ],
      "name": "Transfer",
      "type": "event"
    },
    {
      "anonymous": false,
      "inputs": [
        {
          "indexed": false,
          "internalType": "address",
          "name": "account",
          "type": "address"
        }
      ],
      "name": "Unpaused",
      "type": "event"
    },
    {
      "inputs": [
        {
          "internalType": "uint256",
          "name": "amount",
          "type": "uint256"
        }
      ],
      "name": "FundRoyalties",
      "outputs": [],
      "stateMutability": "nonpayable",
      "type": "function"
    },
    {
      "inputs": [
        {
          "internalType": "uint256",
          "name": "",
          "type": "uint256"
        }
      ],
      "name": "RoyaltiesClaimablePerCategory",
      "outputs": [
        {
          "internalType": "uint256",
          "name": "",
          "type": "uint256"
        }
      ],
      "stateMutability": "view",
      "type": "function"
    },
    {
      "inputs": [
        {
          "internalType": "uint256",
          "name": "",
          "type": "uint256"
        }
      ],
      "name": "RoyaltiesClaimedPerId",
      "outputs": [
        {
          "internalType": "uint256",
          "name": "",
          "type": "uint256"
        }
      ],
      "stateMutability": "view",
      "type": "function"
    },
    {
      "inputs": [
        {
          "internalType": "string",
          "name": "_categories",
          "type": "string"
        },
        {
          "internalType": "string",
          "name": "_baseUri",
          "type": "string"
        },
        {
          "internalType": "uint256",
          "name": "_price",
          "type": "uint256"
        },
        {
          "internalType": "uint256",
          "name": "_maxSupply",
          "type": "uint256"
        },
        {
          "internalType": "uint256",
          "name": "_percentages",
          "type": "uint256"
        }
      ],
      "name": "addCategory",
      "outputs": [],
      "stateMutability": "nonpayable",
      "type": "function"
    },
    {
      "inputs": [
        {
          "internalType": "address",
          "name": "to",
          "type": "address"
        },
        {
          "internalType": "uint256",
          "name": "tokenId",
          "type": "uint256"
        }
      ],
      "name": "approve",
      "outputs": [],
      "stateMutability": "nonpayable",
      "type": "function"
    },
    {
      "inputs": [],
      "name": "artist",
      "outputs": [
        {
          "internalType": "address",
          "name": "",
          "type": "address"
        }
      ],
      "stateMutability": "view",
      "type": "function"
    },
    {
      "inputs": [
        {
          "internalType": "address",
          "name": "owner",
          "type": "address"
        }
      ],
      "name": "balanceOf",
      "outputs": [
        {
          "internalType": "uint256",
          "name": "",
          "type": "uint256"
        }
      ],
      "stateMutability": "view",
      "type": "function"
    },
    {
      "inputs": [
        {
          "internalType": "uint256",
          "name": "",
          "type": "uint256"
        }
      ],
      "name": "categories",
      "outputs": [
        {
          "internalType": "string",
          "name": "name",
          "type": "string"
        },
        {
          "internalType": "string",
          "name": "baseUri",
          "type": "string"
        },
        {
          "internalType": "uint256",
          "name": "price",
          "type": "uint256"
        },
        {
          "internalType": "uint256",
          "name": "maxSupply",
          "type": "uint256"
        },
        {
          "internalType": "uint256",
          "name": "counterSupply",
          "type": "uint256"
        },
        {
          "internalType": "uint256",
          "name": "percentages",
          "type": "uint256"
        }
      ],
      "stateMutability": "view",
      "type": "function"
    },
    {
      "inputs": [],
      "name": "claimMultipleRoyalties",
      "outputs": [],
      "stateMutability": "nonpayable",
      "type": "function"
    },
    {
      "inputs": [
        {
          "internalType": "uint256",
          "name": "_tokenId",
          "type": "uint256"
        }
      ],
      "name": "claimRoyalties",
      "outputs": [],
      "stateMutability": "nonpayable",
      "type": "function"
    },
    {
      "inputs": [
        {
          "internalType": "address",
          "name": "_to",
          "type": "address"
        },
        {
          "internalType": "uint256",
          "name": "categoryId",
          "type": "uint256"
        },
        {
          "internalType": "uint256",
          "name": "_quantity",
          "type": "uint256"
        }
      ],
      "name": "crossMint",
      "outputs": [],
      "stateMutability": "payable",
      "type": "function"
    },
    {
      "inputs": [
        {
          "internalType": "address",
          "name": "erc20Token",
          "type": "address"
        }
      ],
      "name": "emergencyWithdraw",
      "outputs": [],
      "stateMutability": "nonpayable",
      "type": "function"
    },
    {
      "inputs": [
        {
          "internalType": "uint256",
          "name": "tokenId",
          "type": "uint256"
        }
      ],
      "name": "getApproved",
      "outputs": [
        {
          "internalType": "address",
          "name": "",
          "type": "address"
        }
      ],
      "stateMutability": "view",
      "type": "function"
    },
    {
      "inputs": [],
      "name": "getPrice",
      "outputs": [
        {
          "internalType": "uint256",
          "name": "",
          "type": "uint256"
        }
      ],
      "stateMutability": "view",
      "type": "function"
    },
    {
      "inputs": [
        {
          "internalType": "uint256",
          "name": "categoryId",
          "type": "uint256"
        }
      ],
      "name": "getPriceByCategory",
      "outputs": [
        {
          "internalType": "uint256",
          "name": "",
          "type": "uint256"
        }
      ],
      "stateMutability": "view",
      "type": "function"
    },
    {
      "inputs": [
        {
          "internalType": "uint256",
          "name": "_tokenId",
          "type": "uint256"
        }
      ],
      "name": "getRewardsByTokenId",
      "outputs": [
        {
          "internalType": "uint256",
          "name": "",
          "type": "uint256"
        }
      ],
      "stateMutability": "view",
      "type": "function"
    },
    {
      "inputs": [
        {
          "internalType": "address",
          "name": "owner",
          "type": "address"
        },
        {
          "internalType": "address",
          "name": "operator",
          "type": "address"
        }
      ],
      "name": "isApprovedForAll",
      "outputs": [
        {
          "internalType": "bool",
          "name": "",
          "type": "bool"
        }
      ],
      "stateMutability": "view",
      "type": "function"
    },
    {
      "inputs": [
        {
          "internalType": "uint256",
          "name": "_quantity",
          "type": "uint256"
        },
        {
          "internalType": "uint256",
          "name": "categoryId",
          "type": "uint256"
        },
        {
          "internalType": "address",
          "name": "_to",
          "type": "address"
        }
      ],
      "name": "mintUSDC",
      "outputs": [],
      "stateMutability": "payable",
      "type": "function"
    },
    {
      "inputs": [],
      "name": "name",
      "outputs": [
        {
          "internalType": "string",
          "name": "",
          "type": "string"
        }
      ],
      "stateMutability": "view",
      "type": "function"
    },
    {
      "inputs": [
        {
          "internalType": "uint256",
          "name": "tokenId",
          "type": "uint256"
        }
      ],
      "name": "ownerOf",
      "outputs": [
        {
          "internalType": "address",
          "name": "",
          "type": "address"
        }
      ],
      "stateMutability": "view",
      "type": "function"
    },
    {
      "inputs": [],
      "name": "paused",
      "outputs": [
        {
          "internalType": "bool",
          "name": "",
          "type": "bool"
        }
      ],
      "stateMutability": "view",
      "type": "function"
    },
    {
      "inputs": [],
      "name": "poolContract",
      "outputs": [
        {
          "internalType": "address",
          "name": "",
          "type": "address"
        }
      ],
      "stateMutability": "view",
      "type": "function"
    },
    {
      "inputs": [
        {
          "internalType": "uint256",
          "name": "categoryId",
          "type": "uint256"
        }
      ],
      "name": "removeCategory",
      "outputs": [],
      "stateMutability": "nonpayable",
      "type": "function"
    },
    {
      "inputs": [
        {
          "internalType": "address",
          "name": "from",
          "type": "address"
        },
        {
          "internalType": "address",
          "name": "to",
          "type": "address"
        },
        {
          "internalType": "uint256",
          "name": "tokenId",
          "type": "uint256"
        }
      ],
      "name": "safeTransferFrom",
      "outputs": [],
      "stateMutability": "nonpayable",
      "type": "function"
    },
    {
      "inputs": [
        {
          "internalType": "address",
          "name": "from",
          "type": "address"
        },
        {
          "internalType": "address",
          "name": "to",
          "type": "address"
        },
        {
          "internalType": "uint256",
          "name": "tokenId",
          "type": "uint256"
        },
        {
          "internalType": "bytes",
          "name": "data",
          "type": "bytes"
        }
      ],
      "name": "safeTransferFrom",
      "outputs": [],
      "stateMutability": "nonpayable",
      "type": "function"
    },
    {
      "inputs": [
        {
          "internalType": "address",
          "name": "operator",
          "type": "address"
        },
        {
          "internalType": "bool",
          "name": "approved",
          "type": "bool"
        }
      ],
      "name": "setApprovalForAll",
      "outputs": [],
      "stateMutability": "nonpayable",
      "type": "function"
    },
    {
      "inputs": [
        {
          "internalType": "uint256",
          "name": "_percentageArtist",
          "type": "uint256"
        }
      ],
      "name": "setArtistPercentage",
      "outputs": [],
      "stateMutability": "nonpayable",
      "type": "function"
    },
    {
      "inputs": [
        {
          "internalType": "uint256",
          "name": "_percentageArtistOpensea",
          "type": "uint256"
        }
      ],
      "name": "setArtistPercentageOpensea",
      "outputs": [],
      "stateMutability": "nonpayable",
      "type": "function"
    },
    {
      "inputs": [
        {
          "internalType": "uint256",
          "name": "_percentageInvestor",
          "type": "uint256"
        }
      ],
      "name": "setInvestorPercentage",
      "outputs": [],
      "stateMutability": "nonpayable",
      "type": "function"
    },
    {
      "inputs": [
        {
          "internalType": "uint256",
          "name": "_percentageInvestorOpensea",
          "type": "uint256"
        }
      ],
      "name": "setInvestorPercentageOpensea",
      "outputs": [],
      "stateMutability": "nonpayable",
      "type": "function"
    },
    {
      "inputs": [],
      "name": "setPaused",
      "outputs": [],
      "stateMutability": "nonpayable",
      "type": "function"
    },
    {
      "inputs": [
        {
          "internalType": "uint256",
          "name": "_startDate",
          "type": "uint256"
        }
      ],
      "name": "setStartDate",
      "outputs": [],
      "stateMutability": "nonpayable",
      "type": "function"
    },
    {
      "inputs": [],
      "name": "setUnPaused",
      "outputs": [],
      "stateMutability": "nonpayable",
      "type": "function"
    },
    {
      "inputs": [
        {
          "internalType": "bytes4",
          "name": "interfaceId",
          "type": "bytes4"
        }
      ],
      "name": "supportsInterface",
      "outputs": [
        {
          "internalType": "bool",
          "name": "",
          "type": "bool"
        }
      ],
      "stateMutability": "view",
      "type": "function"
    },
    {
      "inputs": [],
      "name": "symbol",
      "outputs": [
        {
          "internalType": "string",
          "name": "",
          "type": "string"
        }
      ],
      "stateMutability": "view",
      "type": "function"
    },
    {
      "inputs": [
        {
          "internalType": "uint256",
          "name": "index",
          "type": "uint256"
        }
      ],
      "name": "tokenByIndex",
      "outputs": [
        {
          "internalType": "uint256",
          "name": "",
          "type": "uint256"
        }
      ],
      "stateMutability": "view",
      "type": "function"
    },
    {
      "inputs": [
        {
          "internalType": "address",
          "name": "owner",
          "type": "address"
        },
        {
          "internalType": "uint256",
          "name": "index",
          "type": "uint256"
        }
      ],
      "name": "tokenOfOwnerByIndex",
      "outputs": [
        {
          "internalType": "uint256",
          "name": "",
          "type": "uint256"
        }
      ],
      "stateMutability": "view",
      "type": "function"
    },
    {
      "inputs": [
        {
          "internalType": "uint256",
          "name": "_tokenId",
          "type": "uint256"
        }
      ],
      "name": "tokenURI",
      "outputs": [
        {
          "internalType": "string",
          "name": "",
          "type": "string"
        }
      ],
      "stateMutability": "view",
      "type": "function"
    },
    {
      "inputs": [],
      "name": "totalSupply",
      "outputs": [
        {
          "internalType": "uint256",
          "name": "",
          "type": "uint256"
        }
      ],
      "stateMutability": "view",
      "type": "function"
    },
    {
      "inputs": [
        {
          "internalType": "address",
          "name": "from",
          "type": "address"
        },
        {
          "internalType": "address",
          "name": "to",
          "type": "address"
        },
        {
          "internalType": "uint256",
          "name": "tokenId",
          "type": "uint256"
        }
      ],
      "name": "transferFrom",
      "outputs": [],
      "stateMutability": "nonpayable",
      "type": "function"
    },
    {
      "inputs": [],
      "name": "usdc",
      "outputs": [
        {
          "internalType": "address",
          "name": "",
          "type": "address"
        }
      ],
      "stateMutability": "view",
      "type": "function"
    },
    {
      "inputs": [],
      "name": "withdraw",
      "outputs": [],
      "stateMutability": "payable",
      "type": "function"
    },
    {
      "stateMutability": "payable",
      "type": "receive"
    }
  ],
  "bytecode": "0x6080604052601280546001600160a01b03191673a374094527e1673a86de625aa59517c5de346d321790553480156200003757600080fd5b506040516200414f3803806200414f8339810160408190526200005a9162000954565b60408051808201825260048152631d195cdd60e21b602080830191825283518085019094526002845261151560f21b908401528151919291620000a0916000916200065c565b508051620000b69060019060208401906200065c565b5050600a805460ff191690555089518b51148015620000d6575088518b51145b8015620000e4575087518b51145b8015620000f2575086518b51145b620001505760405162461bcd60e51b8152602060048201526024808201527f416c6c20617272617973206d7573742068617665207468652073616d65206c656044820152630dccee8d60e31b60648201526084015b60405180910390fd5b6200015b836200049f565b606414620001ac5760405162461bcd60e51b815260206004820152601660248201527f50657263656e74616765206d7573742062652031303000000000000000000000604482015260640162000147565b620001b7826200049f565b606414620002085760405162461bcd60e51b815260206004820152601660248201527f50657263656e74616765206d7573742062652031303000000000000000000000604482015260640162000147565b6001600160a01b038416620002725760405162461bcd60e51b815260206004820152602960248201527f496e766573746f722061646472657373206d757374206265206469666665726560448201526806e742066726f6d20360bc1b606482015260840162000147565b6001600160a01b038516620002da5760405162461bcd60e51b815260206004820152602760248201527f4172746973742061646472657373206d75737420626520646966666572656e7460448201526602066726f6d20360cc1b606482015260840162000147565b6001600160a01b038616620003405760405162461bcd60e51b815260206004820152602560248201527f555344432061646472657373206d75737420626520646966666572656e7420666044820152640726f6d20360dc1b606482015260840162000147565b6200034b876200049f565b606414620003a75760405162461bcd60e51b815260206004820152602260248201527f5468652073756d206f662070657263656e7461676573206d7573742062652031604482015261030360f41b606482015260840162000147565b428111620003f85760405162461bcd60e51b815260206004820181905260248201527f53746172742064617465206d75737420626520696e2074686520667574757265604482015260640162000147565b620004078b8b8b8b8b620004f6565b601080546001600160a01b038089166001600160a01b031992831617909255601380548784169083161790556011805492881692909116919091179055825162000459906014906020860190620006eb565b5081516200046f906015906020850190620006eb565b50806016819055506200048e600b6200065360201b620021dc1760201c565b505050505050505050505062000b95565b600080805b8351811015620004ef57838181518110620004c357620004c362000af6565b602002602001015182620004d8919062000b22565b915080620004e68162000b3d565b915050620004a4565b5092915050565b60005b85518110156200064b57600c6040518060c0016040528088848151811062000525576200052562000af6565b6020026020010151815260200187848151811062000547576200054762000af6565b6020026020010151815260200186848151811062000569576200056962000af6565b602002602001015181526020018584815181106200058b576200058b62000af6565b6020026020010151815260200160008152602001848481518110620005b457620005b462000af6565b602090810291909101810151909152825460018101845560009384529281902082518051939460060290910192620005f092849201906200065c565b5060208281015180516200060b92600185019201906200065c565b5060408201516002820155606082015160038201556080820151600482015560a09091015160059091015580620006428162000b3d565b915050620004f9565b505050505050565b80546001019055565b8280546200066a9062000b59565b90600052602060002090601f0160209004810192826200068e5760008555620006d9565b82601f10620006a957805160ff1916838001178555620006d9565b82800160010185558215620006d9579182015b82811115620006d9578251825591602001919060010190620006bc565b50620006e792915062000728565b5090565b828054828255906000526020600020908101928215620006d95791602002820182811115620006d9578251825591602001919060010190620006bc565b5b80821115620006e7576000815560010162000729565b634e487b7160e01b600052604160045260246000fd5b604051601f8201601f191681016001600160401b03811182821017156200078057620007806200073f565b604052919050565b60006001600160401b03821115620007a457620007a46200073f565b5060051b60200190565b6000601f8381840112620007c157600080fd5b82516020620007da620007d48362000788565b62000755565b82815260059290921b85018101918181019087841115620007fa57600080fd5b8287015b84811015620008be5780516001600160401b0380821115620008205760008081fd5b818a0191508a603f830112620008365760008081fd5b85820151818111156200084d576200084d6200073f565b62000860818a01601f1916880162000755565b915080825260408c818386010111156200087a5760008081fd5b60005b828110156200089a578481018201518482018a015288016200087d565b82811115620008ac5760008984860101525b505050845250918301918301620007fe565b50979650505050505050565b600082601f830112620008dc57600080fd5b81516020620008ef620007d48362000788565b82815260059290921b840181019181810190868411156200090f57600080fd5b8286015b848110156200092c578051835291830191830162000913565b509695505050505050565b80516001600160a01b03811681146200094f57600080fd5b919050565b60008060008060008060008060008060006101608c8e0312156200097757600080fd5b8b516001600160401b038111156200098e57600080fd5b6200099c8e828f01620007ae565b60208e0151909c5090506001600160401b03811115620009bb57600080fd5b620009c98e828f01620007ae565b60408e0151909b5090506001600160401b03811115620009e857600080fd5b620009f68e828f01620008ca565b60608e0151909a5090506001600160401b0381111562000a1557600080fd5b62000a238e828f01620008ca565b60808e015190995090506001600160401b0381111562000a4257600080fd5b62000a508e828f01620008ca565b97505062000a6160a08d0162000937565b955062000a7160c08d0162000937565b945062000a8160e08d0162000937565b6101008d01519094506001600160401b0381111562000a9f57600080fd5b62000aad8e828f01620008ca565b6101208e015190945090506001600160401b0381111562000acd57600080fd5b62000adb8e828f01620008ca565b9250506101408c015190509295989b509295989b9093969950565b634e487b7160e01b600052603260045260246000fd5b634e487b7160e01b600052601160045260246000fd5b6000821982111562000b385762000b3862000b0c565b500190565b60006001820162000b525762000b5262000b0c565b5060010190565b600181811c9082168062000b6e57607f821691505b60208210810362000b8f57634e487b7160e01b600052602260045260246000fd5b50919050565b6135aa8062000ba56000396000f3fe6080604052600436106102555760003560e01c80636e4205d21161013957806395d89b41116100b6578063b88d4fde1161007a578063b88d4fde1461081d578063c6cdbe5e1461083d578063c87b56dd1461086f578063e985e9c51461088f578063eb28f2dd146108d8578063ecbe483f146108f857600080fd5b806395d89b411461079357806398d5fdca146107a8578063a22cb465146107bd578063a570f177146107dd578063b1d0e1b6146107fd57600080fd5b80637f2c0bb8116100fd5780637f2c0bb8146106f357806380420b311461071357806382d95df51461073357806386ad310f1461075357806388d52ef71461077357600080fd5b80636e4205d2146106535780636ff1c9bc1461066657806370a0823114610686578063741faee6146106a65780637d146670146106d357600080fd5b8063349fdb09116101d257806343bc16121161019657806343bc16121461058e5780634f6ccce7146105ae578063515ec105146105ce578063546b7e0a146105ee5780635c975abb1461061b5780636352211e1461063357600080fd5b8063349fdb091461051c57806337a66d85146105315780633ccfd60b146105465780633e413bee1461054e57806342842e0e1461056e57600080fd5b806323b872dd1161021957806323b872dd14610494578063255f8769146104b457806326c02d23146104c75780632c8e96ab146104dc5780632f745c59146104fc57600080fd5b806301ffc9a7146103c457806306fdde03146103f9578063081812fc1461041b578063095ea7b31461045357806318160ddd1461047557600080fd5b366103bf57601354601580546000926001600160a01b031691606491849061027f5761027f612d00565b9060005260206000200154346102959190612d2c565b61029f9190612d4b565b604051600081818185875af1925050503d80600081146102db576040519150601f19603f3d011682016040523d82523d6000602084013e6102e0565b606091505b50509050806102ee57600080fd5b601154601580546000926001600160a01b031691606491600190811061031657610316612d00565b90600052602060002001543461032c9190612d2c565b6103369190612d4b565b604051600081818185875af1925050503d8060008114610372576040519150601f19603f3d011682016040523d82523d6000602084013e610377565b606091505b505090508061038557600080fd5b604080513381523460208201527f7c6ffa8afa793623698938cd722cf1ed49a5fe661a60f5723fe00cc6f55baeb2910160405180910390a1005b600080fd5b3480156103d057600080fd5b506103e46103df366004612d83565b610918565b60405190151581526020015b60405180910390f35b34801561040557600080fd5b5061040e610943565b6040516103f09190612df4565b34801561042757600080fd5b5061043b610436366004612e07565b6109d5565b6040516001600160a01b0390911681526020016103f0565b34801561045f57600080fd5b5061047361046e366004612e35565b6109fc565b005b34801561048157600080fd5b506008545b6040519081526020016103f0565b3480156104a057600080fd5b506104736104af366004612e61565b610b16565b6104736104c2366004612ea2565b610b47565b3480156104d357600080fd5b50610473610d0f565b3480156104e857600080fd5b506104736104f7366004612e07565b610f33565b34801561050857600080fd5b50610486610517366004612e35565b611128565b34801561052857600080fd5b506104736111be565b34801561053d57600080fd5b506104736111f2565b610473611224565b34801561055a57600080fd5b5060105461043b906001600160a01b031681565b34801561057a57600080fd5b50610473610589366004612e61565b611379565b34801561059a57600080fd5b5060115461043b906001600160a01b031681565b3480156105ba57600080fd5b506104866105c9366004612e07565b611394565b3480156105da57600080fd5b506104866105e9366004612e07565b611427565b3480156105fa57600080fd5b50610486610609366004612e07565b600e6020526000908152604090205481565b34801561062757600080fd5b50600a5460ff166103e4565b34801561063f57600080fd5b5061043b61064e366004612e07565b611463565b610473610661366004612ed7565b6114c3565b34801561067257600080fd5b50610473610681366004612f10565b611664565b34801561069257600080fd5b506104866106a1366004612f10565b6118f3565b3480156106b257600080fd5b506104866106c1366004612e07565b600f6020526000908152604090205481565b3480156106df57600080fd5b506104736106ee366004612e07565b611979565b3480156106ff57600080fd5b5061047361070e366004612e07565b6119c7565b34801561071f57600080fd5b5061047361072e366004612e07565b611a06565b34801561073f57600080fd5b5061047361074e366004612e07565b611ad1565b34801561075f57600080fd5b5061047361076e366004612e07565b611b00565b34801561077f57600080fd5b5060125461043b906001600160a01b031681565b34801561079f57600080fd5b5061040e611d48565b3480156107b457600080fd5b50610486611d57565b3480156107c957600080fd5b506104736107d8366004612f3b565b611de1565b3480156107e957600080fd5b506104866107f8366004612e07565b611dec565b34801561080957600080fd5b50610473610818366004612e07565b611e1a565b34801561082957600080fd5b50610473610838366004613029565b611e59565b34801561084957600080fd5b5061085d610858366004612e07565b611e91565b6040516103f0969594939291906130a9565b34801561087b57600080fd5b5061040e61088a366004612e07565b611fed565b34801561089b57600080fd5b506103e46108aa3660046130f4565b6001600160a01b03918216600090815260056020908152604080832093909416825291909152205460ff1690565b3480156108e457600080fd5b506104736108f3366004612e07565b6120af565b34801561090457600080fd5b50610473610913366004613142565b6120ee565b60006001600160e01b0319821663780e9d6360e01b148061093d575061093d826121e5565b92915050565b606060008054610952906131c1565b80601f016020809104026020016040519081016040528092919081815260200182805461097e906131c1565b80156109cb5780601f106109a0576101008083540402835291602001916109cb565b820191906000526020600020905b8154815290600101906020018083116109ae57829003601f168201915b5050505050905090565b60006109e082612235565b506000908152600460205260409020546001600160a01b031690565b6000610a0782611463565b9050806001600160a01b0316836001600160a01b031603610a795760405162461bcd60e51b815260206004820152602160248201527f4552433732313a20617070726f76616c20746f2063757272656e74206f776e656044820152603960f91b60648201526084015b60405180910390fd5b336001600160a01b0382161480610a955750610a9581336108aa565b610b075760405162461bcd60e51b815260206004820152603e60248201527f4552433732313a20617070726f76652063616c6c6572206973206e6f7420746f60448201527f6b656e206f776e6572206e6f7220617070726f76656420666f7220616c6c00006064820152608401610a70565b610b118383612297565b505050565b610b203382612305565b610b3c5760405162461bcd60e51b8152600401610a70906131fb565b610b11838383612383565b600c548210610b8b5760405162461bcd60e51b815260206004820152601060248201526f496e76616c69642063617465676f727960801b6044820152606401610a70565b4260165410610bdc5760405162461bcd60e51b815260206004820152601c60248201527f5468652073616c6520686173206e6f74207374617274656420796574000000006044820152606401610a70565b600c8281548110610bef57610bef612d00565b906000526020600020906006020160040154600c8381548110610c1457610c14612d00565b906000526020600020906006020160030154610c309190613249565b811115610c745760405162461bcd60e51b81526020600482015260126024820152714e6f7420656e6f7567687420737570706c7960701b6044820152606401610a70565b60005b81811015610cd057610c9184610c8c600b5490565b61252a565b82600d6000610c9f600b5490565b8152602081019190915260400160002055610cbe600b80546001019055565b80610cc881613260565b915050610c77565b5080600c8381548110610ce557610ce5612d00565b90600052602060002090600602016004016000828254610d059190613279565b9091555050505050565b6000610d1a336118f3565b11610d675760405162461bcd60e51b815260206004820152601a60248201527f796f7520646f206e6f7420706f736573732074686973206e66740000000000006044820152606401610a70565b6000805b610d74336118f3565b811015610e3d576000610d873383611128565b6000818152600d6020908152604080832054808452600e835281842054858552600f9093529220549293509091108015610dce57506000818152600e602052604090205415155b15610e28576000828152600f6020908152604080832054848452600e909252822054610dfa9190613249565b9050610e068186613279565b6000838152600e6020908152604080832054878452600f909252909120559450505b50508080610e3590613260565b915050610d6b565b5060008111610e9a5760405162461bcd60e51b8152602060048201526024808201527f796f7520616c726561647920636c61696d656420616c6c20796f7572207265776044820152636172647360e01b6064820152608401610a70565b60105460405163a9059cbb60e01b8152336004820152602481018390526000916001600160a01b03169063a9059cbb906044016020604051808303816000875af1158015610eec573d6000803e3d6000fd5b505050506040513d601f19601f82011682018060405250810190610f1091906132a1565b905080610f2f5760405162461bcd60e51b8152600401610a70906132be565b5050565b6013546001600160a01b03163314610f5d5760405162461bcd60e51b8152600401610a7090613309565b60008111610fa15760405162461bcd60e51b81526020600482015260116024820152700616d6f756e742063616e2774206265203607c1b6044820152606401610a70565b6010546040516323b872dd60e01b8152336004820152306024820152604481018390526000916001600160a01b0316906323b872dd906064016020604051808303816000875af1158015610ff9573d6000803e3d6000fd5b505050506040513d601f19601f8201168201806040525081019061101d91906132a1565b90508061103c5760405162461bcd60e51b8152600401610a70906132be565b60005b600c548110156110ea576064600c828154811061105e5761105e612d00565b906000526020600020906006020160030154600c838154811061108357611083612d00565b906000526020600020906006020160050154856110a09190612d2c565b6110aa9190612d4b565b6110b49190612d4b565b6000828152600e6020526040812080549091906110d2908490613279565b909155508190506110e281613260565b91505061103f565b5060408051338152602081018490527f332c3fd68e199528deb4a5631f1c91795464d13656d118e824c5da4f75ea83e5910160405180910390a15050565b6000611133836118f3565b82106111955760405162461bcd60e51b815260206004820152602b60248201527f455243373231456e756d657261626c653a206f776e657220696e646578206f7560448201526a74206f6620626f756e647360a81b6064820152608401610a70565b506001600160a01b03919091166000908152600660209081526040808320938352929052205490565b6013546001600160a01b031633146111e85760405162461bcd60e51b8152600401610a7090613309565b6111f0612544565b565b6013546001600160a01b0316331461121c5760405162461bcd60e51b8152600401610a7090613309565b6111f0612596565b6013546001600160a01b0316331461124e5760405162461bcd60e51b8152600401610a7090613309565b601354601480546000926001600160a01b031691606491849061127357611273612d00565b9060005260206000200154346112899190612d2c565b6112939190612d4b565b604051600081818185875af1925050503d80600081146112cf576040519150601f19603f3d011682016040523d82523d6000602084013e6112d4565b606091505b50509050806112e257600080fd5b601154601480546000926001600160a01b031691606491600190811061130a5761130a612d00565b9060005260206000200154346113209190612d2c565b61132a9190612d4b565b604051600081818185875af1925050503d8060008114611366576040519150601f19603f3d011682016040523d82523d6000602084013e61136b565b606091505b5050905080610f2f57600080fd5b610b1183838360405180602001604052806000815250611e59565b600061139f60085490565b82106114025760405162461bcd60e51b815260206004820152602c60248201527f455243373231456e756d657261626c653a20676c6f62616c20696e646578206f60448201526b7574206f6620626f756e647360a01b6064820152608401610a70565b6008828154811061141557611415612d00565b90600052602060002001549050919050565b6000818152600d6020908152604080832054600f835281842054818552600e909352908320549091839161145b9190613249565b949350505050565b6000818152600260205260408120546001600160a01b03168061093d5760405162461bcd60e51b8152602060048201526018602482015277115490cdcc8c4e881a5b9d985b1a59081d1bdad95b88125160421b6044820152606401610a70565b6114cb6125d3565b600c54821061150f5760405162461bcd60e51b815260206004820152601060248201526f496e76616c69642063617465676f727960801b6044820152606401610a70565b42601654106115605760405162461bcd60e51b815260206004820152601c60248201527f5468652073616c6520686173206e6f74207374617274656420796574000000006044820152606401610a70565b600c828154811061157357611573612d00565b906000526020600020906006020160040154600c838154811061159857611598612d00565b9060005260206000209060060201600301546115b49190613249565b8311156115f85760405162461bcd60e51b81526020600482015260126024820152714e6f7420656e6f7567687420737570706c7960701b6044820152606401610a70565b60005b8381101561164f5761161082610c8c600b5490565b82600d600061161e600b5490565b815260208101919091526040016000205561163d600b80546001019055565b8061164781613260565b9150506115fb565b5082600c8381548110610ce557610ce5612d00565b6013546001600160a01b0316331461168e5760405162461bcd60e51b8152600401610a7090613309565b806001600160a01b031663a9059cbb601360009054906101000a90046001600160a01b0316606460146000815481106116c9576116c9612d00565b6000918252602090912001546040516370a0823160e01b81523060048201526001600160a01b038716906370a0823190602401602060405180830381865afa158015611719573d6000803e3d6000fd5b505050506040513d601f19601f8201168201806040525081019061173d919061333e565b6117479190612d2c565b6117519190612d4b565b6040516001600160e01b031960e085901b1681526001600160a01b03909216600483015260248201526044016020604051808303816000875af115801561179c573d6000803e3d6000fd5b505050506040513d601f19601f820116820180604052508101906117c091906132a1565b50806001600160a01b031663a9059cbb601160009054906101000a90046001600160a01b0316606460146001815481106117fc576117fc612d00565b6000918252602090912001546040516370a0823160e01b81523060048201526001600160a01b038716906370a0823190602401602060405180830381865afa15801561184c573d6000803e3d6000fd5b505050506040513d601f19601f82011682018060405250810190611870919061333e565b61187a9190612d2c565b6118849190612d4b565b6040516001600160e01b031960e085901b1681526001600160a01b03909216600483015260248201526044016020604051808303816000875af11580156118cf573d6000803e3d6000fd5b505050506040513d601f19601f82011682018060405250810190610f2f91906132a1565b60006001600160a01b03821661195d5760405162461bcd60e51b815260206004820152602960248201527f4552433732313a2061646472657373207a65726f206973206e6f7420612076616044820152683634b21037bbb732b960b91b6064820152608401610a70565b506001600160a01b031660009081526003602052604090205490565b6013546001600160a01b031633146119a35760405162461bcd60e51b8152600401610a7090613309565b8060156000815481106119b8576119b8612d00565b60009182526020909120015550565b6013546001600160a01b031633146119f15760405162461bcd60e51b8152600401610a7090613309565b8060146000815481106119b8576119b8612d00565b6013546001600160a01b03163314611a305760405162461bcd60e51b8152600401610a7090613309565b600c548110611a755760405162461bcd60e51b8152602060048201526011602482015270092dcc8caf040d2e640e8dede40d0d2ced607b1b6044820152606401610a70565b600c8181548110611a8857611a88612d00565b60009182526020822060069091020190611aa28282612c2d565b611ab0600183016000612c2d565b50600060028201819055600382018190556004820181905560059091015550565b6013546001600160a01b03163314611afb5760405162461bcd60e51b8152600401610a7090613309565b601655565b6008548110611b485760405162461bcd60e51b81526020600482015260146024820152731d1a1a5cc81a5908191bc81b9bdd08195e1a5cdd60621b6044820152606401610a70565b6000818152600d602052604090205433611b6183611463565b6001600160a01b031614611baf5760405162461bcd60e51b81526020600482015260156024820152741b9bdd081bdddb995c881bd9881d1a1a5cc8139195605a1b6044820152606401610a70565b6000818152600e6020526040902054611bfb5760405162461bcd60e51b815260206004820152600e60248201526d139bc814995dd85c991cc816595d60921b6044820152606401610a70565b6000818152600e6020908152604080832054858452600f9092529091205410611c665760405162461bcd60e51b815260206004820152601f60248201527f596f7520616c726561647920636c61696d656420796f757220726577617264006044820152606401610a70565b6000828152600f6020908152604080832054848452600e909252822054611c8d9190613249565b60105460405163a9059cbb60e01b8152336004820152602481018390529192506000916001600160a01b039091169063a9059cbb906044016020604051808303816000875af1158015611ce4573d6000803e3d6000fd5b505050506040513d601f19601f82011682018060405250810190611d0891906132a1565b905080611d275760405162461bcd60e51b8152600401610a70906132be565b50506000908152600e6020908152604080832054938352600f909152902055565b606060018054610952906131c1565b600080601260009054906101000a90046001600160a01b03166001600160a01b0316633850c7bd6040518163ffffffff1660e01b815260040160e060405180830381865afa158015611dad573d6000803e3d6000fd5b505050506040513d601f19601f82011682018060405250810190611dd1919061337a565b516001600160a01b031692915050565b610f2f338383612619565b6000600c8281548110611e0157611e01612d00565b9060005260206000209060060201600201549050919050565b6013546001600160a01b03163314611e445760405162461bcd60e51b8152600401610a7090613309565b8060156001815481106119b8576119b8612d00565b611e633383612305565b611e7f5760405162461bcd60e51b8152600401610a70906131fb565b611e8b848484846126e7565b50505050565b600c8181548110611ea157600080fd5b9060005260206000209060060201600091509050806000018054611ec4906131c1565b80601f0160208091040260200160405190810160405280929190818152602001828054611ef0906131c1565b8015611f3d5780601f10611f1257610100808354040283529160200191611f3d565b820191906000526020600020905b815481529060010190602001808311611f2057829003601f168201915b505050505090806001018054611f52906131c1565b80601f0160208091040260200160405190810160405280929190818152602001828054611f7e906131c1565b8015611fcb5780601f10611fa057610100808354040283529160200191611fcb565b820191906000526020600020905b815481529060010190602001808311611fae57829003601f168201915b5050505050908060020154908060030154908060040154908060050154905086565b6000818152600260205260409020546060906001600160a01b03166120545760405162461bcd60e51b815260206004820152601f60248201527f55524920717565727920666f72206e6f6e6578697374656e7420746f6b656e006044820152606401610a70565b6000828152600d6020526040902054600c80548290811061207757612077612d00565b90600052602060002090600602016001016040516020016120989190613417565b604051602081830303815290604052915050919050565b6013546001600160a01b031633146120d95760405162461bcd60e51b8152600401610a7090613309565b8060146001815481106119b8576119b8612d00565b6013546001600160a01b031633146121185760405162461bcd60e51b8152600401610a7090613309565b6040805160c08101825286815260208082018790529181018590526060810184905260006080820181905260a08201849052600c8054600181018255915281518051929360069092027fdf6966c971051c3d54ec59162606531493a51404a002842f56009d7e5cf4a8c701926121919284920190612c67565b5060208281015180516121aa9260018501920190612c67565b5060408201518160020155606082015181600301556080820151816004015560a0820151816005015550505050505050565b80546001019055565b60006001600160e01b031982166380ac58cd60e01b148061221657506001600160e01b03198216635b5e139f60e01b145b8061093d57506301ffc9a760e01b6001600160e01b031983161461093d565b6000818152600260205260409020546001600160a01b03166122945760405162461bcd60e51b8152602060048201526018602482015277115490cdcc8c4e881a5b9d985b1a59081d1bdad95b88125160421b6044820152606401610a70565b50565b600081815260046020526040902080546001600160a01b0319166001600160a01b03841690811790915581906122cc82611463565b6001600160a01b03167f8c5be1e5ebec7d5bd14f71427d1e84f3dd0314c0f7b2291e5b200ac8c7c3b92560405160405180910390a45050565b60008061231183611463565b9050806001600160a01b0316846001600160a01b0316148061235857506001600160a01b0380821660009081526005602090815260408083209388168352929052205460ff165b8061145b5750836001600160a01b0316612371846109d5565b6001600160a01b031614949350505050565b826001600160a01b031661239682611463565b6001600160a01b0316146123fa5760405162461bcd60e51b815260206004820152602560248201527f4552433732313a207472616e736665722066726f6d20696e636f72726563742060448201526437bbb732b960d91b6064820152608401610a70565b6001600160a01b03821661245c5760405162461bcd60e51b8152602060048201526024808201527f4552433732313a207472616e7366657220746f20746865207a65726f206164646044820152637265737360e01b6064820152608401610a70565b61246783838361271a565b612472600082612297565b6001600160a01b038316600090815260036020526040812080546001929061249b908490613249565b90915550506001600160a01b03821660009081526003602052604081208054600192906124c9908490613279565b909155505060008181526002602052604080822080546001600160a01b0319166001600160a01b0386811691821790925591518493918716917fddf252ad1be2c89b69c2b068fc378daa952ba7f163c4a11628f55a4df523b3ef91a4505050565b610f2f8282604051806020016040528060008152506127d2565b61254c612805565b600a805460ff191690557f5db9ee0a495bf2e6ff9c91a7834c1ba4fdd244a5e8aa4e537bd38aeae4b073aa335b6040516001600160a01b03909116815260200160405180910390a1565b61259e6125d3565b600a805460ff191660011790557f62e78cea01bee320cd4e420270b5ea74000d11b0c9f74754ebdbfc544b05a2586125793390565b600a5460ff16156111f05760405162461bcd60e51b815260206004820152601060248201526f14185d5cd8589b194e881c185d5cd95960821b6044820152606401610a70565b816001600160a01b0316836001600160a01b03160361267a5760405162461bcd60e51b815260206004820152601960248201527f4552433732313a20617070726f766520746f2063616c6c6572000000000000006044820152606401610a70565b6001600160a01b03838116600081815260056020908152604080832094871680845294825291829020805460ff191686151590811790915591519182527f17307eab39ab6107e8899845ad3d59bd9653f200f220920489ca2b5937696c31910160405180910390a3505050565b6126f2848484612383565b6126fe8484848461284e565b611e8b5760405162461bcd60e51b8152600401610a70906134b2565b6001600160a01b0383166127755761277081600880546000838152600960205260408120829055600182018355919091527ff3f7a9fe364faab93b216da50a3214154f22a0a2b415b23a84c8169e8b636ee30155565b612798565b816001600160a01b0316836001600160a01b03161461279857612798838261294f565b6001600160a01b0382166127af57610b11816129ec565b826001600160a01b0316826001600160a01b031614610b1157610b118282612a9b565b6127dc8383612adf565b6127e9600084848461284e565b610b115760405162461bcd60e51b8152600401610a70906134b2565b600a5460ff166111f05760405162461bcd60e51b815260206004820152601460248201527314185d5cd8589b194e881b9bdd081c185d5cd95960621b6044820152606401610a70565b60006001600160a01b0384163b1561294457604051630a85bd0160e11b81526001600160a01b0385169063150b7a0290612892903390899088908890600401613504565b6020604051808303816000875af19250505080156128cd575060408051601f3d908101601f191682019092526128ca91810190613541565b60015b61292a573d8080156128fb576040519150601f19603f3d011682016040523d82523d6000602084013e612900565b606091505b5080516000036129225760405162461bcd60e51b8152600401610a70906134b2565b805181602001fd5b6001600160e01b031916630a85bd0160e11b14905061145b565b506001949350505050565b6000600161295c846118f3565b6129669190613249565b6000838152600760205260409020549091508082146129b9576001600160a01b03841660009081526006602090815260408083208584528252808320548484528184208190558352600790915290208190555b5060009182526007602090815260408084208490556001600160a01b039094168352600681528383209183525290812055565b6008546000906129fe90600190613249565b60008381526009602052604081205460088054939450909284908110612a2657612a26612d00565b906000526020600020015490508060088381548110612a4757612a47612d00565b6000918252602080832090910192909255828152600990915260408082208490558582528120556008805480612a7f57612a7f61355e565b6001900381819060005260206000200160009055905550505050565b6000612aa6836118f3565b6001600160a01b039093166000908152600660209081526040808320868452825280832085905593825260079052919091209190915550565b6001600160a01b038216612b355760405162461bcd60e51b815260206004820181905260248201527f4552433732313a206d696e7420746f20746865207a65726f20616464726573736044820152606401610a70565b6000818152600260205260409020546001600160a01b031615612b9a5760405162461bcd60e51b815260206004820152601c60248201527f4552433732313a20746f6b656e20616c7265616479206d696e746564000000006044820152606401610a70565b612ba66000838361271a565b6001600160a01b0382166000908152600360205260408120805460019290612bcf908490613279565b909155505060008181526002602052604080822080546001600160a01b0319166001600160a01b03861690811790915590518392907fddf252ad1be2c89b69c2b068fc378daa952ba7f163c4a11628f55a4df523b3ef908290a45050565b508054612c39906131c1565b6000825580601f10612c49575050565b601f0160209004906000526020600020908101906122949190612ceb565b828054612c73906131c1565b90600052602060002090601f016020900481019282612c955760008555612cdb565b82601f10612cae57805160ff1916838001178555612cdb565b82800160010185558215612cdb579182015b82811115612cdb578251825591602001919060010190612cc0565b50612ce7929150612ceb565b5090565b5b80821115612ce75760008155600101612cec565b634e487b7160e01b600052603260045260246000fd5b634e487b7160e01b600052601160045260246000fd5b6000816000190483118215151615612d4657612d46612d16565b500290565b600082612d6857634e487b7160e01b600052601260045260246000fd5b500490565b6001600160e01b03198116811461229457600080fd5b600060208284031215612d9557600080fd5b8135612da081612d6d565b9392505050565b6000815180845260005b81811015612dcd57602081850181015186830182015201612db1565b81811115612ddf576000602083870101525b50601f01601f19169290920160200192915050565b602081526000612da06020830184612da7565b600060208284031215612e1957600080fd5b5035919050565b6001600160a01b038116811461229457600080fd5b60008060408385031215612e4857600080fd5b8235612e5381612e20565b946020939093013593505050565b600080600060608486031215612e7657600080fd5b8335612e8181612e20565b92506020840135612e9181612e20565b929592945050506040919091013590565b600080600060608486031215612eb757600080fd5b8335612ec281612e20565b95602085013595506040909401359392505050565b600080600060608486031215612eec57600080fd5b83359250602084013591506040840135612f0581612e20565b809150509250925092565b600060208284031215612f2257600080fd5b8135612da081612e20565b801515811461229457600080fd5b60008060408385031215612f4e57600080fd5b8235612f5981612e20565b91506020830135612f6981612f2d565b809150509250929050565b634e487b7160e01b600052604160045260246000fd5b60405160e0810167ffffffffffffffff81118282101715612fad57612fad612f74565b60405290565b600067ffffffffffffffff80841115612fce57612fce612f74565b604051601f8501601f19908116603f01168101908282118183101715612ff657612ff6612f74565b8160405280935085815286868601111561300f57600080fd5b858560208301376000602087830101525050509392505050565b6000806000806080858703121561303f57600080fd5b843561304a81612e20565b9350602085013561305a81612e20565b925060408501359150606085013567ffffffffffffffff81111561307d57600080fd5b8501601f8101871361308e57600080fd5b61309d87823560208401612fb3565b91505092959194509250565b60c0815260006130bc60c0830189612da7565b82810360208401526130ce8189612da7565b9150508560408301528460608301528360808301528260a0830152979650505050505050565b6000806040838503121561310757600080fd5b823561311281612e20565b91506020830135612f6981612e20565b600082601f83011261313357600080fd5b612da083833560208501612fb3565b600080600080600060a0868803121561315a57600080fd5b853567ffffffffffffffff8082111561317257600080fd5b61317e89838a01613122565b9650602088013591508082111561319457600080fd5b506131a188828901613122565b959895975050505060408401359360608101359360809091013592509050565b600181811c908216806131d557607f821691505b6020821081036131f557634e487b7160e01b600052602260045260246000fd5b50919050565b6020808252602e908201527f4552433732313a2063616c6c6572206973206e6f7420746f6b656e206f776e6560408201526d1c881b9bdc88185c1c1c9bdd995960921b606082015260800190565b60008282101561325b5761325b612d16565b500390565b60006001820161327257613272612d16565b5060010190565b6000821982111561328c5761328c612d16565b500190565b805161329c81612f2d565b919050565b6000602082840312156132b357600080fd5b8151612da081612f2d565b6020808252602b908201527f436f756c64206e6f74207472616e7366657220746f6b656e2e204d697373696e60408201526a6720617070726f76616c3f60a81b606082015260800190565b6020808252818101527f4f776e61626c653a2063616c6c6572206973206e6f7420746865206f776e6572604082015260600190565b60006020828403121561335057600080fd5b5051919050565b805161ffff8116811461329c57600080fd5b805160ff8116811461329c57600080fd5b600060e0828403121561338c57600080fd5b613394612f8a565b825161339f81612e20565b81526020830151600281900b81146133b657600080fd5b60208201526133c760408401613357565b60408201526133d860608401613357565b60608201526133e960808401613357565b60808201526133fa60a08401613369565b60a082015261340b60c08401613291565b60c08201529392505050565b600080835481600182811c91508083168061343357607f831692505b6020808410820361345257634e487b7160e01b86526022600452602486fd5b8180156134665760018114613477576134a4565b60ff198616895284890196506134a4565b60008a81526020902060005b8681101561349c5781548b820152908501908301613483565b505084890196505b509498975050505050505050565b60208082526032908201527f4552433732313a207472616e7366657220746f206e6f6e20455243373231526560408201527131b2b4bb32b91034b6b83632b6b2b73a32b960711b606082015260800190565b6001600160a01b038581168252841660208201526040810183905260806060820181905260009061353790830184612da7565b9695505050505050565b60006020828403121561355357600080fd5b8151612da081612d6d565b634e487b7160e01b600052603160045260246000fdfea2646970667358221220f1f9942b265b714ad6f69d8058b0625421793f0992cf9e86acfbbc2b6a9c8f8864736f6c634300080e0033",
  "linkReferences": {},
  "deployedLinkReferences": {}
}