{
  "_format": "hh-sol-artifact-1",
  "contractName": "ERC721Token",
  "sourceName": "contracts/nft.sol",
  "abi": [
    {
      "inputs": [
        {
          "internalType": "string[]",
          "name": "_categories",
          "type": "string[]"
        },
        {
          "internalType": "string[]",
          "name": "_baseUri",
          "type": "string[]"
        },
        {
          "internalType": "uint256[]",
          "name": "_price",
          "type": "uint256[]"
        },
        {
          "internalType": "uint256[]",
          "name": "_maxSupply",
          "type": "uint256[]"
        },
        {
          "internalType": "uint256[]",
          "name": "_percentages",
          "type": "uint256[]"
        },
        {
          "internalType": "address",
          "name": "_usdc",
          "type": "address"
        },
        {
          "internalType": "address",
          "name": "_artist",
          "type": "address"
        },
        {
          "internalType": "address",
          "name": "_investor",
          "type": "address"
        }
      ],
      "stateMutability": "nonpayable",
      "type": "constructor"
    },
    {
      "anonymous": false,
      "inputs": [
        {
          "indexed": true,
          "internalType": "address",
          "name": "owner",
          "type": "address"
        },
        {
          "indexed": true,
          "internalType": "address",
          "name": "approved",
          "type": "address"
        },
        {
          "indexed": true,
          "internalType": "uint256",
          "name": "tokenId",
          "type": "uint256"
        }
      ],
      "name": "Approval",
      "type": "event"
    },
    {
      "anonymous": false,
      "inputs": [
        {
          "indexed": true,
          "internalType": "address",
          "name": "owner",
          "type": "address"
        },
        {
          "indexed": true,
          "internalType": "address",
          "name": "operator",
          "type": "address"
        },
        {
          "indexed": false,
          "internalType": "bool",
          "name": "approved",
          "type": "bool"
        }
      ],
      "name": "ApprovalForAll",
      "type": "event"
    },
    {
      "anonymous": false,
      "inputs": [
        {
          "indexed": false,
          "internalType": "address",
          "name": "",
          "type": "address"
        },
        {
          "indexed": false,
          "internalType": "uint256",
          "name": "",
          "type": "uint256"
        }
      ],
      "name": "OpenseaReceived",
      "type": "event"
    },
    {
      "anonymous": false,
      "inputs": [
        {
          "indexed": false,
          "internalType": "address",
          "name": "account",
          "type": "address"
        }
      ],
      "name": "Paused",
      "type": "event"
    },
    {
      "anonymous": false,
      "inputs": [
        {
          "indexed": false,
          "internalType": "address",
          "name": "",
          "type": "address"
        },
        {
          "indexed": false,
          "internalType": "uint256",
          "name": "",
          "type": "uint256"
        }
      ],
      "name": "RoyaltiesReceived",
      "type": "event"
    },
    {
      "anonymous": false,
      "inputs": [
        {
          "indexed": true,
          "internalType": "address",
          "name": "from",
          "type": "address"
        },
        {
          "indexed": true,
          "internalType": "address",
          "name": "to",
          "type": "address"
        },
        {
          "indexed": true,
          "internalType": "uint256",
          "name": "tokenId",
          "type": "uint256"
        }
      ],
      "name": "Transfer",
      "type": "event"
    },
    {
      "anonymous": false,
      "inputs": [
        {
          "indexed": false,
          "internalType": "address",
          "name": "account",
          "type": "address"
        }
      ],
      "name": "Unpaused",
      "type": "event"
    },
    {
      "inputs": [
        {
          "internalType": "uint32",
          "name": "amount",
          "type": "uint32"
        }
      ],
      "name": "FundRoyalties",
      "outputs": [],
      "stateMutability": "nonpayable",
      "type": "function"
    },
    {
      "inputs": [
        {
          "internalType": "uint256",
          "name": "",
          "type": "uint256"
        }
      ],
      "name": "RoyaltiesClaimablePerCategory",
      "outputs": [
        {
          "internalType": "uint256",
          "name": "",
          "type": "uint256"
        }
      ],
      "stateMutability": "view",
      "type": "function"
    },
    {
      "inputs": [
        {
          "internalType": "uint256",
          "name": "",
          "type": "uint256"
        }
      ],
      "name": "RoyaltiesClaimedPerId",
      "outputs": [
        {
          "internalType": "uint256",
          "name": "",
          "type": "uint256"
        }
      ],
      "stateMutability": "view",
      "type": "function"
    },
    {
      "inputs": [
        {
          "internalType": "string",
          "name": "_categories",
          "type": "string"
        },
        {
          "internalType": "string",
          "name": "_baseUri",
          "type": "string"
        },
        {
          "internalType": "uint256",
          "name": "_price",
          "type": "uint256"
        },
        {
          "internalType": "uint256",
          "name": "_maxSupply",
          "type": "uint256"
        },
        {
          "internalType": "uint256",
          "name": "_percentages",
          "type": "uint256"
        }
      ],
      "name": "addCategory",
      "outputs": [],
      "stateMutability": "nonpayable",
      "type": "function"
    },
    {
      "inputs": [
        {
          "internalType": "address",
          "name": "to",
          "type": "address"
        },
        {
          "internalType": "uint256",
          "name": "tokenId",
          "type": "uint256"
        }
      ],
      "name": "approve",
      "outputs": [],
      "stateMutability": "nonpayable",
      "type": "function"
    },
    {
      "inputs": [],
      "name": "artist",
      "outputs": [
        {
          "internalType": "address",
          "name": "",
          "type": "address"
        }
      ],
      "stateMutability": "view",
      "type": "function"
    },
    {
      "inputs": [
        {
          "internalType": "address",
          "name": "owner",
          "type": "address"
        }
      ],
      "name": "balanceOf",
      "outputs": [
        {
          "internalType": "uint256",
          "name": "",
          "type": "uint256"
        }
      ],
      "stateMutability": "view",
      "type": "function"
    },
    {
      "inputs": [
        {
          "internalType": "uint256",
          "name": "",
          "type": "uint256"
        }
      ],
      "name": "categories",
      "outputs": [
        {
          "internalType": "string",
          "name": "name",
          "type": "string"
        },
        {
          "internalType": "string",
          "name": "baseUri",
          "type": "string"
        },
        {
          "internalType": "uint256",
          "name": "price",
          "type": "uint256"
        },
        {
          "internalType": "uint256",
          "name": "maxSupply",
          "type": "uint256"
        },
        {
          "internalType": "uint256",
          "name": "counterSupply",
          "type": "uint256"
        },
        {
          "internalType": "uint256",
          "name": "percentages",
          "type": "uint256"
        }
      ],
      "stateMutability": "view",
      "type": "function"
    },
    {
      "inputs": [],
      "name": "claimMultipleRoyalties",
      "outputs": [],
      "stateMutability": "nonpayable",
      "type": "function"
    },
    {
      "inputs": [
        {
          "internalType": "uint256",
          "name": "_tokenId",
          "type": "uint256"
        }
      ],
      "name": "claimRoyalties",
      "outputs": [],
      "stateMutability": "nonpayable",
      "type": "function"
    },
    {
      "inputs": [
        {
          "internalType": "address",
          "name": "_to",
          "type": "address"
        },
        {
          "internalType": "uint256",
          "name": "categoryId",
          "type": "uint256"
        },
        {
          "internalType": "uint256",
          "name": "_quantity",
          "type": "uint256"
        },
        {
          "internalType": "bytes32[]",
          "name": "_proof",
          "type": "bytes32[]"
        }
      ],
      "name": "crossMint",
      "outputs": [],
      "stateMutability": "payable",
      "type": "function"
    },
    {
      "inputs": [
        {
          "internalType": "uint256",
          "name": "tokenId",
          "type": "uint256"
        }
      ],
      "name": "getApproved",
      "outputs": [
        {
          "internalType": "address",
          "name": "",
          "type": "address"
        }
      ],
      "stateMutability": "view",
      "type": "function"
    },
    {
      "inputs": [
        {
          "internalType": "address",
          "name": "owner",
          "type": "address"
        },
        {
          "internalType": "address",
          "name": "operator",
          "type": "address"
        }
      ],
      "name": "isApprovedForAll",
      "outputs": [
        {
          "internalType": "bool",
          "name": "",
          "type": "bool"
        }
      ],
      "stateMutability": "view",
      "type": "function"
    },
    {
      "inputs": [
        {
          "internalType": "uint256",
          "name": "_quantity",
          "type": "uint256"
        },
        {
          "internalType": "uint256",
          "name": "categoryId",
          "type": "uint256"
        }
      ],
      "name": "mintUSDC",
      "outputs": [],
      "stateMutability": "payable",
      "type": "function"
    },
    {
      "inputs": [],
      "name": "name",
      "outputs": [
        {
          "internalType": "string",
          "name": "",
          "type": "string"
        }
      ],
      "stateMutability": "view",
      "type": "function"
    },
    {
      "inputs": [
        {
          "internalType": "uint256",
          "name": "tokenId",
          "type": "uint256"
        }
      ],
      "name": "ownerOf",
      "outputs": [
        {
          "internalType": "address",
          "name": "",
          "type": "address"
        }
      ],
      "stateMutability": "view",
      "type": "function"
    },
    {
      "inputs": [],
      "name": "paused",
      "outputs": [
        {
          "internalType": "bool",
          "name": "",
          "type": "bool"
        }
      ],
      "stateMutability": "view",
      "type": "function"
    },
    {
      "inputs": [
        {
          "internalType": "uint256",
          "name": "categoryId",
          "type": "uint256"
        }
      ],
      "name": "removeCategory",
      "outputs": [],
      "stateMutability": "nonpayable",
      "type": "function"
    },
    {
      "inputs": [
        {
          "internalType": "address",
          "name": "from",
          "type": "address"
        },
        {
          "internalType": "address",
          "name": "to",
          "type": "address"
        },
        {
          "internalType": "uint256",
          "name": "tokenId",
          "type": "uint256"
        }
      ],
      "name": "safeTransferFrom",
      "outputs": [],
      "stateMutability": "nonpayable",
      "type": "function"
    },
    {
      "inputs": [
        {
          "internalType": "address",
          "name": "from",
          "type": "address"
        },
        {
          "internalType": "address",
          "name": "to",
          "type": "address"
        },
        {
          "internalType": "uint256",
          "name": "tokenId",
          "type": "uint256"
        },
        {
          "internalType": "bytes",
          "name": "data",
          "type": "bytes"
        }
      ],
      "name": "safeTransferFrom",
      "outputs": [],
      "stateMutability": "nonpayable",
      "type": "function"
    },
    {
      "inputs": [
        {
          "internalType": "address",
          "name": "operator",
          "type": "address"
        },
        {
          "internalType": "bool",
          "name": "approved",
          "type": "bool"
        }
      ],
      "name": "setApprovalForAll",
      "outputs": [],
      "stateMutability": "nonpayable",
      "type": "function"
    },
    {
      "inputs": [],
      "name": "setPaused",
      "outputs": [],
      "stateMutability": "nonpayable",
      "type": "function"
    },
    {
      "inputs": [],
      "name": "setUnPaused",
      "outputs": [],
      "stateMutability": "nonpayable",
      "type": "function"
    },
    {
      "inputs": [
        {
          "internalType": "bytes4",
          "name": "interfaceId",
          "type": "bytes4"
        }
      ],
      "name": "supportsInterface",
      "outputs": [
        {
          "internalType": "bool",
          "name": "",
          "type": "bool"
        }
      ],
      "stateMutability": "view",
      "type": "function"
    },
    {
      "inputs": [],
      "name": "symbol",
      "outputs": [
        {
          "internalType": "string",
          "name": "",
          "type": "string"
        }
      ],
      "stateMutability": "view",
      "type": "function"
    },
    {
      "inputs": [
        {
          "internalType": "uint256",
          "name": "index",
          "type": "uint256"
        }
      ],
      "name": "tokenByIndex",
      "outputs": [
        {
          "internalType": "uint256",
          "name": "",
          "type": "uint256"
        }
      ],
      "stateMutability": "view",
      "type": "function"
    },
    {
      "inputs": [
        {
          "internalType": "address",
          "name": "owner",
          "type": "address"
        },
        {
          "internalType": "uint256",
          "name": "index",
          "type": "uint256"
        }
      ],
      "name": "tokenOfOwnerByIndex",
      "outputs": [
        {
          "internalType": "uint256",
          "name": "",
          "type": "uint256"
        }
      ],
      "stateMutability": "view",
      "type": "function"
    },
    {
      "inputs": [
        {
          "internalType": "uint256",
          "name": "_tokenId",
          "type": "uint256"
        }
      ],
      "name": "tokenURI",
      "outputs": [
        {
          "internalType": "string",
          "name": "",
          "type": "string"
        }
      ],
      "stateMutability": "view",
      "type": "function"
    },
    {
      "inputs": [],
      "name": "totalSupply",
      "outputs": [
        {
          "internalType": "uint256",
          "name": "",
          "type": "uint256"
        }
      ],
      "stateMutability": "view",
      "type": "function"
    },
    {
      "inputs": [
        {
          "internalType": "address",
          "name": "from",
          "type": "address"
        },
        {
          "internalType": "address",
          "name": "to",
          "type": "address"
        },
        {
          "internalType": "uint256",
          "name": "tokenId",
          "type": "uint256"
        }
      ],
      "name": "transferFrom",
      "outputs": [],
      "stateMutability": "nonpayable",
      "type": "function"
    },
    {
      "inputs": [],
      "name": "usdc",
      "outputs": [
        {
          "internalType": "address",
          "name": "",
          "type": "address"
        }
      ],
      "stateMutability": "view",
      "type": "function"
    },
    {
      "inputs": [],
      "name": "withdraw",
      "outputs": [],
      "stateMutability": "payable",
      "type": "function"
    },
    {
      "stateMutability": "payable",
      "type": "receive"
    }
  ],
  "bytecode": "0x6080604052603260135560326014553480156200001b57600080fd5b506040516200385a3803806200385a8339810160408190526200003e916200058d565b60408051808201825260048152631d195cdd60e21b602080830191825283518085019094526002845261151560f21b9084015281519192916200008491600091620002d2565b5080516200009a906001906020840190620002d2565b5050600a805460ff191690555086518851148015620000ba575085518851145b8015620000c8575084518851145b8015620000d6575083518851145b620001335760405162461bcd60e51b8152602060048201526024808201527f416c6c20617272617973206d7573742068617665207468652073616d65206c656044820152630dccee8d60e31b606482015260840160405180910390fd5b60005b88518110156200028857600c6040518060c001604052808b8481518110620001625762000162620006a6565b602002602001015181526020018a8481518110620001845762000184620006a6565b60200260200101518152602001898481518110620001a657620001a6620006a6565b60200260200101518152602001888481518110620001c857620001c8620006a6565b6020026020010151815260200160008152602001878481518110620001f157620001f1620006a6565b6020908102919091018101519091528254600181018455600093845292819020825180519394600602909101926200022d9284920190620002d2565b506020828101518051620002489260018501920190620002d2565b5060408201516002820155606082015160038201556080820151600482015560a090910151600590910155806200027f81620006bc565b91505062000136565b50601080546001600160a01b039485166001600160a01b03199182161790915560128054928516928216929092179091556011805492909316911617905550620007209350505050565b828054620002e090620006e4565b90600052602060002090601f0160209004810192826200030457600085556200034f565b82601f106200031f57805160ff19168380011785556200034f565b828001600101855582156200034f579182015b828111156200034f57825182559160200191906001019062000332565b506200035d92915062000361565b5090565b5b808211156200035d576000815560010162000362565b634e487b7160e01b600052604160045260246000fd5b604051601f8201601f191681016001600160401b0381118282101715620003b957620003b962000378565b604052919050565b60006001600160401b03821115620003dd57620003dd62000378565b5060051b60200190565b6000601f8381840112620003fa57600080fd5b82516020620004136200040d83620003c1565b6200038e565b82815260059290921b850181019181810190878411156200043357600080fd5b8287015b84811015620004f75780516001600160401b0380821115620004595760008081fd5b818a0191508a603f8301126200046f5760008081fd5b858201518181111562000486576200048662000378565b62000499818a01601f191688016200038e565b915080825260408c81838601011115620004b35760008081fd5b60005b82811015620004d3578481018201518482018a01528801620004b6565b82811115620004e55760008984860101525b50505084525091830191830162000437565b50979650505050505050565b600082601f8301126200051557600080fd5b81516020620005286200040d83620003c1565b82815260059290921b840181019181810190868411156200054857600080fd5b8286015b848110156200056557805183529183019183016200054c565b509695505050505050565b80516001600160a01b03811681146200058857600080fd5b919050565b600080600080600080600080610100898b031215620005ab57600080fd5b88516001600160401b0380821115620005c357600080fd5b620005d18c838d01620003e7565b995060208b0151915080821115620005e857600080fd5b620005f68c838d01620003e7565b985060408b01519150808211156200060d57600080fd5b6200061b8c838d0162000503565b975060608b01519150808211156200063257600080fd5b620006408c838d0162000503565b965060808b01519150808211156200065757600080fd5b50620006668b828c0162000503565b9450506200067760a08a0162000570565b92506200068760c08a0162000570565b91506200069760e08a0162000570565b90509295985092959890939650565b634e487b7160e01b600052603260045260246000fd5b600060018201620006dd57634e487b7160e01b600052601160045260246000fd5b5060010190565b600181811c90821680620006f957607f821691505b6020821081036200071a57634e487b7160e01b600052602260045260246000fd5b50919050565b61312a80620007306000396000f3fe6080604052600436106101e75760003560e01c8063546b7e0a1161010257806395d89b4111610095578063c6cdbe5e11610064578063c6cdbe5e14610683578063c87b56dd146106b5578063e985e9c5146106d5578063ecbe483f1461071e57600080fd5b806395d89b411461060e578063a22cb46514610623578063b758966414610643578063b88d4fde1461066357600080fd5b8063741faee6116100d1578063741faee61461058e57806380420b31146105bb578063820c5dfd146105db57806386ad310f146105ee57600080fd5b8063546b7e0a146105095780635c975abb146105365780636352211e1461054e57806370a082311461056e57600080fd5b80632f745c591161017a5780633e413bee116101495780633e413bee1461048957806342842e0e146104a957806343bc1612146104c95780634f6ccce7146104e957600080fd5b80632f745c5914610437578063349fdb091461045757806337a66d851461046c5780633ccfd60b1461048157600080fd5b8063095ea7b3116101b6578063095ea7b3146103c357806318160ddd146103e357806323b872dd1461040257806326c02d231461042257600080fd5b806301ffc9a71461031f5780630247051f1461035457806306fdde0314610369578063081812fc1461038b57600080fd5b3661031a576012546013546000916001600160a01b0316906103e89061020d90346128bf565b61021791906128f4565b604051600081818185875af1925050503d8060008114610253576040519150601f19603f3d011682016040523d82523d6000602084013e610258565b606091505b505090508061026657600080fd5b6011546014546000916001600160a01b0316906103e89061028790346128bf565b61029191906128f4565b604051600081818185875af1925050503d80600081146102cd576040519150601f19603f3d011682016040523d82523d6000602084013e6102d2565b606091505b50509050806102e057600080fd5b604080513381523460208201527f7c6ffa8afa793623698938cd722cf1ed49a5fe661a60f5723fe00cc6f55baeb2910160405180910390a1005b600080fd5b34801561032b57600080fd5b5061033f61033a36600461291e565b61073e565b60405190151581526020015b60405180910390f35b610367610362366004612942565b610769565b005b34801561037557600080fd5b5061037e610adc565b60405161034b91906129bc565b34801561039757600080fd5b506103ab6103a63660046129cf565b610b6e565b6040516001600160a01b03909116815260200161034b565b3480156103cf57600080fd5b506103676103de366004612a04565b610b95565b3480156103ef57600080fd5b506008545b60405190815260200161034b565b34801561040e57600080fd5b5061036761041d366004612a2e565b610caa565b34801561042e57600080fd5b50610367610cdb565b34801561044357600080fd5b506103f4610452366004612a04565b610f05565b34801561046357600080fd5b50610367610f9b565b34801561047857600080fd5b50610367610fcf565b610367611001565b34801561049557600080fd5b506010546103ab906001600160a01b031681565b3480156104b557600080fd5b506103676104c4366004612a2e565b611083565b3480156104d557600080fd5b506011546103ab906001600160a01b031681565b3480156104f557600080fd5b506103f46105043660046129cf565b61109e565b34801561051557600080fd5b506103f46105243660046129cf565b600e6020526000908152604090205481565b34801561054257600080fd5b50600a5460ff1661033f565b34801561055a57600080fd5b506103ab6105693660046129cf565b611131565b34801561057a57600080fd5b506103f4610589366004612a6a565b611191565b34801561059a57600080fd5b506103f46105a93660046129cf565b600f6020526000908152604090205481565b3480156105c757600080fd5b506103676105d63660046129cf565b611217565b6103676105e9366004612a85565b6112e2565b3480156105fa57600080fd5b506103676106093660046129cf565b6114ce565b34801561061a57600080fd5b5061037e61171c565b34801561062f57600080fd5b5061036761063e366004612b2a565b61172b565b34801561064f57600080fd5b5061036761065e366004612b61565b611736565b34801561066f57600080fd5b5061036761067e366004612c13565b611941565b34801561068f57600080fd5b506106a361069e3660046129cf565b611979565b60405161034b96959493929190612c8f565b3480156106c157600080fd5b5061037e6106d03660046129cf565b611ad5565b3480156106e157600080fd5b5061033f6106f0366004612cda565b6001600160a01b03918216600090815260056020908152604080832093909416825291909152205460ff1690565b34801561072a57600080fd5b50610367610739366004612d2d565b611ba1565b60006001600160e01b0319821663780e9d6360e01b1480610763575061076382611c8f565b92915050565b3233146107bd5760405162461bcd60e51b815260206004820152601e60248201527f5468652063616c6c657220697320616e6f7468657220636f6e7472616374000060448201526064015b60405180910390fd5b6107c5611cdf565b600c5481106108095760405162461bcd60e51b815260206004820152601060248201526f496e76616c69642063617465676f727960801b60448201526064016107b4565b600c818154811061081c5761081c612dac565b906000526020600020906006020160040154600c828154811061084157610841612dac565b90600052602060002090600602016003015461085d9190612dc2565b8211156108a15760405162461bcd60e51b81526020600482015260126024820152714e6f7420656e6f7567687420737570706c7960701b60448201526064016107b4565b600c81815481106108b4576108b4612dac565b906000526020600020906006020160020154826108d191906128bf565b6010546040516370a0823160e01b81523360048201526001600160a01b03909116906370a0823190602401602060405180830381865afa158015610919573d6000803e3d6000fd5b505050506040513d601f19601f8201168201806040525081019061093d9190612dd9565b101561097e5760405162461bcd60e51b815260206004820152601060248201526f4e6f7420656e6f75676874205553444360801b60448201526064016107b4565b601054600c80546001600160a01b03909216916323b872dd913391309190869081106109ac576109ac612dac565b906000526020600020906006020160020154866109c991906128bf565b6040516001600160e01b031960e086901b1681526001600160a01b03938416600482015292909116602483015260448201526064016020604051808303816000875af1158015610a1d573d6000803e3d6000fd5b505050506040513d601f19601f82011682018060405250810190610a419190612df2565b5060005b82811015610a9e57610a5f33610a5a600b5490565b611d25565b81600d6000610a6d600b5490565b8152602081019190915260400160002055610a8c600b80546001019055565b80610a9681612e0f565b915050610a45565b5081600c8281548110610ab357610ab3612dac565b90600052602060002090600602016004016000828254610ad39190612e28565b90915550505050565b606060008054610aeb90612e40565b80601f0160208091040260200160405190810160405280929190818152602001828054610b1790612e40565b8015610b645780601f10610b3957610100808354040283529160200191610b64565b820191906000526020600020905b815481529060010190602001808311610b4757829003601f168201915b5050505050905090565b6000610b7982611d3f565b506000908152600460205260409020546001600160a01b031690565b6000610ba082611131565b9050806001600160a01b0316836001600160a01b031603610c0d5760405162461bcd60e51b815260206004820152602160248201527f4552433732313a20617070726f76616c20746f2063757272656e74206f776e656044820152603960f91b60648201526084016107b4565b336001600160a01b0382161480610c295750610c2981336106f0565b610c9b5760405162461bcd60e51b815260206004820152603e60248201527f4552433732313a20617070726f76652063616c6c6572206973206e6f7420746f60448201527f6b656e206f776e6572206e6f7220617070726f76656420666f7220616c6c000060648201526084016107b4565b610ca58383611d9e565b505050565b610cb43382611e0c565b610cd05760405162461bcd60e51b81526004016107b490612e7a565b610ca5838383611e8b565b6000610ce633611191565b11610d335760405162461bcd60e51b815260206004820152601a60248201527f796f7520646f206e6f7420706f736573732074686973206e667400000000000060448201526064016107b4565b6000805b610d4033611191565b811015610e09576000610d533383610f05565b6000818152600d6020908152604080832054808452600e835281842054858552600f9093529220549293509091108015610d9a57506000818152600e602052604090205415155b15610df4576000828152600f6020908152604080832054848452600e909252822054610dc69190612dc2565b9050610dd28186612e28565b6000838152600e6020908152604080832054878452600f909252909120559450505b50508080610e0190612e0f565b915050610d37565b5060008111610e665760405162461bcd60e51b8152602060048201526024808201527f796f7520616c726561647920636c61696d656420616c6c20796f7572207265776044820152636172647360e01b60648201526084016107b4565b6010546040516323b872dd60e01b8152336004820152306024820152604481018390526000916001600160a01b0316906323b872dd906064016020604051808303816000875af1158015610ebe573d6000803e3d6000fd5b505050506040513d601f19601f82011682018060405250810190610ee29190612df2565b905080610f015760405162461bcd60e51b81526004016107b490612ec8565b5050565b6000610f1083611191565b8210610f725760405162461bcd60e51b815260206004820152602b60248201527f455243373231456e756d657261626c653a206f776e657220696e646578206f7560448201526a74206f6620626f756e647360a81b60648201526084016107b4565b506001600160a01b03919091166000908152600660209081526040808320938352929052205490565b6011546001600160a01b03163314610fc55760405162461bcd60e51b81526004016107b490612f13565b610fcd612032565b565b6011546001600160a01b03163314610ff95760405162461bcd60e51b81526004016107b490612f13565b610fcd612084565b6011546001600160a01b0316331461102b5760405162461bcd60e51b81526004016107b490612f13565b604051600090339047908381818185875af1925050503d806000811461106d576040519150601f19603f3d011682016040523d82523d6000602084013e611072565b606091505b505090508061108057600080fd5b50565b610ca583838360405180602001604052806000815250611941565b60006110a960085490565b821061110c5760405162461bcd60e51b815260206004820152602c60248201527f455243373231456e756d657261626c653a20676c6f62616c20696e646578206f60448201526b7574206f6620626f756e647360a01b60648201526084016107b4565b6008828154811061111f5761111f612dac565b90600052602060002001549050919050565b6000818152600260205260408120546001600160a01b0316806107635760405162461bcd60e51b8152602060048201526018602482015277115490cdcc8c4e881a5b9d985b1a59081d1bdad95b88125160421b60448201526064016107b4565b60006001600160a01b0382166111fb5760405162461bcd60e51b815260206004820152602960248201527f4552433732313a2061646472657373207a65726f206973206e6f7420612076616044820152683634b21037bbb732b960b91b60648201526084016107b4565b506001600160a01b031660009081526003602052604090205490565b6011546001600160a01b031633146112415760405162461bcd60e51b81526004016107b490612f13565b600c5481106112865760405162461bcd60e51b8152602060048201526011602482015270092dcc8caf040d2e640e8dede40d0d2ced607b1b60448201526064016107b4565b600c818154811061129957611299612dac565b600091825260208220600690910201906112b382826127d6565b6112c16001830160006127d6565b50600060028201819055600382018190556004820181905560059091015550565b600c5484106113265760405162461bcd60e51b815260206004820152601060248201526f496e76616c69642063617465676f727960801b60448201526064016107b4565b600c848154811061133957611339612dac565b906000526020600020906006020160040154600c858154811061135e5761135e612dac565b90600052602060002090600602016003015461137a9190612dc2565b8311156113be5760405162461bcd60e51b81526020600482015260126024820152714e6f7420656e6f7567687420737570706c7960701b60448201526064016107b4565b73da30ee0788276c093e686780c25f6c94310272346001600160a01b038616146114365760405162461bcd60e51b8152602060048201526024808201527f546869732066756e6374696f6e20697320666f722043726f73736d696e74206f60448201526337363c9760e11b60648201526084016107b4565b60005b8381101561148d5761144e86610a5a600b5490565b84600d600061145c600b5490565b815260208101919091526040016000205561147b600b80546001019055565b8061148581612e0f565b915050611439565b5082600c85815481106114a2576114a2612dac565b906000526020600020906006020160040160008282546114c29190612e28565b90915550505050505050565b60085481106115165760405162461bcd60e51b81526020600482015260146024820152731d1a1a5cc81a5908191bc81b9bdd08195e1a5cdd60621b60448201526064016107b4565b6000818152600d60205260409020543361152f83611131565b6001600160a01b03161461157d5760405162461bcd60e51b81526020600482015260156024820152741b9bdd081bdddb995c881bd9881d1a1a5cc8139195605a1b60448201526064016107b4565b6000818152600e60205260409020546115c95760405162461bcd60e51b815260206004820152600e60248201526d139bc814995dd85c991cc816595d60921b60448201526064016107b4565b6000818152600e6020908152604080832054858452600f90925290912054106116345760405162461bcd60e51b815260206004820152601f60248201527f596f7520616c726561647920636c61696d656420796f7572207265776172640060448201526064016107b4565b6000828152600f6020908152604080832054848452600e90925282205461165b9190612dc2565b6010546040516323b872dd60e01b8152336004820152306024820152604481018390529192506000916001600160a01b03909116906323b872dd906064016020604051808303816000875af11580156116b8573d6000803e3d6000fd5b505050506040513d601f19601f820116820180604052508101906116dc9190612df2565b9050806116fb5760405162461bcd60e51b81526004016107b490612ec8565b50506000908152600e6020908152604080832054938352600f909152902055565b606060018054610aeb90612e40565b610f013383836120c1565b6011546001600160a01b031633146117605760405162461bcd60e51b81526004016107b490612f13565b60008163ffffffff16116117aa5760405162461bcd60e51b81526020600482015260116024820152700616d6f756e742063616e2774206265203607c1b60448201526064016107b4565b6010546040516323b872dd60e01b815233600482015230602482015263ffffffff831660448201526000916001600160a01b0316906323b872dd906064016020604051808303816000875af1158015611807573d6000803e3d6000fd5b505050506040513d601f19601f8201168201806040525081019061182b9190612df2565b90508061184a5760405162461bcd60e51b81526004016107b490612ec8565b60005b600c548110156118fe576064600c828154811061186c5761186c612dac565b906000526020600020906006020160030154600c838154811061189157611891612dac565b9060005260206000209060060201600501548563ffffffff166118b491906128bf565b6118be91906128f4565b6118c891906128f4565b6000828152600e6020526040812080549091906118e6908490612e28565b909155508190506118f681612e0f565b91505061184d565b506040805133815263ffffffff841660208201527f332c3fd68e199528deb4a5631f1c91795464d13656d118e824c5da4f75ea83e5910160405180910390a15050565b61194b3383611e0c565b6119675760405162461bcd60e51b81526004016107b490612e7a565b6119738484848461218f565b50505050565b600c818154811061198957600080fd5b90600052602060002090600602016000915090508060000180546119ac90612e40565b80601f01602080910402602001604051908101604052809291908181526020018280546119d890612e40565b8015611a255780601f106119fa57610100808354040283529160200191611a25565b820191906000526020600020905b815481529060010190602001808311611a0857829003601f168201915b505050505090806001018054611a3a90612e40565b80601f0160208091040260200160405190810160405280929190818152602001828054611a6690612e40565b8015611ab35780601f10611a8857610100808354040283529160200191611ab3565b820191906000526020600020905b815481529060010190602001808311611a9657829003601f168201915b5050505050908060020154908060030154908060040154908060050154905086565b6000818152600260205260409020546060906001600160a01b0316611b3c5760405162461bcd60e51b815260206004820152601f60248201527f55524920717565727920666f72206e6f6e6578697374656e7420746f6b656e0060448201526064016107b4565b6000828152600d6020526040902054600c805482908110611b5f57611b5f612dac565b9060005260206000209060060201600101611b79846121c2565b604051602001611b8a929190612f64565b604051602081830303815290604052915050919050565b6011546001600160a01b03163314611bcb5760405162461bcd60e51b81526004016107b490612f13565b6040805160c08101825286815260208082018790529181018590526060810184905260006080820181905260a08201849052600c8054600181018255915281518051929360069092027fdf6966c971051c3d54ec59162606531493a51404a002842f56009d7e5cf4a8c70192611c449284920190612810565b506020828101518051611c5d9260018501920190612810565b5060408201518160020155606082015181600301556080820151816004015560a0820151816005015550505050505050565b60006001600160e01b031982166380ac58cd60e01b1480611cc057506001600160e01b03198216635b5e139f60e01b145b8061076357506301ffc9a760e01b6001600160e01b0319831614610763565b600a5460ff1615610fcd5760405162461bcd60e51b815260206004820152601060248201526f14185d5cd8589b194e881c185d5cd95960821b60448201526064016107b4565b610f018282604051806020016040528060008152506122c3565b6000818152600260205260409020546001600160a01b03166110805760405162461bcd60e51b8152602060048201526018602482015277115490cdcc8c4e881a5b9d985b1a59081d1bdad95b88125160421b60448201526064016107b4565b600081815260046020526040902080546001600160a01b0319166001600160a01b0384169081179091558190611dd382611131565b6001600160a01b03167f8c5be1e5ebec7d5bd14f71427d1e84f3dd0314c0f7b2291e5b200ac8c7c3b92560405160405180910390a45050565b600080611e1883611131565b9050806001600160a01b0316846001600160a01b03161480611e5f57506001600160a01b0380821660009081526005602090815260408083209388168352929052205460ff165b80611e835750836001600160a01b0316611e7884610b6e565b6001600160a01b0316145b949350505050565b826001600160a01b0316611e9e82611131565b6001600160a01b031614611f025760405162461bcd60e51b815260206004820152602560248201527f4552433732313a207472616e736665722066726f6d20696e636f72726563742060448201526437bbb732b960d91b60648201526084016107b4565b6001600160a01b038216611f645760405162461bcd60e51b8152602060048201526024808201527f4552433732313a207472616e7366657220746f20746865207a65726f206164646044820152637265737360e01b60648201526084016107b4565b611f6f8383836122f6565b611f7a600082611d9e565b6001600160a01b0383166000908152600360205260408120805460019290611fa3908490612dc2565b90915550506001600160a01b0382166000908152600360205260408120805460019290611fd1908490612e28565b909155505060008181526002602052604080822080546001600160a01b0319166001600160a01b0386811691821790925591518493918716917fddf252ad1be2c89b69c2b068fc378daa952ba7f163c4a11628f55a4df523b3ef91a4505050565b61203a6123ae565b600a805460ff191690557f5db9ee0a495bf2e6ff9c91a7834c1ba4fdd244a5e8aa4e537bd38aeae4b073aa335b6040516001600160a01b03909116815260200160405180910390a1565b61208c611cdf565b600a805460ff191660011790557f62e78cea01bee320cd4e420270b5ea74000d11b0c9f74754ebdbfc544b05a2586120673390565b816001600160a01b0316836001600160a01b0316036121225760405162461bcd60e51b815260206004820152601960248201527f4552433732313a20617070726f766520746f2063616c6c65720000000000000060448201526064016107b4565b6001600160a01b03838116600081815260056020908152604080832094871680845294825291829020805460ff191686151590811790915591519182527f17307eab39ab6107e8899845ad3d59bd9653f200f220920489ca2b5937696c31910160405180910390a3505050565b61219a848484611e8b565b6121a6848484846123f7565b6119735760405162461bcd60e51b81526004016107b49061301e565b6060816000036121e95750506040805180820190915260018152600360fc1b602082015290565b8160005b811561221357806121fd81612e0f565b915061220c9050600a836128f4565b91506121ed565b60008167ffffffffffffffff81111561222e5761222e612b87565b6040519080825280601f01601f191660200182016040528015612258576020820181803683370190505b5090505b8415611e835761226d600183612dc2565b915061227a600a86613070565b612285906030612e28565b60f81b81838151811061229a5761229a612dac565b60200101906001600160f81b031916908160001a9053506122bc600a866128f4565b945061225c565b6122cd83836124f8565b6122da60008484846123f7565b610ca55760405162461bcd60e51b81526004016107b49061301e565b6001600160a01b0383166123515761234c81600880546000838152600960205260408120829055600182018355919091527ff3f7a9fe364faab93b216da50a3214154f22a0a2b415b23a84c8169e8b636ee30155565b612374565b816001600160a01b0316836001600160a01b031614612374576123748382612646565b6001600160a01b03821661238b57610ca5816126e3565b826001600160a01b0316826001600160a01b031614610ca557610ca58282612792565b600a5460ff16610fcd5760405162461bcd60e51b815260206004820152601460248201527314185d5cd8589b194e881b9bdd081c185d5cd95960621b60448201526064016107b4565b60006001600160a01b0384163b156124ed57604051630a85bd0160e11b81526001600160a01b0385169063150b7a029061243b903390899088908890600401613084565b6020604051808303816000875af1925050508015612476575060408051601f3d908101601f19168201909252612473918101906130c1565b60015b6124d3573d8080156124a4576040519150601f19603f3d011682016040523d82523d6000602084013e6124a9565b606091505b5080516000036124cb5760405162461bcd60e51b81526004016107b49061301e565b805181602001fd5b6001600160e01b031916630a85bd0160e11b149050611e83565b506001949350505050565b6001600160a01b03821661254e5760405162461bcd60e51b815260206004820181905260248201527f4552433732313a206d696e7420746f20746865207a65726f206164647265737360448201526064016107b4565b6000818152600260205260409020546001600160a01b0316156125b35760405162461bcd60e51b815260206004820152601c60248201527f4552433732313a20746f6b656e20616c7265616479206d696e7465640000000060448201526064016107b4565b6125bf600083836122f6565b6001600160a01b03821660009081526003602052604081208054600192906125e8908490612e28565b909155505060008181526002602052604080822080546001600160a01b0319166001600160a01b03861690811790915590518392907fddf252ad1be2c89b69c2b068fc378daa952ba7f163c4a11628f55a4df523b3ef908290a45050565b6000600161265384611191565b61265d9190612dc2565b6000838152600760205260409020549091508082146126b0576001600160a01b03841660009081526006602090815260408083208584528252808320548484528184208190558352600790915290208190555b5060009182526007602090815260408084208490556001600160a01b039094168352600681528383209183525290812055565b6008546000906126f590600190612dc2565b6000838152600960205260408120546008805493945090928490811061271d5761271d612dac565b90600052602060002001549050806008838154811061273e5761273e612dac565b6000918252602080832090910192909255828152600990915260408082208490558582528120556008805480612776576127766130de565b6001900381819060005260206000200160009055905550505050565b600061279d83611191565b6001600160a01b039093166000908152600660209081526040808320868452825280832085905593825260079052919091209190915550565b5080546127e290612e40565b6000825580601f106127f2575050565b601f0160209004906000526020600020908101906110809190612894565b82805461281c90612e40565b90600052602060002090601f01602090048101928261283e5760008555612884565b82601f1061285757805160ff1916838001178555612884565b82800160010185558215612884579182015b82811115612884578251825591602001919060010190612869565b50612890929150612894565b5090565b5b808211156128905760008155600101612895565b634e487b7160e01b600052601160045260246000fd5b60008160001904831182151516156128d9576128d96128a9565b500290565b634e487b7160e01b600052601260045260246000fd5b600082612903576129036128de565b500490565b6001600160e01b03198116811461108057600080fd5b60006020828403121561293057600080fd5b813561293b81612908565b9392505050565b6000806040838503121561295557600080fd5b50508035926020909101359150565b60005b8381101561297f578181015183820152602001612967565b838111156119735750506000910152565b600081518084526129a8816020860160208601612964565b601f01601f19169290920160200192915050565b60208152600061293b6020830184612990565b6000602082840312156129e157600080fd5b5035919050565b80356001600160a01b03811681146129ff57600080fd5b919050565b60008060408385031215612a1757600080fd5b612a20836129e8565b946020939093013593505050565b600080600060608486031215612a4357600080fd5b612a4c846129e8565b9250612a5a602085016129e8565b9150604084013590509250925092565b600060208284031215612a7c57600080fd5b61293b826129e8565b600080600080600060808688031215612a9d57600080fd5b612aa6866129e8565b94506020860135935060408601359250606086013567ffffffffffffffff80821115612ad157600080fd5b818801915088601f830112612ae557600080fd5b813581811115612af457600080fd5b8960208260051b8501011115612b0957600080fd5b9699959850939650602001949392505050565b801515811461108057600080fd5b60008060408385031215612b3d57600080fd5b612b46836129e8565b91506020830135612b5681612b1c565b809150509250929050565b600060208284031215612b7357600080fd5b813563ffffffff8116811461293b57600080fd5b634e487b7160e01b600052604160045260246000fd5b600067ffffffffffffffff80841115612bb857612bb8612b87565b604051601f8501601f19908116603f01168101908282118183101715612be057612be0612b87565b81604052809350858152868686011115612bf957600080fd5b858560208301376000602087830101525050509392505050565b60008060008060808587031215612c2957600080fd5b612c32856129e8565b9350612c40602086016129e8565b925060408501359150606085013567ffffffffffffffff811115612c6357600080fd5b8501601f81018713612c7457600080fd5b612c8387823560208401612b9d565b91505092959194509250565b60c081526000612ca260c0830189612990565b8281036020840152612cb48189612990565b9150508560408301528460608301528360808301528260a0830152979650505050505050565b60008060408385031215612ced57600080fd5b612cf6836129e8565b9150612d04602084016129e8565b90509250929050565b600082601f830112612d1e57600080fd5b61293b83833560208501612b9d565b600080600080600060a08688031215612d4557600080fd5b853567ffffffffffffffff80821115612d5d57600080fd5b612d6989838a01612d0d565b96506020880135915080821115612d7f57600080fd5b50612d8c88828901612d0d565b959895975050505060408401359360608101359360809091013592509050565b634e487b7160e01b600052603260045260246000fd5b600082821015612dd457612dd46128a9565b500390565b600060208284031215612deb57600080fd5b5051919050565b600060208284031215612e0457600080fd5b815161293b81612b1c565b600060018201612e2157612e216128a9565b5060010190565b60008219821115612e3b57612e3b6128a9565b500190565b600181811c90821680612e5457607f821691505b602082108103612e7457634e487b7160e01b600052602260045260246000fd5b50919050565b6020808252602e908201527f4552433732313a2063616c6c6572206973206e6f7420746f6b656e206f776e6560408201526d1c881b9bdc88185c1c1c9bdd995960921b606082015260800190565b6020808252602b908201527f436f756c64206e6f74207472616e7366657220746f6b656e2e204d697373696e60408201526a6720617070726f76616c3f60a81b606082015260800190565b6020808252818101527f4f776e61626c653a2063616c6c6572206973206e6f7420746865206f776e6572604082015260600190565b60008151612f5a818560208601612964565b9290920192915050565b600080845481600182811c915080831680612f8057607f831692505b60208084108203612f9f57634e487b7160e01b86526022600452602486fd5b818015612fb35760018114612fc457612ff1565b60ff19861689528489019650612ff1565b60008b81526020902060005b86811015612fe95781548b820152908501908301612fd0565b505084890196505b5050505050506130156130048286612f48565b64173539b7b760d91b815260050190565b95945050505050565b60208082526032908201527f4552433732313a207472616e7366657220746f206e6f6e20455243373231526560408201527131b2b4bb32b91034b6b83632b6b2b73a32b960711b606082015260800190565b60008261307f5761307f6128de565b500690565b6001600160a01b03858116825284166020820152604081018390526080606082018190526000906130b790830184612990565b9695505050505050565b6000602082840312156130d357600080fd5b815161293b81612908565b634e487b7160e01b600052603160045260246000fdfea2646970667358221220bc8bfa4456b4aa73bac8582a532bfd8736ec90011bdc01c9ef2e5f0869cb7ec864736f6c634300080e0033",
  "linkReferences": {},
  "deployedLinkReferences": {}
}